:020000040000FA
:100000000C94EC020C9414030C9414030C9414033D
:100010000C9414030C9414030C9414030C94140304
:100020000C9414030C9414030C9414030C941403F4
:100030000C9414030C9414030C9414030C941403E4
:100040000C948B100C9414030C9459100C943310D2
:100050000C9414030C9414030C9414030C941403C4
:100060000C94D5100C941403000000002400270009
:100070002A0000000000003E5B4F5B3E3E6B4F6B72
:100080003E1C3E7C3E1C183C7E3C181C577D571C79
:100090001C5E7F5E1C00183C1800FFE7C3E7FF00F2
:1000A00018241800FFE7DBE7FF30483A060E262940
:1000B000792926407F050507407F05253F5A3CE703
:1000C0003C5A7F3E1C1C08081C1C3E7F14227F22C9
:1000D000145F5F005F5F06097F017F006689956A94
:1000E000606060606094A2FFA29408047E0408101F
:1000F000207E201008082A1C08081C2A08081E1048
:100100001010100C1E0C1E0C30383E3830060E3EFF
:100110000E06000000000000005F0000000700075E
:1001200000147F147F14242A7F2A12231308646288
:1001300036495620500008070300001C22410000E9
:1001400041221C002A1C7F1C2A08083E0808008047
:1001500070300008080808080000606000201008DF
:1001600004023E5149453E00427F400072494949E0
:10017000462141494D331814127F10274545453912
:100180003C4A494931412111090736494949364616
:100190004949291E000014000000403400000008F6
:1001A0001422411414141414004122140802015999
:1001B00009063E415D594E7C1211127C7F49494926
:1001C000363E414141227F4141413E7F49494941BB
:1001D0007F090909013E414151737F0808087F00EA
:1001E000417F41002040413F017F081422417F4070
:1001F0004040407F021C027F7F0408107F3E414147
:10020000413E7F090909063E4151215E7F091929B6
:1002100046264949493203017F01033F4040403FA0
:100220001F2040201F3F4038403F631408146303E1
:10023000047804036159494D43007F414141020460
:10024000081020004141417F040201020440404067
:100250004040000307080020545478407F2844445D
:10026000383844444428384444287F385454541877
:1002700000087E090218A4A49C787F080404780072
:10028000447D40002040403D007F10284400004154
:100290007F40007C047804787C0804047838444467
:1002A0004438FC1824241818242418FC7C0804045E
:1002B00008485454542404043F44243C4040207CC7
:1002C0001C2040201C3C4030403C44281028444C1A
:1002D0009090907C4464544C4400083641000000E7
:1002E000770000004136080002010204023C262388
:1002F000263C1EA1A161123A4040207A3854545540
:100300005921555579412254547842215554784009
:1003100020545579400C1E52721239555555593991
:100320005454545939555454580000457C410002E6
:10033000457D420001457C407D1211127DF028254B
:1003400028F07C545545002054547C547C0A097F85
:100350004932494949323A4444443A324A48483099
:100360003A4141217A3A42402078009DA0A07D3D4B
:100370004242423D3D4040403D3C24FF2424487ED3
:100380004943662B2FFC2F2BFF0929F620C0887EBE
:10039000090320545479410000447D413048484AC3
:1003A00032384040227A007A0A0A727D0D19317D76
:1003B0002629292F28262929292630484D4020384A
:1003C0000808080808080808382F10C8ACBA2F1009
:1003D0002834FA00007B000008142A142222142A70
:1003E00014085500550055AA55AA55AAFF55FF55A2
:1003F000FF000000FF00101010FF00141414FF0095
:100400001010FF00FF1010F010F0141414FC001472
:1004100014F700FF0000FF00FF1414F404FC141490
:1004200017101F10101F101F1414141F001010108D
:10043000F0000000001F101010101F10101010F01E
:1004400010000000FF101010101010101010FF10FE
:10045000000000FF140000FF00FF00001F10170045
:1004600000FC04F414141710171414F404F400001E
:10047000FF00F714141414141414F700F7141414D0
:10048000171410101F101F141414F4141010F0106F
:10049000F000001F101F0000001F14000000FC14DB
:1004A0000000F010F01010FF10FF141414FF1410CF
:1004B00010101F00000000F010FFFFFFFFFFF0F022
:1004C000F0F0F0FFFFFF0000000000FFFF0F0F0F34
:1004D0000F0F3844443844FC4A4A4A347E0202062C
:1004E00006027E027E0263554941633844443C045F
:1004F000407E201E2006027E020299A5E7A5991CD7
:100500002A492A1C4C7201724C304A4D4D303048F9
:10051000784830BC625A463D3E494949007E010157
:10052000017E2A2A2A2A2A44445F444440514A44EC
:100530004040444A51400000FF0103E080FF0000BA
:1005400008086B6B083612362436060F090F0600B2
:100550000018180000001010003040FF0101001FBB
:1005600001011E00191D1712003C3C3C3C0000001C
:100570000000000103070F1F3F7F0080C0E0F0F87C
:10058000FCFE00000000250028002B0004040404E9
:10059000040404040202020202020303030303032D
:1005A000010204081020408001020408102001020A
:1005B00004081020000000080002010000030407E6
:1005C00000000000000000001F1C1F1E1F1E1F1F38
:1005D0001E1F1E005412221811241FBECFEFD8E098
:1005E000DEBFCDBF25E0A8EBB2E001C01D92A03375
:1005F000B207E1F712E0A0E0B1E0E0E2F3E302C00D
:1006000005900D92A83BB107D9F712E0CBEED2E0EE
:1006100004C02197FE010E945318CA3ED107C9F7B2
:100620000E94DA130C9483190C9400000895089525
:10063000AF92BF92CF92DF92EF92FF920F931F93F0
:10064000CF93DF936C017B018B01040F151FEB012E
:100650005E01AE18BF08C017D10759F06991D601E5
:10066000ED91FC910190F081E02DC6010995892B57
:1006700079F7C501DF91CF911F910F91FF90EF9016
:10068000DF90CF90BF90AF900895FC01538D448DC3
:10069000252F30E0842F90E0821B930B541710F02D
:1006A000CF96089501970895FC01918D828D98173A
:1006B00061F0A28DAE0FBF2FB11D5D968C91928D12
:1006C0009F5F9F73928F90E008958FEF9FEF089543
:1006D000FC01918D828D981731F0828DE80FF11D0C
:1006E000858D90E008958FEF9FEF0895FC01918D27
:1006F000228D892F90E0805C9F4F821B91098F7320
:10070000992708958DE793E00E94760321E0892BD5
:1007100009F420E0822F089580E090E0892B29F0F1
:100720000E94820381110C9400000895FC01A48DA5
:10073000A80FB92FB11DA35ABF4F2C91848D90E003
:1007400001968F739927848FA689B7892C93A089E6
:10075000B1898C91837080648C93938D848D981370
:1007600006C00288F389E02D80818F7D8083089503
:10077000EF92FF920F931F93CF93DF93EC0181E0F1
:10078000888F9B8D8C8D98131AC0E889F989808198
:1007900085FF15C09FB7F894EE89FF896083E889CB
:1007A000F98980818370806480839FBF81E090E0BD
:1007B000DF91CF911F910F91FF90EF900895F62E4A
:1007C0000B8D10E00F5F1F4F0F731127E02E8C8DE4
:1007D0008E110CC00FB607FCFACFE889F989808129
:1007E00085FFF5CFCE010E949603F1CFEB8DEC0F84
:1007F000FD2FF11DE35AFF4FF0829FB7F8940B8F46
:10080000EA89FB8980818062CFCFCF93DF93EC01AF
:10081000888D8823B9F0AA89BB89E889F9898C91E8
:1008200085FD03C0808186FD0DC00FB607FCF7CFA4
:100830008C9185FFF2CF808185FFEDCFCE010E94A4
:100840009603E9CFDF91CF91089590E0FC01EC543D
:10085000FA4F2491FC01E056FA4F3491FC01E45721
:10086000FA4FE491EE23C9F0222339F0233001F14D
:10087000A8F4213019F1223029F1F0E0EE0FFF1F2A
:10088000EE57FA4FA591B4918FB7F894EC9161119E
:1008900026C030953E233C938FBF08952730A9F0A2
:1008A0002830C9F0243049F7809180008F7D03C043
:1008B000809180008F7780938000DFCF84B58F7721
:1008C00084BDDBCF84B58F7DFBCF8091B0008F7767
:1008D0008093B000D2CF8091B0008F7DF9CF3E2BB6
:1008E000DACF3FB7F8948091FD029091FE02A0917B
:1008F000FF02B091000326B5A89B05C02F3F19F059
:100900000196A11DB11D3FBFBA2FA92F982F88278F
:10091000BC01CD01620F711D811D911D42E0660F6A
:10092000771F881F991F4A95D1F708958F929F923C
:10093000AF92BF92CF92DF92EF92FF926B017C0158
:100940000E9471044B015C01C114D104E104F10463
:10095000B9F00E947104681979098A099B09683EF7
:1009600073408105910580F321E0C21AD108E108A6
:10097000F10888EE880E83E0981EA11CB11CE4CF1C
:10098000FF90EF90DF90CF90BF90AF909F908F90AF
:10099000089508958BE494E00C94D3048BE494E0E0
:1009A0000C94D604089590E080E0089590E080E0F3
:1009B0000895EF92FF920F931F93CF93DF93EC0173
:1009C000EC80FD806E157F050CF070C057FF04C0F1
:1009D000240F351F50E040E08E819F81FA01E20F25
:1009E000F31F8E179F071CF49C01241B350B121656
:1009F00013060CF05BC0922F842F86958695869502
:100A00008E9DD0018F9DB00D11246A0F7B1FAF8D7D
:100A1000B8A1A60FB71F477049F188E0841B482F83
:100A2000682F70E0FB01E658FA4FE491281708F0B0
:100A300063C0621B71092FEF30E002C03595279526
:100A40006A95E2F7E2230130110539F0B0F1023086
:100A5000110561F58C91E82702C08C91E82BEC938D
:100A6000941720F12C813D81A20FB31FE92FE41BC5
:100A7000E83078F00230110521F58E2F9C91909589
:100A80009C932C813D81A20FB31F88508830B0F712
:100A9000E770EE2359F0F0E0EE58FA4FE4910130A0
:100AA0001105F9F010F10230110519F1DF91CF9124
:100AB0001F910F91FF90EF900895E0958C91E8239E
:100AC000CECF81E00115110509F480E081959E2FBC
:100AD0008C932C813D81A20FB31F98509830C0F7A2
:100AE000D7CF8C91E82BEC93E1CFE0958C91E82364
:100AF000FACF8C91E827F7CF0130110509F4ADCF7B
:100B0000E0F20230110509F4A5CFAE0DBF1DAECF46
:100B10000F931F93CF93DF9377FF04C0260F371FE8
:100B200070E060E0DC011496CD91DC91FB01E20FF6
:100B3000F31FCE17DF071CF49E01261B370B12167E
:100B400013064CF5FA0157FD3796A3E0F595E795A6
:100B5000AA95E1F7EC9FD001ED9FB00DFC9FB00D81
:100B600011246A0F7B1FDC015F96ED91FC91E60F6B
:100B7000F71F4770552781E090E001C0880F4A9524
:100B8000EAF7482F0130110559F0A8F02E0F3F1F4A
:100B900002301105E1F0DF91CF911F910F9108957F
:100BA0002E0F3F1FE217F307B1F38191DF01119779
:100BB000842B8C93F7CF80952E0F3F1FE217F307FE
:100BC00051F39191DF01119798239C93F7CFE2178E
:100BD000F30709F38191DF01119784278C93F7CFF5
:100BE0000F931F93FA01DC0156964C9156974230B1
:100BF000E9F04330A1F1413061F514964D915C91DB
:100C0000DA01AE1BBF0BFD01E21BF30B77FD0BC03E
:100C1000DC0116964D915C916417750724F4AB01C5
:100C2000BF010E9488051F910F91089514964D9160
:100C30005C91DA01A61BB70BBD0161507109DC01A3
:100C400016964D915C91DA01AE1BBF0BFD01E21BC4
:100C5000F30B77FDE8CFAF010E94D904E4CF1696DD
:100C60004D915C91DA01A61BB70BBD016150710972
:100C7000CDCF0F931F93FA01DC0156964C915697F6
:100C80004230A9F0433091F1413019F514964D915D
:100C90005C91DA01AE1BBF0BFD013197F7FD04C07B
:100CA000AB01BF010E94D9041F910F9108951496C2
:100CB0004D915C91DA01A61BB70BBD01DC011696C4
:100CC0004D915C91DA01AE1BBF0BFD013197621BA8
:100CD000730BF7FDE9CFDC0116964D915C91E4179B
:100CE000F50714F7AF010E948805DECF16964D91E7
:100CF0005C91DA01A61BB70BBD01621B730BCECF53
:100D0000FC0177FD64C080859185681779070CF038
:100D10005EC057FD5CC082859385481759070CF06B
:100D200056C086898230B1F0833029F1813041F498
:100D300084819581841B950BAB01BC0161507109C5
:100D40002130310509F108F443C02230310509F49E
:100D500063C0089584819581DC01A61BB70BBD019A
:100D60006150710986819781DC01A41BB50BAD012F
:100D700041505109E5CF86819781861B970BBA01B7
:100D8000AC0141505109DCCFCA0157FD0796A3E0E1
:100D900095958795AA95E1F7A481B5818A9F9001E1
:100DA0008B9F300D9A9F300D1124620F731F078C9B
:100DB000F0A1E02DE60FF71F4770552721E030E046
:100DC00001C0220F4A95EAF78081822B8083089523
:100DD000CA0157FD079633E0959587953A95E1F757
:100DE000A481B5818A9F90018B9F300D9A9F300D11
:100DF0001124620F731F078CF0A1E02DE60FF71F7F
:100E00004770552781E090E001C0880F4A95EAF7C6
:100E1000809590818923DACFCA0157FD079623E098
:100E2000959587952A95E1F7A481B5818A9F9001D0
:100E30008B9F300D9A9F300D1124620F731F078C0A
:100E4000F0A1E02DE60FF71F4770552721E030E0B5
:100E500001C0220F4A95EAF780818227B7CF089513
:100E6000FC016370668B84819581268137816130B6
:100E700039F0633029F0918780873387228708957E
:100E8000318720879387828708952F923F924F92D0
:100E90005F926F927F928F929F92AF92BF92CF920A
:100EA000DF92EF92FF920F931F93CF93DF93CDB713
:100EB000DEB76A970FB6F894DEBF0FBECDBF9A8F2C
:100EC000898F7A8369834A01D22E18870F8337016D
:100ED000BC2CDC0159962D913C915A972115310576
:100EE00009F015C118968D919C911997681779078B
:100EF0000CF0D7C11A968D919C91481759070CF0A8
:100F0000D0C14C2C512CB6E0CB9E600D711D11242C
:100F10007C876B87161617060CF0C3C1EA2DF0E02C
:100F2000FA87E98793E0EE0FFF1F9A95E1F7F88BB8
:100F3000EF87CF01840F951F181619060CF0B1C169
:100F4000A98DBA8D58968C91811104C0BFEABD1548
:100F500008F4D394A98DBA8DED91FC911197028478
:100F6000F385E02DCD010995B5E0DB9EC00111248C
:100F7000E981FA81FC83EB83312C212C9C012E58D2
:100F80003F4F388F2F8B4A2D50E05E8B4D8BEF8972
:100F9000F88DE20DF31D44919E828D82D12CC12CDF
:100FA00069817A81620D731D7A8B698B842F90E041
:100FB0009C8B8B8BE98DFA8DA081B18140FF82C023
:100FC000F1E0BF126FC0AF126DC01C96ED91FC91A5
:100FD0002F813885A4014C0D5D1D69897A89898D21
:100FE0009A8D0995EB89FC89F595E7954E2F5FEF72
:100FF000C51AD50A6D817E818D899E89680F791FFA
:101000007E836D8398E0C916D10481F6AFEF2A1A6A
:101010003A0AEB81FC81E40DF51DFC83EB83F5E0DE
:101020002F16310409F0B3CF2F81388526153705E7
:10103000B9F0A98DBA8DED91FC91B1E0BB1257C00A
:10104000AB1255C069817A816B5F7F4F0088F1894F
:10105000E02D830128E030E0A401898D9A8D099567
:10106000A98DBA8DED91FC9111970688F789E02D35
:10107000CD016A960FB6F894DEBF0FBECDBFDF91EB
:10108000CF911F910F91FF90EF90DF90CF90BF9085
:10109000AF909F908F907F906F905F904F903F9018
:1010A0002F9009941E96ED91FC91EF80F8840985AC
:1010B0001A8592014D815E816B817C81898D9A8D2B
:1010C000099590CF2F8138852615370509F48ACFE9
:1010D00031E0B31207C0A31205C01C96ED91FC913C
:1010E000930178CF1E96ED91FC917301E0CF6B8553
:1010F0007C85641975090684F785E02D73010F85D9
:1011000018899201A401898D9A8D0995A9CFF901B9
:1011100034969491329745915491D91AB7E0DB9E59
:10112000400D511D1124F901259134913C8B2B8BDD
:10113000FA0125903490FA013296749031963491E8
:10114000398B329664903196449041E04C1518F0FA
:101150004A1508F07FC0662D062C000C770B7C83A7
:101160006B83842D042C000C990B9E838D83A98D99
:10117000BA8DED91FC9111970284F385E02DCD019C
:101180000995512CD12CC12CEA2DF0E0FA87E98782
:101190002B2D30E03C872B87A401440D511D47FCCB
:1011A0005A95588F4F8B69817A81660D711D67FC46
:1011B0007A957E876D877989C71608F051CF2C2DD7
:1011C00030E04D815E81420F531FA985BA854A9F49
:1011D000C0014B9F900D5A9F900D1124FC01E80D0A
:1011E000F91DF88BEF87852D612C4F89588D420FA3
:1011F000531F5E8B4D8B671408F050C044244394FA
:10120000480E877041F4C1010196EB89FC89E20D1B
:10121000F31DD4901C01D7FE19C0A98DBA8DED9194
:10122000FC91662D70E0B1E0BB1219C0AB1217C083
:101230002D853E85620F731F0484F585E02D2F8177
:1012400038854D895E89898D9A8D0995DD0C639469
:10125000842DD1CF1E821D821C821B8288CF4B81A0
:101260005C81640F751FAB85BC856A9FC0016B9F55
:10127000900D7A9F900D112469817A81680F791FF2
:101280000684F785E02DEF80F88409851A859D0195
:101290004F855889898D9A8D0995D8CF570CC3945D
:1012A0008ACF6A960FB6F894DEBF0FBECDBFDF912E
:1012B000CF911F910F91FF90EF90DF90CF90BF9053
:1012C000AF909F908F907F906F905F904F903F90E6
:1012D0002F9008958F929F92AF92CF92EF92FF92AC
:1012E0000F931F93CF93DF93EC01262F898D9A8D57
:1012F000009709F051C06A30D1F41D861C868D8993
:1013000048E0849F900111248E859F85820F931F52
:101310009F878E8781E090E0DF91CF911F910F91A1
:10132000FF90EF90CF90AF909F908F9008956D3089
:1013300089F3CC88AD888F898823C1F08C859D8501
:1013400036E0C39E800D911D1124488559854817AC
:10135000590764F44E855F851D861C8638E0A39E80
:10136000C0011124840F951F9F878E87EA88FB8810
:10137000088919894E855F856C857D85CE010E941F
:1013800045072C898C859D8546E0249F800D911D05
:1013900011249D878C87BECF6A3069F41D861C8618
:1013A000FC013896E4912D898E859F85E29F800D02
:1013B000911D1124ADCF6D3009F4ACCFFC013496F2
:1013C0003491631708F4A6CF3296E491E61708F437
:1013D000A1CFFC01329685909490462F431B342F69
:1013E00047E0349F800C911C1124F4013296349113
:1013F0003196E4913323A9F1EE2399F1CC88F401DD
:101400003596E491AD884F89442301F10E2E000CEE
:10141000FF0BE30FF11DCE9EA001CF9E500D1124B6
:101420006C857D85460F571F68857985641775071C
:101430006CF44E855F851D861C86FC013896E49110
:10144000AE9E400D511D11245F874E87EA88FB88B0
:10145000088919894E855F856C857D85CE010E943E
:101460004507F4013496E4912C898C859D85E29F93
:10147000800D911D11248DCF6F927F928F929F923C
:10148000AF92BF92CF92DF92EF92FF920F931F9392
:10149000CF93DF93EC016B015A0139014801E881D8
:1014A000F9810284F385E02D0995E881F9810288AC
:1014B000F389E02D87019301A501B601CE010995BD
:1014C000A501480D591D41505109E881F981028853
:1014D000F389E02D9301B601CE010995E881F981E8
:1014E0000088F189E02D9401A501B601CE0109958E
:1014F000C60CD71CB60161507109E881F9810088DA
:10150000F189E02D9401A501CE010995E881F981C9
:101510000688F789E02DCE01DF91CF911F910F91C1
:10152000FF90EF90DF90CF90BF90AF909F908F9003
:101530007F906F9009946F927F928F929F92AF925B
:10154000BF92CF92DF92EF92FF920F931F93CF93B0
:10155000DF935C01EB016A01490138018701DC017D
:10156000ED91FC916217730719F5641675062CF05E
:10157000962D872D3A01C92ED82E960126193709A6
:101580002F5F3F4F048CF58DE02DA301BE01C501F7
:101590000995DF91CF911F910F91FF90EF90DF9010
:1015A000CF90BF90AF909F908F907F906F90089555
:1015B0004615570591F42617370724F0892D4B015E
:1015C000C22FD82F9E01281939092F5F3F4F068C53
:1015D000F78DE02DA601B401DACF0284F385E02D6A
:1015E0000995D501ED91FC910488F589E02D8301E1
:1015F0009401A601BE01C5010995D501ED91FC91AB
:101600000688F789E02DC501DF91CF911F910F91D9
:10161000FF90EF90DF90CF90BF90AF909F908F9012
:101620007F906F900994EF92FF920F931F93DC01CC
:101630001A960D911C911B9718962D913C91199714
:10164000ED91FC9100A0F1A1E02D7B0150E040E084
:1016500070E060E009951F910F91FF90EF90089561
:101660004F925F926F927F928F929F92AF92BF92B2
:10167000CF92DF92EF92FF920F931F93CF93DF935E
:101680006C012B015A0139014801DC01ED91FC91FB
:101690000284F385E02D0995E201640C751CD601E6
:1016A000ED91FC91C615D7055CF40088F189E02D19
:1016B00087019401A501BE01C60109952196EFCFCE
:1016C0000688F789E02DC601DF91CF911F910F9118
:1016D000FF90EF90DF90CF90BF90AF909F908F9052
:1016E0007F906F905F904F9009948F929F92AF92EE
:1016F000BF92CF92DF92EF92FF920F931F93CF93FF
:10170000DF93EC015B014A016901E881F981028400
:10171000F385E02D099595012C0D3D1D21503109D2
:10172000E881F9810488F589E02D78018401A4011C
:10173000B501CE010995E881F9810688F789E02D88
:10174000CE01DF91CF911F910F91FF90EF90DF902D
:10175000CF90BF90AF909F908F9009948F929F925F
:10176000AF92BF92CF92DF92EF92FF920F931F93AF
:10177000CF93DF93EC015B014A0169017801E881B5
:10178000F9810284F385E02D0995C80CD91C8601E6
:1017900001501109E881F9810488F589E02D95014E
:1017A000A401B501CE010995E881F9810688F78980
:1017B000E02DCE01DF91CF911F910F91FF90EF901F
:1017C000DF90CF90BF90AF909F908F900994089535
:1017D000EF92FF920F931F93DC01ED91FC9100A01B
:1017E000F1A1E02D09951F910F91FF90EF900895C1
:1017F0000F931F93DC01ED91FC91068CF78DE02D8A
:1018000009951F910F9108950F931F93DC01ED919E
:10181000FC91048CF58DE02D09951F910F91089591
:10182000DC01ED91FC910084F185E02D09942F926B
:101830003F924F925F926F927F928F929F92AF9260
:10184000BF92CF92DF92EF92FF920F931F93CF93AD
:10185000DF9300D000D000D0CDB7DEB73C016A01E5
:101860003E832D83FC82EB825801A41AB50AB7FE91
:1018700003C0B194A194B1088D809E80861A970A06
:1018800097FE03C09194819491088A149B045CF0A4
:10189000902F812F0D811E819D838E839C2D8D2DF8
:1018A0006B01692F782F0C151D055CF09D818E81D1
:1018B0007E836D83692F782F902F812F8601C92E0B
:1018C000D82E1601201A310A2B012D813E81421A91
:1018D000530A57FE03C0519441945108710137FED9
:1018E00003C03FEFE31AF30AF594E7948D819E81DC
:1018F000861797075CF5A1E0B0E0BA83A983C0160C
:10190000D1064CF1D301ED91FC910484F585E02DD5
:101910002B813C81A8016D817E818A149B041CF07F
:101920004D815E81B801C3010995E418F508F7FE01
:101930000AC02D813E8189819A81280F391F3E83FB
:101940002D83E20CF31C0F5F1F4FD9CF2FEF3FEF1A
:101950003A832983D4CF26960FB6F894DEBF0FBE04
:10196000CDBFDF91CF911F910F91FF90EF90DF904E
:10197000CF90BF90AF909F908F907F906F905F902F
:101980004F903F902F9008952091D902260F332732
:10199000331F21323105ECF420915303FC0190E018
:1019A00080E0243069F082E00895A091D90221916D
:1019B000AC0147545D4FA40FB52FB11D2C93019678
:1019C000861798F38091D902680F6093D90280E05E
:1019D000089581E008951092530381E080935203AB
:1019E00010922D0361E082E10E94250461E083E111
:1019F0000E942504E9EBF0E080818E7F8083808166
:101A00008D7F808388E48093B80085E48093BC0058
:101A10000895CF93DF9391E09093B8028823B9F0B3
:101A2000C091B800D091BA008091BC008A7B8093AD
:101A3000BC0060E082E10E94250460E083E10E9436
:101A400025040E94EB0CD093BA00C093B800DF913C
:101A5000CF9108958F929F92AF92BF92CF92DF92D3
:101A6000EF92FF920F931F93CF93DF93D0917C035C
:101A7000D13208F0D7C0182FC0917B030E947104A7
:101A80006B017C018091530381116BC082E08093D4
:101A90005303109352038FEF80935103109250031E
:101AA000D0934F03ABE5B3E0EFE2F3E080E0D8136F
:101AB00091C010922E0380912E03CC0FC82BC0939F
:101AC0002E0380912D03813009F088C010922D03E0
:101AD0000E9471046B017C0180912E038093BB00F6
:101AE0008091550390915603A0915703B0915803EC
:101AF000892B8A2B8B2BA1F00E9471040091550336
:101B00001091560320915703309158036C197D09A9
:101B10008E099F09061717072807390708F442C0DE
:101B20008091BC0083FDD8CF85EC8093BC000E94DF
:101B300071046B017C0180915303823009F450C021
:101B4000809151038F3F09F46FC08091510380321F
:101B500009F46CC080915103803309F469C084E0BA
:101B600026C08091550390915603A0915703B091E0
:101B70005803892B8A2B8B2B09F484CF0E94710484
:101B80008090550390905603A0905703B09058034F
:101B90006C197D098E099F0986169706A806B90655
:101BA00008F070CF809154030E94090D85E01092D7
:101BB0005A0310927C0310925903DF91CF911F9129
:101BC0000F91FF90EF90DF90CF90BF90AF909F90DC
:101BD0008F9008959D9191938F5F69CF85EEA5CFEA
:101BE0008091550390915603A0915703B0915803EB
:101BF000892B8A2B8B2B09F49ECF0E9471040091B4
:101C000055031091560320915703309158036C19D6
:101C10007D098E099F09061717072807390708F05D
:101C20008ACFC0CF81E0C3CF80E0C1CF82E0BFCFF9
:101C300083E0BDCF1F93CF93DF93EC01162F8D8DE3
:101C40009E8D892B09F459C02DA93EA94FA958ADE5
:101C500060E074E284EF90E00E9431182051310975
:101C60004109510956954795379527952093B80016
:101C7000112309F452C017EA8D8D9E8D009709F447
:101C80004EC029A131E03093590320937B03109279
:101C90005A0310927C03DC01ED91FC910190F081DC
:101CA000E02D60E009958D8D9E8DDC01ED91FC911C
:101CB0000190F081E02D612F099581E00E942A0DAD
:101CC0008D8D9E8D892B09F45EC029AD3AAD4BAD4B
:101CD0005CAD60E074E284EF90E00E943118205126
:101CE0003109410951095695479537952795209314
:101CF000B800DF91CF911F9108958B8D9C8D892B1A
:101D000021F09EAD8FAD9CBD8DBDEFA5F8A9908152
:101D10008CA9809589238083ABCF16EAADCFEDA542
:101D2000FEA590818BA98095892380838B8D9C8DC6
:101D3000892B39F01EBD00000DB407FEFDCF8EB516
:101D4000BFCF28E030E090E8E9A5FAA589A9412FA6
:101D50004923A9F04081842B8083EBA5FCA58081D9
:101D60004AA9842B8083EBA5FCA540818AA9809594
:101D70008423808396952150310931F7A1CF40818A
:101D800080958423E9CFEFA5F8A980819CA9892BB0
:101D90008083AFCFCF93DF93EC018B818823A1F0B9
:101DA000888191E09093590380937B0310925A03AA
:101DB00010927C0381E00E942A0D91E0811190E055
:101DC000892FDF91CF910895109206031092050399
:101DD00010925A0310927C030E94EB0C86E193E070
:101DE000909304038093030387E193E090930203AD
:101DF0008093010381E08B83CE010E94CA0E982F4D
:101E00008111CECFDDCFE091060380910503E81765
:101E100030F4F0E0E95FFC4F808190E008958FEFAF
:101E20009FEF089590910603809105032FEF3FEFF8
:101E3000981748F4E92FF0E0E95FFC4F208130E08B
:101E40009F5F90930603C9010895809105039091C7
:101E50000603891B990B0895CF92DF92EF92FF92B0
:101E60000F931F93CF93DF937C01CB018A012091C5
:101E70005903222389F0EB016B01C40ED51ECC154A
:101E8000DD0569F06991D701ED91FC910190F08138
:101E9000E02DC7010995F3CF642F0E94C40CC8013F
:101EA000DF91CF911F910F91FF90EF90DF90CF9036
:101EB0000895CF93DF931F92CDB7DEB7698320914A
:101EC00059032223F9F020917C03203258F021E0BD
:101ED00030E0FC013383228390E080E00F90DF91BB
:101EE000CF91089580915A03E82FF0E0E55AFC4F16
:101EF000998190838F5F80935A0380937C0381E064
:101F000090E0ECCF61E0CE0101960E94C40CF7CFC7
:101F100090E080E008950E947E19FB01019000206E
:101F2000E9F73197AF01461B570BDC01ED91FC91AE
:101F30000280F381E02D09948F929F92AF92BF921D
:101F4000EF92FF920F931F93CF93DF93CDB7DEB73E
:101F5000A1970FB6F894DEBF0FBECDBF7C01FA018A
:101F6000CB0119A2223008F42AE08E010F5D1F4F29
:101F7000822E912CB12CA12CBF01A50194010E94AD
:101F80003118F901CA016A300CF5605DD8016E9311
:101F90008D01232B242B252B79F790E080E01097DF
:101FA00021F0BD01C7010E948D0FA1960FB6F894D4
:101FB000DEBF0FBECDBFDF91CF911F910F91FF907C
:101FC000EF90BF90AF909F908F900895695CDECFA7
:101FD000CF93DF93BC018DE793E00E948D0FEC015E
:101FE00062E671E08DE793E00E948D0F8C0F9D1FDC
:101FF000DF91CF91089585ED8093BC0080915503CA
:1020000090915603A0915703B09158030796A11DD4
:10201000B11D23E0B695A795979587952A95D1F799
:102020002091BC0024FD03C01092530308954091F9
:102030005503509156036091570370915803452BF7
:10204000462B472B69F30097A105B10541F02AE221
:102050002A95F1F700C00197A109B109E1CF80915C
:1020600054030C94090D1F920F920FB60F92112476
:102070002F933F934F935F936F937F938F939F9390
:10208000AF93BF93EF93FF938DE793E00E94960386
:10209000FF91EF91BF91AF919F918F917F916F9140
:1020A0005F914F913F912F910F900FBE0F901F9016
:1020B00018951F920F920FB60F9211242F938F93A2
:1020C0009F93EF93FF93E0918D03F0918E038081B6
:1020D000E0919303F091940382FD1BC09081809165
:1020E00096038F5F8F7320919703821741F0E091E1
:1020F0009603F0E0E358FC4F958F80939603FF9191
:10210000EF919F918F912F910F900FBE0F901F9085
:1021100018958081F4CF1F920F920FB60F92112461
:102120002F933F938F939F93AF93BF9380912703F8
:1021300090912803A0912903B0912A033091FC02C9
:1021400023E0230F2D3758F50196A11DB11D2093D3
:10215000FC028093270390932803A0932903B09354
:102160002A038091FD029091FE02A091FF02B0919E
:1021700000030196A11DB11D8093FD029093FE0204
:10218000A093FF02B0930003BF91AF919F918F91F5
:102190003F912F910F900FBE0F901F90189526E83A
:1021A000230F0296A11DB11DD2CF1F920F920FB621
:1021B0000F9211242F933F934F935F936F937F93CD
:1021C0008F939F93AF93BF93EF93FF938091B90049
:1021D000887F803609F44AC0F0F5883209F4A7C038
:1021E00018F5803109F49BC0B8F4882309F4F9C0CC
:1021F000883009F494C0FF91EF91BF91AF919F9106
:102200008F917F916F915F914F913F912F910F909F
:102210000FBE0F901F901895883109F488C0803246
:1022200051F78093510314C0803409F49DC040F4E9
:102230008033B9F38833F9F68093510385ECB0C04D
:10224000803509F485C0883509F496C0883499F63C
:102250000E94FB0FD0CF883909F48CC038F588373D
:1022600029F050F4883611F0803729F683E0809306
:1022700053031092FB0257C0883809F47BC08039A1
:1022800019F0803809F0B7CF8091FB02803208F056
:1022900071C0E091FB0281E08E0F8093FB02809180
:1022A000BB00F0E0E552FD4F80833DC0803B39F03C
:1022B000E0F4803A09F479C0883A09F09CCF84E0D0
:1022C000809353031092DA021092D902E091030333
:1022D000F091040309958091D90281110FC081E02A
:1022E0008093D9021092B90209C0803C09F4A6CFAC
:1022F000883C09F4A3CF883B09F07DCFE091DA0256
:1023000081E08E0F8093DA02F0E0E754FD4F808188
:102310008093BB009091DA028091D90229C080910C
:102320002E038093BB0085EC8093BC0064CF90911A
:10233000500380914F03981758F5E091500381E0C6
:102340008E0F80935003F0E0E15DFC4F8081E9CF78
:10235000E091500381E08E0F809350038091BB0089
:10236000F0E0E15DFC4F80839091500380914F033A
:102370009817C8F285E8D8CFE091500381E08E0F1E
:10238000809350038091BB00F0E0E15DFC4F8083BF
:102390008091520381115CCF81E080932D0384EA08
:1023A0008093BC001092530326CF85EC8093BC0031
:1023B000109253038091FB02803230F4E091FB02D3
:1023C000F0E0E552FD4F10826091FB0270E0E09179
:1023D0000103F09102038BED92E009951092FB024C
:1023E0000ACF1092510334CFCF93DF93EC0168836F
:1023F00070E0FB01E056FA4F249164577A4FFB01DD
:102400008491882399F090E0880F991FFC01E85986
:10241000FF4FA591B491FC01EE57FA4F859194912D
:102420008FB7F894EC91E22BEC938FBF60E088813A
:102430000E942504188681E08A831B821C821D82EB
:102440001E82DF91CF910895CF93DF93EC016883D3
:1024500070E0FB01E056FA4F249164577A4FFB017C
:1024600084918823C9F090E0880F991FFC01E859F6
:10247000FF4F45915491FC01EE57FA4FA591B4914D
:102480009FB7F894FA013081822F8095832380834F
:10249000EC912E2B2C939FBF60E088810E94250435
:1024A0001982DF91CF9108951092800310927F03DB
:1024B00088EE93E0A0E0B0E08093810390938203E4
:1024C000A0938303B09384032AE031E030937E032A
:1024D00020937D0325EC30E030938A032093890319
:1024E00024EC30E030938C0320938B0320EC30E01D
:1024F00030938E0320938D0321EC30E030939003D2
:1025000020938F0322EC30E03093920320939103C9
:1025100026EC30E0309394032093930310929603BB
:1025200010929703109298031092990348E853E190
:1025300060E070E040933D0450933E0460933F049C
:10254000709340041092490410924504109246047E
:10255000109247041092480410924A0410921C04EE
:1025600010921B0410921A0410924E0410924D0403
:102570002CE131E030934C0420934B04109258042A
:10258000109257048093590490935A04A0935B04CB
:10259000B0935C0488E291E09093560480935504D4
:1025A00010922A05109226051092270510922805F0
:1025B0001092290510922B051092200510921C05EF
:1025C00010921D0510921E0510921F0510922105F4
:1025D0001092160510921205109213051092140510
:1025E000109215051092170562E081E095E00E94B7
:1025F000F4111092FF041092FB041092FC0410924C
:10260000FD041092FE041092000563E08AEE94E04F
:102610000E94F4111092E8041092E4041092E50470
:102620001092E6041092E7041092E90464E083ED4E
:1026300094E00E94F4111092D1041092CD041092F3
:10264000CE041092CF041092D0041092D20465E010
:102650008CEB94E00E94F4111092BA041092B6042C
:102660001092B7041092B8041092B9041092BB04EF
:102670006DE085EA94E00E94F4116BE083EA94E057
:102680000E9424126AE081EA94E00E9424121092CF
:1026900064041092630420E830E0309366042093D1
:1026A000650480E290E0909368048093670430931F
:1026B0006A042093690490936C0480936B041092D5
:1026C000770410926E0410926D04109270041092B0
:1026D0006F0481E080937604809375042FEF3FEFC1
:1026E0003093740420937304309372042093710424
:1026F000809378041092790410927B0410927A04EB
:102700008AE391E0909362048093610410927D04C7
:1027100010927C0485E594E090937F0480937E047E
:1027200010928104109280048FEF8093850480932F
:10273000860480938704809388048093890480E8CA
:102740009AE1A6E0B0E08093960490939704A0935A
:102750009804B093990480EA96E8A1E0B0E08093F1
:102760009A0490939B04A0939C04B0939D0480E5ED
:1027700080939F041092A00410925404109253046A
:102780001092520410924F04E8ECF5E081E08C3096
:1027900049F09491823009F49F5F21E0280F31962F
:1027A000992331F08093500481E08093510408957F
:1027B000822FEDCFCF93DF9300D000D000D01F92B7
:1027C000CDB7DEB7789484B5826084BD84B581606E
:1027D00084BD85B5826085BD85B5816085BD8091EC
:1027E0006E00816080936E00109281008091810064
:1027F000826080938100809181008160809381005C
:10280000809180008160809380008091B10084601D
:102810008093B1008091B00081608093B00080917E
:102820007A00846080937A0080917A00826080933D
:102830007A0080917A00816080937A0080917A009A
:10284000806880937A001092C100E0918D03F0912E
:102850008E0382E08083E0918903F0918A031082E5
:10286000E0918B03F0918C038FEC808310929503A1
:10287000E0919103F091920386E08083E0918F03D1
:10288000F0919003808180618083E0918F03F091CB
:102890009003808188608083E0918F03F0919003A2
:1028A000808180688083E0918F03F0919003808124
:1028B0008F7D808385E691E00E94E80F68EE73E0EB
:1028C00080E090E00E94960480912B0390912C036D
:1028D000009711F00E94F51886E090E00E945918C8
:1028E0008C0188E6D8018C9385E594E012969C9340
:1028F0008E93119713961C92139780E290E0159691
:102900009C938E93149710932C0300932B03109297
:1029100006031092050310925A0310927C030E9442
:10292000EB0C86E193E0909304038093030387E12B
:1029300093E0909302038093010381E0F801838385
:10294000C8010E94CA0E81110FC084E891E00E9464
:10295000E80F8DE793E00E9405046AE070E080E0F4
:1029600090E00E949604F9CF86E991E00E94E80F7A
:1029700068EE73E080E090E00E94960410E1412E42
:1029800017E2512E612C712C198220902B0330906C
:102990002C03D10114968D919C911597892B09F4E4
:1029A00025C111968D919C9112972C9131E0309315
:1029B000590320937B0310925A0310927C03DC018D
:1029C000ED91FC910280F381E02D41E050E0BE01E9
:1029D0006F5F7F4F0995019709F008C180E00E9461
:1029E0002A0D811103C1D12CC12CF1018481958163
:1029F000B7E0EB2EF12CEC18FD088E159F0508F4BE
:102A00007C01D1010C910E9471044B015C01809109
:102A10005303811174C01E2D113208F010E2B1E091
:102A2000B093530321E087E090E08E199F09C81608
:102A3000D90608F420E020935203EFEFE09351030E
:102A4000109250038FEF810F80934F03F1E0F093CA
:102A50002E0380912E03000F082B00932E038091EC
:102A60002D03813009F095C010922D030E9471044E
:102A70004B015C0180912E038093BB008091550334
:102A800090915603A0915703B0915803892B8A2B3C
:102A90008B2BA1F00E9471042091550330915603B5
:102AA0004091570350915803681979098A099B0985
:102AB000261737074807590708F442C08091BC0021
:102AC00083FDD8CF65EC6093BC000E9471044B017C
:102AD0005C0180915303813009F45FC08091500301
:102AE000811710F410915003AFE2B3E0E7E0F3E098
:102AF00080E0811751F19D9191938F5FFACF809182
:102B0000550390915603A0915703B0915803892B18
:102B10008A2B8B2B09F47BCF0E94710420915503E3
:102B20003091560340915703509158036819790921
:102B30008A099B09261737074807590708F067CF06
:102B4000809154030E94090D10E010920603109327
:102B500005031E151F0409F049C001E010E00C0F29
:102B60001D1F0C0D1D1D5801C8018A199B098E15CA
:102B70009F05A8F5D10111968D919C91DC01ED91F5
:102B8000FC910284F385E02D0995F80181938F0172
:102B9000EBCF85EE8093BC0098CF80915503909148
:102BA0005603A0915703B0915803892B8A2B8B2B86
:102BB00009F48FCF0E947104209155033091560380
:102BC0004091570350915803681979098A099B0964
:102BD000261737074807590708F07BCFB1CFCE0C2F
:102BE000DF1CF7E0CF16D10408F4FFCE99819F7760
:102BF0002A813B81432F50E084E0559547958A9583
:102C0000E1F7842F880F880F642F681B862F880FA9
:102C1000830F3D816E816F774F81E42FF0E054E0A8
:102C2000F595E7955A95E1F75E2F550F550FE51B82
:102C3000EE0FE40FE0934F04462F50E074E05595FB
:102C400047957A95E1F7542F550F550F451B440FC3
:102C5000460F40935004632F70E0E4E0759567954C
:102C6000EA95E1F7462F440F440F641B660F630F8C
:102C70006093510480935204422F50E0F4E0559544
:102C80004795FA95E1F7342F330F330F431B440F69
:102C9000420F40935304292F30E0A4E03595279547
:102CA000AA95E1F7322F330F330F231B220F290F81
:102CB000209354049091A7049923C9F19091A604FC
:102CC0008150893008F009C191110AC18AEA91E066
:102CD0000E94E80F87EC91E00E94E80F11E010934A
:102CE000A6044092B2045092B3046092B40470926D
:102CF000B5042FB7F8948091270390912803A091F1
:102D00002903B0912A032FBF8093B6049093B70490
:102D1000A093B804B093B9041093BA041092BB0402
:102D200061E08091A5040E9425041093AD04809178
:102D3000A804882319F1809152048A50823028F423
:102D40008091A604882309F4E5C081EE91E00E94F9
:102D5000E80F8AEF91E00E94E80F1092A60410920B
:102D6000BA041092BB0460E08091A5040E9425047F
:102D70001092AD041092AF041092AE048091A90499
:102D8000882319F1809152048051823028F4809177
:102D9000A604882309F4F0C081EE91E00E94E80FB8
:102DA0008AEF91E00E94E80F1092A6041092BA04F4
:102DB0001092BB0460E08091A5040E94250410924B
:102DC000AD041092AF041092AE048091A604882343
:102DD00009F452C08091AD04811104C085E192E0F4
:102DE0000E94E80F8091AD04882321F080E392E0F7
:102DF0000E94E80F6AE472E08DE793E00E948D0F75
:102E0000C090AE04D090AF040D2C000CEE08FF086B
:102E10002AE0B701A601F7FE0DC06DE28DE793E051
:102E20000E94B80344275527BA014C195D096E0961
:102E30007F092AE08DE793E00E949C0F62E671E033
:102E40008DE793E00E948D0F6BE672E08DE793E0D3
:102E50000E948D0F8091BA048111C0C040E050E003
:102E6000BA012AE08DE793E00E949C0F62E671E0D0
:102E70008DE793E00E948D0F6CE872E08DE793E0A0
:102E80000E948D0F4091A60450E070E060E02AE0BF
:102E90008DE793E00E949C0F62E671E08DE793E07E
:102EA0000E948D0F86EA92E00E94E80F86EA92E087
:102EB0000E94E80F68EE73E080E090E00E949604C4
:102EC00080E090E0892B09F45FCD0E948203882383
:102ED00009F45ACD0E94000057CD992309F427CF59
:102EE00081EE91E00E94E80F8AEF91E00E94E80FE6
:102EF0001092A6041092BA041092BB0460E0809174
:102F0000A5040E9425041092AD041092AF04109203
:102F1000AE040DCF8AEA91E00E94E80F87EC91E0C1
:102F20000E94E80F11E01093A6044092B204509260
:102F3000B3046092B4047092B5042FB7F8948091F2
:102F4000270390912803A0912903B0912A032FBF52
:102F50008093B6049093B704A093B804B093B904D7
:102F60001093BA041092BB0461E08091A5040E9402
:102F700025041093AD0402CF8AEA91E00E94E80F85
:102F800087EC91E00E94E80F11E01093A6044092B4
:102F9000B2045092B3046092B4047092B5042FB797
:102FA000F8948091270390912803A0912903B09170
:102FB0002A032FBF8093B6049093B704A093B8045C
:102FC000B093B9041093BA041092BB0461E08091ED
:102FD000A5040E9425041093AD04F7CE2FB7F894F2
:102FE0008091270390912803A0912903B0912A038F
:102FF0002FBF2091BB04211131CF4091B6045091D5
:10300000B7046091B8047091B9040091B2041091B2
:10301000B3042091B4043091B5046C017D01C41A4D
:10302000D50AE60AF70AC016D106E206F30608F04A
:1030300015CF400F511F621F731F481B590B6A0B9E
:103040007B0B0FCF8AE391E090936204809361043D
:103050008091800490918104009711F00C94F518F0
:103060000895A1E21A2EAA1BBB1BFD010DC0AA1FC9
:10307000BB1FEE1FFF1FA217B307E407F50720F0E1
:10308000A21BB30BE40BF50B661F771F881F991F5C
:103090001A9469F760957095809590959B01AC01A5
:1030A000BD01CF010895EE0FFF1F0590F491E02DB3
:1030B00009940F931F93CF93DF938230910510F4FF
:1030C00082E090E0E0912E05F0912F0530E020E0C5
:1030D000B0E0A0E0309799F42115310509F44AC019
:1030E000281B390B24303105D8F58A819B81611565
:1030F000710589F1FB0193838283FE0111C0408138
:1031000051810281138148175907E0F04817590788
:1031100099F4109761F012960C93129713961C93E2
:103120003296CF01DF91CF911F910F9108950093B7
:103130002E0510932F05F4CF2115310551F04217BC
:10314000530738F0A901DB019A01BD01DF01F80145
:10315000C1CFEF01F9CF90932F0580932E05CDCFEE
:10316000FE01E20FF31F81939193225031093983BD
:103170002883D7CF20912C0530912D05232B41F4A6
:10318000209102013091030130932D0520932C05ED
:1031900020910001309101012115310541F42DB735
:1031A0003EB74091040150910501241B350BE0917D
:1031B0002C05F0912D05E217F307A0F42E1B3F0B11
:1031C0002817390778F0AC014E5F5F4F2417350799
:1031D00048F04E0F5F1F50932D0540932C058193AF
:1031E00091939FCFF0E0E0E09CCFCF93DF930097E7
:1031F000E9F0FC01329713821282A0912E05B09162
:103200002F05ED0130E020E01097A1F420813181FD
:10321000820F931F20912C0530912D052817390717
:1032200009F061C0F0932D05E0932C05DF91CF915B
:103230000895EA01CE17DF07E8F54A815B819E0118
:1032400041155105B1F7E901FB83EA834991599191
:10325000C40FD51FEC17FD0761F4808191810296A0
:10326000840F951FE90199838883828193819B83D1
:103270008A83F0E0E0E012968D919C91139700977D
:10328000B9F52D913C911197CD010296820F931FB4
:1032900020912C0530912D052817390739F63097E4
:1032A00051F510922F0510922E05B0932D05A09385
:1032B0002C05BCCFD383C28340815181840F951FDD
:1032C000C817D90761F44E5F5F4F88819981480F15
:1032D000591F518340838A819B8193838283211567
:1032E000310509F0B0CFF0932F05E0932E059ECF66
:1032F000FD01DC01C0CF13821282D7CF81E090E0C4
:10330000F8940C94831912E0CBEED2E004C0FE01D5
:103310000E9453182196CC3ED107C9F7F894FFCFED
:1033200000003005800000000000B80318034503CA
:10333000050476035403680300000000D604D30498
:10334000880FD20400000000590F2C0F880FE70BE4
:10335000250F120F030F000000006A091803880FE1
:10336000D2048006E70B100CE80B040CF80B170CCA
:10337000E70B30071A0EF0053906300B130B9B0ACA
:103380003C0A0D0A0053657269616C20436F6E6ED2
:10339000656374696F6E2045737461626C697368EC
:1033A00065642E00436F756C646E27742066696EC9
:1033B0006420525443005254432053657475702066
:1033C000436F6D706C6574652E0054657374204492
:1033D000657669636520416C61726D20547269671E
:1033E000676572656421005475726E696E67202787
:1033F000546573742044657669636527204F4E2EAB
:1034000000546573742044657669636520416C617E
:10341000726D20726573657421005475726E696EE9
:103420006720275465737420446576696365272097
:103430004F46462E00546573742044657669636573
:103440002063757272656E746C79204F46462E004B
:103450005465737420446576696365206375727280
:10346000656E746C79204F4E2E0054657374204441
:1034700065766963652063757272656E7420637921
:103480006C6520636F756E743A2000546573742008
:1034900044657669636520696E74657276616C2037
:1034A00072656D61696E696E673A20007465737448
:1034B0002064657669636520616C61726D20737448
:1034C0006174653A20002D2D2D2D2D2D2D2D2D2DA6
:0834D0002D2D2D2D2D2D0000E6
:107E0000112484B714BE81FFF0D085E080938100F7
:107E100082E08093C00088E18093C10086E0809377
:107E2000C20080E18093C4008EE0C9D0259A86E02C
:107E300020E33CEF91E0309385002093840096BBD3
:107E4000B09BFECF1D9AA8958150A9F7CC24DD24C4
:107E500088248394B5E0AB2EA1E19A2EF3E0BF2EE7
:107E6000A2D0813461F49FD0082FAFD0023811F036
:107E7000013811F484E001C083E08DD089C08234E0
:107E800011F484E103C0853419F485E0A6D080C0E4
:107E9000853579F488D0E82EFF2485D0082F10E0AE
:107EA000102F00270E291F29000F111F8ED06801E7
:107EB0006FC0863521F484E090D080E0DECF843638
:107EC00009F040C070D06FD0082F6DD080E0C81688
:107ED00080E7D80618F4F601B7BEE895C0E0D1E017
:107EE00062D089930C17E1F7F0E0CF16F0E7DF06D8
:107EF00018F0F601B7BEE89568D007B600FCFDCFD4
:107F0000A601A0E0B1E02C9130E011968C91119780
:107F100090E0982F8827822B932B1296FA010C0160
:107F200087BEE89511244E5F5F4FF1E0A038BF0790
:107F300051F7F601A7BEE89507B600FCFDCF97BE46
:107F4000E89526C08437B1F42ED02DD0F82E2BD052
:107F50003CD0F601EF2C8F010F5F1F4F84911BD097
:107F6000EA94F801C1F70894C11CD11CFA94CF0C13
:107F7000D11C0EC0853739F428D08EE10CD085E9AC
:107F80000AD08FE07ACF813511F488E018D01DD067
:107F900080E101D065CF982F8091C00085FFFCCF94
:107FA0009093C60008958091C00087FFFCCF809118
:107FB000C00084FD01C0A8958091C6000895E0E648
:107FC000F0E098E1908380830895EDDF803219F02E
:107FD00088E0F5DFFFCF84E1DECF1F93182FE3DFCA
:107FE0001150E9F7F2DF1F91089580E0E8DFEE27F6
:047FF000FF270994CA
:027FFE00040479
:00000001FF
