:100000000C945D000C9485000C9485000C94850084
:100010000C9485000C9485000C9485000C9485004C
:100020000C9485000C9485000C9485000C9485003C
:100030000C9485000C9485000C9485000C9485002C
:100040000C94DE020C9485000C94AC020C94860295
:100050000C9485000C9485000C9485000C9485000C
:100060000C9485000C94850000000008000201003B
:100070000003040700000000000000000000000072
:10008000250028002B0000000000240027002A0083
:10009000040404040404040402020202020203032E
:1000A0000303030301020408102040800102040836
:1000B0001020010204081020280311241FBECFEFD6
:1000C000D8E0DEBFCDBF23E0AEE6B2E001C01D92B6
:1000D000A236B207E1F712E0A0E0B1E0E6E7FCE00B
:1000E00002C005900D92AE36B107D9F710E0CDE50C
:1000F000D0E004C02197FE010E943306CC35D10721
:10010000C9F70E94D0030C9439060C940000AF92FA
:10011000BF92CF92DF92EF92FF920F931F93CF93F4
:10012000DF936C017B018B01040F151FEB015E0156
:10013000AE18BF08C017D10759F06991D601ED91EB
:10014000FC910190F081E02DC6010995892B79F78A
:10015000C501DF91CF911F910F91FF90EF90DF903C
:10016000CF90BF90AF900895FC01538D448D252F03
:1001700030E0842F90E0821B930B541710F0CF9641
:10018000089501970895FC01918D828D981761F073
:10019000A28DAE0FBF2FB11D5D968C91928D9F5F8A
:1001A0009F73928F90E008958FEF9FEF0895FC0169
:1001B000918D828D981731F0828DE80FF11D858D1C
:1001C00090E008958FEF9FEF0895FC01918D228DAF
:1001D000892F90E0805C9F4F821B91098F73992734
:1001E000089588E792E00E94E50021E0892B09F458
:1001F00020E0822F089580E090E0892B29F00E9472
:10020000F10081110C9400000895FC01A48DA80F49
:10021000B92FB11DA35ABF4F2C91848D90E0019648
:100220008F739927848FA689B7892C93A089B18968
:100230008C91837080648C93938D848D981306C009
:100240000288F389E02D80818F7D80830895EF926D
:10025000FF920F931F93CF93DF93EC0181E0888F80
:100260009B8D8C8D98131AC0E889F989808185FF50
:1002700015C09FB7F894EE89FF896083E889F989F2
:1002800080818370806480839FBF81E090E0DF91F4
:10029000CF911F910F91FF90EF900895F62E0B8D47
:1002A00010E00F5F1F4F0F731127E02E8C8D8E1102
:1002B0000CC00FB607FCFACFE889F989808185FF69
:1002C000F5CFCE010E940501F1CFEB8DEC0FFD2F94
:1002D000F11DE35AFF4FF0829FB7F8940B8FEA8924
:1002E000FB8980818062CFCFCF93DF93EC01888D33
:1002F0008823B9F0AA89BB89E889F9898C9185FDA1
:1003000003C0808186FD0DC00FB607FCF7CF8C912E
:1003100085FFF2CF808185FFEDCFCE010E940501E0
:10032000E9CFDF91CF91089590E0FC01E859FF4FAC
:100330002491FC01EC55FF4F3491FC01E057FF4F35
:10034000E491EE23C9F0222339F0233001F1A8F41F
:10035000213019F1223029F1F0E0EE0FFF1FE458AF
:10036000FF4FA591B4918FB7F894EC91611126C01D
:1003700030953E233C938FBF08952730A9F0283055
:10038000C9F0243049F7809180008F7D03C08091AF
:1003900080008F7780938000DFCF84B58F7784BD16
:1003A000DBCF84B58F7DFBCF8091B0008F778093BA
:1003B000B000D2CF8091B0008F7DF9CF3E2BDACF45
:1003C0003FB7F89480916F0290917002A0917102F2
:1003D000B091720226B5A89B05C02F3F19F0019677
:1003E000A11DB11D3FBFBA2FA92F982F8827BC018F
:1003F000CD01620F711D811D911D42E0660F771FB7
:10040000881F991F4A95D1F7089590E080E00895DC
:10041000089586E493E00C94120286E493E00C9431
:100420001502089590E080E0089590E080E008953E
:10043000FB0101900020E9F73197AF01461B570BF4
:10044000DC01ED91FC910280F381E02D09948F9203
:100450009F92AF92BF92EF92FF920F931F93CF9311
:10046000DF93CDB7DEB7A1970FB6F894DEBF0FBE0E
:10047000CDBF7C01FA01CB0119A2223008F42AE099
:100480008E010F5D1F4F822E912CB12CA12CBF012C
:10049000A50194010E941106F901CA016A300CF508
:1004A000605DD8016E938D01232B242B252B79F7CA
:1004B00090E080E0109721F0BD01C7010E94180272
:1004C000A1960FB6F894DEBF0FBECDBFDF91CF91DE
:1004D0001F910F91FF90EF90BF90AF909F908F90E2
:1004E0000895695CDECFCF93DF93BC0188E792E08B
:1004F0000E941802EC016EE171E088E792E00E9430
:1005000018028C0F9D1FDF91CF9108951F920F92BB
:100510000FB60F9211242F933F934F935F936F93D6
:100520007F938F939F93AF93BF93EF93FF9388E74E
:1005300092E00E940501FF91EF91BF91AF919F91D1
:100540008F917F916F915F914F913F912F910F907C
:100550000FBE0F901F9018951F920F920FB60F921B
:1005600011242F938F939F93EF93FF93E091880231
:10057000F09189028081E0918E02F0918F0282FDDC
:100580001BC09081809191028F5F8F7320919202A6
:10059000821741F0E0919102F0E0E858FD4F958F0D
:1005A00080939102FF91EF919F918F912F910F90E6
:1005B0000FBE0F901F9018958081F4CF1F920F925D
:1005C0000FB60F9211242F933F938F939F93AF9366
:1005D000BF938091730290917402A0917502B091C3
:1005E000760230916E0223E0230F2D3758F50196E5
:1005F000A11DB11D20936E0280937302909374022B
:10060000A0937502B093760280916F029091700270
:10061000A0917102B09172020196A11DB11D80934B
:100620006F0290937002A0937102B0937202BF9117
:10063000AF919F918F913F912F910F900FBE0F908F
:100640001F90189526E8230F0296A11DB11DD2CF49
:1006500010927B0210927A0288EE93E0A0E0B0E064
:1006600080937C0290937D02A0937E02B0937F02E0
:1006700084E091E0909379028093780285EC90E099
:10068000909385028093840284EC90E0909387029B
:100690008093860280EC90E0909389028093880298
:1006A00081EC90E090938B0280938A0282EC90E040
:1006B00090938D0280938C0286EC90E090938F0251
:1006C00080938E02109291021092920210929302E5
:1006D0001092940288E893E1A0E0B0E080933803A0
:1006E00090933903A0933A03B0933B0310924403D1
:1006F0001092400310924103109242031092430360
:1007000010924503109217031092160310921503CE
:10071000109249031092480386E191E090934703B9
:10072000809346031092600310925C0310925D0365
:1007300010925E0310925F031092610310925603B1
:1007400010925203109253031092540310925503C7
:10075000109257038DE080934A03E1EBF0E024917F
:10076000EDE9F0E08491882399F090E0880F991FDB
:10077000FC01EA57FF4FA591B491FC01E458FF4FEB
:10078000859194918FB7F894EC91E22BEC938FBF05
:1007900060E080914A030E94940110924B030895F7
:1007A000789484B5826084BD84B5816084BD85B54C
:1007B000826085BD85B5816085BD80916E00816058
:1007C00080936E00109281008091810082608093FE
:1007D0008100809181008160809381008091800000
:1007E0008160809380008091B10084608093B1002B
:1007F0008091B00081608093B00080917A00846025
:1008000080937A0080917A00826080937A00809150
:100810007A00816080937A0080917A00806880936A
:100820007A001092C100E0918802F091890282E082
:100830008083E0918402F09185021082E09186022B
:10084000F09187028FEC808310929002E0918C02ED
:10085000F0918D0286E08083E0918A02F0918B0214
:10086000808180618083E0918A02F0918B02808197
:1008700088608083E0918A02F0918B028081806899
:100880008083E0918A02F0918B0280818F7D80834A
:1008900081E291E00E94730200E010E0C1E098E87C
:1008A000492E93E1592E612C712C88E792E00E9429
:1008B000E500892B09F497C088E792E00E94C30005
:1008C000D82F88E792E00E94E500892B29F088E77D
:1008D00092E00E94C300F5CFD23539F0D23709F04B
:1008E00057C080917702811183C089E491E00E9412
:1008F000730286E691E00E947302C093770280E162
:1009000097E2A0E0B0E08093580390935903A0933E
:100910005A03B0935B032FB7F894809173029091C0
:100920007402A0917502B09176022FBF80935C0390
:1009300090935D03A0935E03B0935F03C093600345
:100940001092610340924E0350924F036092500305
:10095000709251032FB7F8948091730290917402B2
:10096000A0917502B09176022FBF809352039093AD
:100970005303A0935403B0935503C09356031092AE
:10098000570361E080914A030E949401C0934B0396
:10099000D33539F080917702D33729F5882309F4CC
:1009A00091C080E891E00E94730289E991E00E9481
:1009B00073021092770210926003109261031092FA
:1009C00056031092570360E080914A030E949401FD
:1009D00010924B0380914C0390914D03019690939C
:1009E0004D0380934C0380917702882309F46AC0F9
:1009F00080914B03811104C084EB91E00E9473024B
:100A000080914B03882321F08FEC91E00E947302C8
:100A100069EE71E088E792E00E941802C0904C03F2
:100A2000D0904D030D2C000CEE08FF082AE0B70112
:100A3000A601F7FE0DC06DE288E792E00E94270153
:100A400044275527BA014C195D096E097F092AE030
:100A500088E792E00E9427026EE171E088E792E069
:100A60000E9418026AE072E088E792E00E94180291
:100A70008091600381116DC040E050E0BA012AE02E
:100A800088E792E00E9427026EE171E088E792E039
:100A90000E9418026EE272E088E792E00E9418025B
:100AA00080915603811189C040E050E0BA012AE0EC
:100AB00088E792E00E9427026EE171E088E792E009
:100AC0000E94180263E572E088E792E00E94180233
:100AD0004091770250E070E060E02AE088E792E021
:100AE0000E9427026EE171E088E792E00E941802FE
:100AF0000E94E0014B015C0188EEC82E83E0D82EF5
:100B0000E12CF12C0E94E001681979098A099B09FE
:100B1000683E734081059105A8F391E0C91AD10898
:100B2000E108F108A8EE8A0EA3E09A1EA11CB11CF0
:100B3000C114D104E104F10429F70115110509F4E8
:100B4000B4CE0E94F100882309F4AFCE0E940000C9
:100B5000ACCE2FB7F8948091730290917402A0915B
:100B60007502B09176022FBF20916103211184CFCD
:100B700040915C0350915D0360915E0370915F034F
:100B8000C0905803D0905903E0905A03F0905B0353
:100B90004C015D01841A950AA60AB70A8C149D04BB
:100BA000AE04BF0408F068CF4C0D5D1D6E1D7F1DA7
:100BB000481B590B6A0B7B0B62CF2FB7F8948091BF
:100BC000730290917402A0917502B09176022FBFCA
:100BD00020915703211168CF409152035091530344
:100BE0006091540370915503C0904E03D0904F0311
:100BF000E0905003F09051034C015D01841A950A76
:100C0000A60AB70A8C149D04AE04BF0408F04CCFAA
:100C10004C0D5D1D6E1D7F1D481B590B6A0B7B0B18
:100C200046CFA1E21A2EAA1BBB1BFD010DC0AA1FB5
:100C3000BB1FEE1FFF1FA217B307E407F50720F045
:100C4000A21BB30BE40BF50B661F771F881F991FC0
:100C50001A9469F760957095809590959B01AC0109
:100C6000BD01CF010895EE0FFF1F0590F491E02D17
:060C70000994F894FFCF87
:100C76000000000027018700B4007401E500C300EE
:100C8600D7000000000015021202050211020D0A2B
:100C960000456E746572205220746F207374617201
:100CA6007420726570656174696E67206F72205377
:100CB60020746F2073746F700054657374204465DC
:100CC6007669636520416C61726D2074726967672D
:100CD6006572656421005475726E696E67202754CB
:100CE6006573742044657669636527204F4E2E0030
:100CF600546573742044657669636520416C61723E
:100D06006D20726573657421005475726E696E6725
:100D16002027546573742044657669636527204FE0
:100D260046462E00546573742044657669636520D3
:100D360063757272656E746C79204F46462E005448
:100D460065737420446576696365206375727265A0
:100D56006E746C79204F4E2E005465737420446572
:100D6600766963652063757272656E742063796C4B
:100D76006520636F756E743A200054657374204461
:100D86006576696365204F4E20696E74657276617B
:100D96006C2072656D61696E696E673A20005465F4
:100DA600737420446576696365204F464620696EF4
:100DB60074657276616C2072656D61696E696E67C5
:100DC6003A200074657374206465766963652061F2
:0E0DD6006C61726D2073746174653A200000C8
:00000001FF
