:100000000C9454050C947C050C947C050C947C0594
:100010000C947C050C947C050C947C050C947C055C
:100020000C947C050C947C050C947C050C947C054C
:100030000C947C050C947C050C947C050C947C053C
:100040000C94DA160C947C050C94A8160C94821669
:100050000C947C050C947C050C947C050C947C051C
:100060000C9424170C947C052200FF210000000052
:1000700000003E5B4F5B3E3E6B4F6B3E1C3E7C3E4A
:100080001C183C7E3C181C577D571C1C5E7F5E1C58
:1000900000183C1800FFE7C3E7FF0018241800FF12
:1000A000E7DBE7FF30483A060E2629792926407F0C
:1000B000050507407F05253F5A3CE73C5A7F3E1C1B
:1000C0001C08081C1C3E7F14227F22145F5F005F07
:1000D0005F06097F017F006689956A6060606060E5
:1000E00094A2FFA29408047E040810207E20100829
:1000F000082A1C08081C2A08081E101010100C1EC4
:100100000C1E0C30383E3830060E3E0E0600000045
:10011000000000005F00000007000700147F147F4C
:1001200014242A7F2A122313086462364956205069
:100130000008070300001C2241000041221C002A85
:100140001C7F1C2A08083E08080080703000080840
:10015000080808000060600020100804023E5149B1
:10016000453E00427F400072494949462141494D80
:10017000331814127F1027454545393C4A49493107
:1001800041211109073649494936464949291E0086
:100190000014000000403400000008142241141430
:1001A000141414004122140802015909063E415D4D
:1001B000594E7C1211127C7F494949363E414141DA
:1001C000227F4141413E7F494949417F0909090157
:1001D0003E414151737F0808087F00417F41002064
:1001E00040413F017F081422417F404040407F0250
:1001F0001C027F7F0408107F3E4141413E7F090978
:1002000009063E4151215E7F09192946264949497F
:100210003203017F01033F4040403F1F2040201F29
:100220003F4038403F6314081463030478040361BB
:1002300059494D43007F41414102040810200041CB
:1002400041417F0402010204404040404000030756
:10025000080020545478407F2844443838444444AB
:1002600028384444287F385454541800087E090222
:1002700018A4A49C787F0804047800447D400020E2
:1002800040403D007F1028440000417F40007C0436
:100290007804787C080404783844444438FC1824F2
:1002A000241818242418FC7C0804040848545454C6
:1002B0002404043F44243C4040207C1C2040201C5B
:1002C0003C4030403C44281028444C9090907C4462
:1002D00064544C440008364100000077000000419F
:1002E00036080002010204023C2623263C1EA1A17E
:1002F00061123A4040207A38545455592155557965
:100300004122545478422155547840205455794024
:100310000C1E527212395555555939545454593985
:10032000555454580000457C410002457D4200016F
:10033000457C407D1211127DF0282528F07C545513
:1003400045002054547C547C0A097F49324949496C
:10035000323A4444443A324A4848303A4141217A98
:100360003A42402078009DA0A07D3D4242423D3D62
:100370004040403D3C24FF2424487E4943662B2FC7
:10038000FC2F2BFF0929F620C0887E090320545436
:1003900079410000447D413048484A32384040228B
:1003A0007A007A0A0A727D0D19317D2629292F28B3
:1003B000262929292630484D4020380808080808F1
:1003C000080808382F10C8ACBA2F102834FA0000DB
:1003D0007B000008142A142222142A140855005500
:1003E0000055AA55AA55AAFF55FF55FF000000FF6A
:1003F00000101010FF00141414FF001010FF00FF75
:100400001010F010F0141414FC001414F700FF0086
:1004100000FF00FF1414F404FC141417101F101034
:100420001F101F1414141F00101010F00000000003
:100430001F101010101F10101010F010000000FFFF
:10044000101010101010101010FF10000000FF14FA
:100450000000FF00FF00001F10170000FC04F41450
:10046000141710171414F404F40000FF00F7141408
:100470001414141414F700F7141414171410101F84
:10048000101F141414F4141010F010F000001F10BA
:100490001F0000001F14000000FC140000F010F00A
:1004A0001010FF10FF141414FF141010101F000080
:1004B0000000F010FFFFFFFFFFF0F0F0F0F0FFFF93
:1004C000FF0000000000FFFF0F0F0F0F0F38444424
:1004D0003844FC4A4A4A347E02020606027E027E04
:1004E0000263554941633844443C04407E201E2049
:1004F00006027E020299A5E7A5991C2A492A1C4CEE
:100500007201724C304A4D4D303048784830BC62F0
:100510005A463D3E494949007E0101017E2A2A2A68
:100520002A2A44445F444440514A444040444A518A
:10053000400000FF0103E080FF000008086B6B082B
:100540003612362436060F090F0600001818000070
:10055000001010003040FF0101001F01011E0019B2
:100560001D1712003C3C3C3C000000000000010351
:10057000070F1F3F7F0080C0E0F0F8FCFE00000086
:100580000800020100000304070000000000000052
:100590000000000000240027002A00DB40A4A62E53
:1005A000AF2000A1C8D300408DAED580A8010204C1
:1005B00008102040800102040810200102040810E5
:1005C0002000000000250028002B0004040404047F
:1005D00004040402020202020203030303030300F1
:1005E00000600000000000000000000000000000AB
:1005F000E00000000000000000000000000001E03A
:100600000000000000000000000000000001F000F9
:1006100000000000000000000000000003F00000E7
:10062000000000000000000000000007F0000000D3
:100630000000000000000000000007F800000000BB
:100640000000000000000000000FF800000003C0E0
:10065000007E000001E0007F0FF800000003C000F2
:10066000FE000001E000FFEFF800000003C000FE04
:10067000000001E000FFFFF800000003C000F000F0
:1006800000000F007FFE7FC0000003C000F00000EC
:10069000000F003FFE7FF83FF1FBCFFCFEF3BC3DB7
:1006A000EFE01FFE7FFF7FFBFFDFFEFEFFBC3DEFA5
:1006B000E01FC6FFFF7FFBFFDFFEFEFFBC3DEFE05C
:1006C0000FE3C7FE787BC3DE1EF0FFBC3DEF0007E3
:1006D000FF87FC787BC3DE1EF0F83C3DEF0001FF96
:1006E000FFF0007BC3C01EF0F03C3DEF0001F37F44
:1006F000E03FFBC3CFFEF0F03C3DEF0003E33F8063
:100700007FFBC3DFFEF0F03C3DEF0007E73C0078E5
:100710007BC3DE1EF0F03C3DEF0007FFBE00787BA0
:10072000C3DE1EF0F03C3DEF0007FFFE00787BC308
:10073000DE1EF0F03C3DEF000FFFFE007FFBFFDF11
:10074000FEF0F03FFDEFE00FFFFF007FFBFFDFFE5D
:10075000F0F03FFDEFE00FF9FF003E79F9CF9EF09A
:10076000F01F3DE7E01FF1FF000000000000000067
:10077000000000001F80FF007FFFFFFFFFFFFFFF63
:10078000FFFFE01C007F007FFFFFFFFEB46D888D40
:1007900018E000001F007FFFFFFFFE95AD7DB577DD
:1007A000E000000F007FFFFFFFFEA5AD9D8D19E06B
:1007B000000006007FFFFFFFFEB5ADEDB57EE00057
:1007C00000000000018000000000000000000003A5
:1007D0008000000000000000000007C000000000D2
:1007E000000000000007C000000000000000000042
:1007F0000FC00000000000000000001FE00000002B
:100800000000000000001FE00000000000000000E9
:10081000003FE00000000000000000003FF000008A
:10082000000000000000007FF00000000000000059
:100830001FF87FF0000000000000003FFE7FF00086
:100840000000000000003FFF7FF0000000000000FB
:10085000001FFFFBE0000000000000000FFFF9FF99
:10086000C00000000000000FFFF9FFF800000000CA
:10087000000007FFF1FFFF00000000000003FC7311
:10088000FFFF80000000000001FE3FFFFF8000002E
:1008900000000000FF1E0FFF000000000000007FAE
:1008A000FE1FFC000000000000003FFFFFF80000FA
:1008B00000000000000FDFFFE0000000000000006B
:1008C0001F19FFC0000000000000003F3CFF0000B7
:1008D0000000000000007E7CF80000000000000026
:1008E000007FFE7C0000000000000000FFFFFC0015
:1008F00000000000000000FFFFFE000000000000FC
:100900000000FFFFFE0000000000000001FFEFFEFE
:100910000000000000000001FFCFFE00000000000A
:10092000000003FF07FE0000000000000003FC07BA
:10093000FE0000000000000003F003FE00000000C5
:10094000000000018000FE00000000000000000028
:10095000007E000000000000000000003E000000DB
:10096000000000000000000C0000000000000780F4
:1009700000FC000003C0000000078001FC00000331
:10098000C0000000078001FC000003C00000000759
:100990008001E00000001E000000078001E0000070
:1009A000001E007FE3F79FF9FDE7787BDFC0FFF7CC
:1009B000FFBFFDFDFF787BDFC0FFF7FFBFFDFDFF41
:1009C000787BDFC0F0F787BC3DE1FF787BDE00F08D
:1009D000F787BC3DE1F0787BDE0000F787803DE1E2
:1009E000E0787BDE007FF7879FFDE1E0787BDE002B
:1009F000FFF787BFFDE1E0787BDE00F0F787BC3DC5
:100A0000E1E0787BDE00F0F787BC3DE1E0787BDE5B
:100A100000F0F787BC3DE1E0787BDE00FFF7FFBF29
:100A2000FDE1E07FFBDFC0FFF7FFBFFDE1E07FFB03
:100A3000DFC07CF3F39F3DE1E03E7BCFC0000000D0
:100A40000000000000000000FFFFFFFFFFFFFFFFAE
:100A5000FFFFC0FFFFFFFFFD68DB111A31C0FFFF82
:100A6000FFFFFD2B5AFB6AEFC0FFFFFFFFFD4B5B53
:100A70003B1A33C0FFFFFFFFFD6B5BDB6AFDC0531A
:100A800053443133303620616C6C6F636174696F2D
:100A90006E206661696C6564001F1C1F1E1F1E1F8F
:100AA0001F1E1F1E5A18F12011241FBECFEFD8E0C1
:100AB000DEBFCDBF26E0A8EAB3E001C01D92A6329A
:100AC000B207E1F713E0A0E0B1E0ECECF4E402C01F
:100AD00005900D92A83AB107D9F715E0C3E5D5E026
:100AE00004C02197FE010E942221C235D107C9F717
:100AF0000E94F0190C9459220C940000FC0180E132
:100B000097E2A0E0B0E080839183A283B3832FB704
:100B1000F89480916A0490916B04A0916C04B09158
:100B20006D042FBF84839583A683B78381E080877C
:100B300011860895089508950895AF92BF92CF92B7
:100B4000DF92EF92FF920F931F93CF93DF936C018D
:100B50007B018B01040F151FEB015E01AE18BF086E
:100B6000C017D10759F06991D601ED91FC91019020
:100B7000F081E02DC6010995892B79F7C501DF9138
:100B8000CF911F910F91FF90EF90DF90CF90BF908A
:100B9000AF900895FC01538D448D252F30E0842FB4
:100BA00090E0821B930B541710F0CF960895019795
:100BB0000895FC01918D828D981761F0A28DAE0F82
:100BC000BF2FB11D5D968C91928D9F5F9F73928F09
:100BD00090E008958FEF9FEF0895FC01918D828D35
:100BE000981731F0828DE80FF11D858D90E0089502
:100BF0008FEF9FEF0895FC01918D228D892F90E05A
:100C0000805C9F4F821B91098F73992708958EE610
:100C100094E00E94FB0521E0892B09F420E0822F5B
:100C2000089580E090E0892B29F00E940706811149
:100C30000C9400000895FC01A48DA80FB92FB11DDC
:100C4000A35ABF4F2C91848D90E001968F73992702
:100C5000848FA689B7892C93A089B1898C918370E0
:100C600080648C93938D848D981306C00288F389D9
:100C7000E02D80818F7D80830895EF92FF920F9306
:100C80001F93CF93DF93EC0181E0888F9B8D8C8D38
:100C900098131AC0E889F989808185FF15C09FB72C
:100CA000F894EE89FF896083E889F98980818370EF
:100CB000806480839FBF81E090E0DF91CF911F919E
:100CC0000F91FF90EF900895F62E0B8D10E00F5FBF
:100CD0001F4F0F731127E02E8C8D8E110CC00FB695
:100CE00007FCFACFE889F989808185FFF5CFCE012D
:100CF0000E941B06F1CFEB8DEC0FFD2FF11DE35A87
:100D0000FF4FF0829FB7F8940B8FEA89FB898081AF
:100D10008062CFCFCF93DF93EC01888D8823B9F029
:100D2000AA89BB89E889F9898C9185FD03C08081F6
:100D300086FD0DC00FB607FCF7CF8C9185FFF2CF73
:100D4000808185FFEDCFCE010E941B06E9CFDF91A8
:100D5000CF91089590E0FC01E358FA4F2491FC01F3
:100D6000E355FA4F3491FC01E553FA4FE491EE2339
:100D7000C9F0222339F0233001F1A8F4213019F110
:100D8000223029F1F0E0EE0FFF1FEF53FA4FA5914B
:100D9000B4918FB7F894EC91611126C030953E2341
:100DA0003C938FBF08952730A9F02830C9F0243034
:100DB00049F7809180008F7D03C0809180008F77FC
:100DC00080938000DFCF84B58F7784BDDBCF84B57F
:100DD0008F7DFBCF8091B0008F778093B000D2CF12
:100DE0008091B0008F7DF9CF3E2BDACFCF93DF9388
:100DF00090E0FC01E355FA4F249185539A4FFC0192
:100E000084918823D1F090E0880F991FFC01EF5660
:100E1000FA4FA591B491FC01EF53FA4FC591D491CB
:100E2000623071F49FB7F8943C91822F80958323B0
:100E30008C93E8812E2B28839FBFDF91CF9108955B
:100E40008FB7F894EC912E2B2C938FBFF6CF3FB732
:100E5000F8948091ED039091EE03A091EF03B0918F
:100E6000F00326B5A89B05C02F3F19F00196A11DE0
:100E7000B11D3FBFBA2FA92F982F8827BC01CD01E4
:100E8000620F711D811D911D42E0660F771F881F43
:100E9000991F4A95D1F708958F929F92AF92BF9272
:100EA000CF92DF92EF92FF926B017C010E942707A5
:100EB0004B015C01C114D104E104F104B9F00E94BA
:100EC0002707681979098A099B09683E73408105DB
:100ED000910580F321E0C21AD108E108F10888EEFB
:100EE000880E83E0981EA11CB11CE4CFFF90EF9008
:100EF000DF90CF90BF90AF909F908F90089508950E
:100F00008CE395E00C9489078CE395E00C948C07B6
:100F1000089590E080E0089590E080E00895EF92D9
:100F2000FF920F931F93CF93DF93EC01EC80FD8032
:100F30006E157F050CF070C057FF04C0240F351FDD
:100F400050E040E08E819F81FA01E20FF31F8E177F
:100F50009F071CF49C01241B350B121613060CF082
:100F60005BC0922F842F8695869586958E9DD001A5
:100F70008F9DB00D11246A0F7B1FAF8DB8A1A60FF6
:100F8000B71F477049F188E0841B482F682F70E035
:100F9000FB01EB58FA4FE491281708F063C0621B7D
:100FA00071092FEF30E002C0359527956A95E2F779
:100FB000E2230130110539F0B0F10230110561F57D
:100FC0008C91E82702C08C91E82BEC93941720F1C8
:100FD0002C813D81A20FB31FE92FE41BE83078F08C
:100FE0000230110521F58E2F9C9190959C932C81B8
:100FF0003D81A20FB31F88508830B0F7E770EE2311
:1010000059F0F0E0E359FA4FE49101301105F9F09D
:1010100010F10230110519F1DF91CF911F910F915D
:10102000FF90EF900895E0958C91E823CECF81E07A
:101030000115110509F480E081959E2F8C932C8178
:101040003D81A20FB31F98509830C0F7D7CF8C9135
:10105000E82BEC93E1CFE0958C91E823FACF8C91CB
:10106000E827F7CF0130110509F4ADCFE0F20230E7
:10107000110509F4A5CFAE0DBF1DAECF0F931F9381
:10108000CF93DF9377FF04C0260F371F70E060E037
:10109000DC011496CD91DC91FB01E20FF31FCE171A
:1010A000DF071CF49E01261B370B121613064CF5A6
:1010B000FA0157FD3796A3E0F595E795AA95E1F774
:1010C000EC9FD001ED9FB00DFC9FB00D11246A0F75
:1010D0007B1FDC015F96ED91FC91E60FF71F4770D7
:1010E000552781E090E001C0880F4A95EAF7482F24
:1010F0000130110559F0A8F02E0F3F1F02301105E5
:10110000E1F0DF91CF911F910F9108952E0F3F1FB6
:10111000E217F307B1F38191DF011197842B8C93D0
:10112000F7CF80952E0F3F1FE217F30751F39191F0
:10113000DF01119798239C93F7CFE217F30709F388
:101140008191DF01119784278C93F7CF0F931F9321
:10115000FA01DC0156964C9156974230E9F0433043
:10116000A1F1413061F514964D915C91DA01AE1B0D
:10117000BF0BFD01E21BF30B77FD0BC0DC011696E4
:101180004D915C916417750724F4AB01BF010E9477
:101190003E081F910F91089514964D915C91DA01CC
:1011A000A61BB70BBD0161507109DC0116964D916C
:1011B0005C91DA01AE1BBF0BFD01E21BF30B77FD67
:1011C000E8CFAF010E948F07E4CF16964D915C9156
:1011D000DA01A61BB70BBD0161507109CDCF0F938A
:1011E0001F93FA01DC0156964C9156974230A9F0B4
:1011F000433091F1413019F514964D915C91DA012B
:10120000AE1BBF0BFD013197F7FD04C0AB01BF0161
:101210000E948F071F910F91089514964D915C9134
:10122000DA01A61BB70BBD01DC0116964D915C914E
:10123000DA01AE1BBF0BFD013197621B730BF7FD8B
:10124000E9CFDC0116964D915C91E417F50714F790
:10125000AF010E943E08DECF16964D915C91DA01F7
:10126000A61BB70BBD01621B730BCECFFC0177FD34
:1012700064C080859185681779070CF05EC057FDC2
:101280005CC082859385481759070CF056C0868943
:101290008230B1F0833029F1813041F4848195812D
:1012A000841B950BAB01BC016150710921303105E4
:1012B00009F108F443C02230310509F463C00895F0
:1012C00084819581DC01A61BB70BBD0161507109BA
:1012D00086819781DC01A41BB50BAD0141505109FA
:1012E000E5CF86819781861B970BBA01AC014150EF
:1012F0005109DCCFCA0157FD0796A3E09595879564
:10130000AA95E1F7A481B5818A9F90018B9F300D4A
:101310009A9F300D1124620F731F078CF0A1E02DEE
:10132000E60FF71F4770552721E030E001C0220F7C
:101330004A95EAF78081822B80830895CA0157FD80
:10134000079633E0959587953A95E1F7A481B581A5
:101350008A9F90018B9F300D9A9F300D1124620F50
:10136000731F078CF0A1E02DE60FF71F477055277C
:1013700081E090E001C0880F4A95EAF7809590815E
:101380008923DACFCA0157FD079623E09595879503
:101390002A95E1F7A481B5818A9F90018B9F300D3A
:1013A0009A9F300D1124620F731F078CF0A1E02D5E
:1013B000E60FF71F4770552721E030E001C0220FEC
:1013C0004A95EAF780818227B7CF08958EBD000045
:1013D0000DB407FEFDCF8EB508958CBD9DBD08955B
:1013E0000895FC016370668B848195812681378125
:1013F000613039F0633029F0918780873387228705
:101400000895318720879387828708952F923F928E
:101410004F925F926F927F928F929F92AF92BF9204
:10142000CF92DF92EF92FF920F931F93CF93DF93B0
:10143000CDB7DEB76A970FB6F894DEBF0FBECDBF4B
:101440009A8F898F7A8369834A01D22E18870F83F6
:101450003701BC2CDC0159962D913C915A972115EE
:10146000310509F015C118968D919C91199768174F
:1014700079070CF0D7C11A968D919C91481759079E
:101480000CF0D0C14C2C512CB6E0CB9E600D711DE0
:1014900011247C876B87161617060CF0C3C1EA2D42
:1014A000F0E0FA87E98793E0EE0FFF1F9A95E1F7E6
:1014B000F88BEF87CF01840F951F181619060CF0D3
:1014C000B1C1A98DBA8D58968C91811104C0BFEA23
:1014D000BD1508F4D394A98DBA8DED91FC911197A7
:1014E0000284F385E02DCD010995B5E0DB9EC001B6
:1014F0001124E981FA81FC83EB83312C212C9C019E
:1015000023593F4F388F2F8B4A2D50E05E8B4D8BE8
:10151000EF89F88DE20DF31D44919E828D82D12CCE
:10152000C12C69817A81620D731D7A8B698B842F3E
:1015300090E09C8B8B8BE98DFA8DA081B18140FF6F
:1015400082C0F1E0BF126FC0AF126DC01C96ED916A
:10155000FC912F813885A4014C0D5D1D69897A8924
:10156000898D9A8D0995EB89FC89F595E7954E2F24
:101570005FEFC51AD50A6D817E818D899E89680FBE
:10158000791F7E836D8398E0C916D10481F6AFEF91
:101590002A1A3A0AEB81FC81E40DF51DFC83EB83EA
:1015A000F5E02F16310409F0B3CF2F8138852615C9
:1015B0003705B9F0A98DBA8DED91FC91B1E0BB1260
:1015C00057C0AB1255C069817A816B5F7F4F00882D
:1015D000F189E02D830128E030E0A401898D9A8D06
:1015E0000995A98DBA8DED91FC9111970688F7891F
:1015F000E02DCD016A960FB6F894DEBF0FBECDBFC9
:10160000DF91CF911F910F91FF90EF90DF90CF90DE
:10161000BF90AF909F908F907F906F905F904F9012
:101620003F902F9009941E96ED91FC91EF80F884E5
:1016300009851A8592014D815E816B817C81898D3E
:101640009A8D099590CF2F8138852615370509F495
:101650008ACF31E0B31207C0A31205C01C96ED91EA
:10166000FC91930178CF1E96ED91FC917301E0CF30
:101670006B857C85641975090684F785E02D7301F7
:101680000F8518899201A401898D9A8D0995A9CF9A
:10169000F90134969491329745915491D91AB7E053
:1016A000DB9E400D511D1124F901259134913C8B95
:1016B0002B8BFA0125903490FA0132967490319672
:1016C0003491398B329664903196449041E04C15B8
:1016D00018F04A1508F07FC0662D062C000C770B19
:1016E0007C836B83842D042C000C990B9E838D834B
:1016F000A98DBA8DED91FC9111970284F385E02DAF
:10170000CD010995512CD12CC12CEA2DF0E0FA879E
:10171000E9872B2D30E03C872B87A401440D511D18
:1017200047FC5A95588F4F8B69817A81660D711DE0
:1017300067FC7A957E876D877989C71608F051CF47
:101740002C2D30E04D815E81420F531FA985BA8553
:101750004A9FC0014B9F900D5A9F900D1124FC0190
:10176000E80DF91DF88BEF87852D612C4F89588D79
:10177000420F531F5E8B4D8B671408F050C04424FA
:101780004394480E877041F4C1010196EB89FC89AE
:10179000E20DF31DD4901C01D7FE19C0A98DBA8D9E
:1017A000ED91FC91662D70E0B1E0BB1219C0AB1257
:1017B00017C02D853E85620F731F0484F585E02DCB
:1017C0002F8138854D895E89898D9A8D0995DD0C2B
:1017D0006394842DD1CF1E821D821C821B8288CFF0
:1017E0004B815C81640F751FAB85BC856A9FC0010E
:1017F0006B9F900D7A9F900D112469817A81680FFB
:10180000791F0684F785E02DEF80F88409851A8515
:101810009D014F855889898D9A8D0995D8CF570C90
:10182000C3948ACF6A960FB6F894DEBF0FBECDBFC1
:10183000DF91CF911F910F91FF90EF90DF90CF90AC
:10184000BF90AF909F908F907F906F905F904F90E0
:101850003F902F9008958F929F92AF92CF92EF92E8
:10186000FF920F931F93CF93DF93EC01262F898D67
:101870009A8D009709F051C06A30D1F41D861C86FC
:101880008D8948E0849F900111248E859F85820F69
:10189000931F9F878E8781E090E0DF91CF911F910A
:1018A0000F91FF90EF90CF90AF909F908F90089501
:1018B0006D3089F3CC88AD888F898823C1F08C8501
:1018C0009D8536E0C39E800D911D11244885598564
:1018D0004817590764F44E855F851D861C8638E0DD
:1018E000A39EC0011124840F951F9F878E87EA88CD
:1018F000FB88088919894E855F856C857D85CE01B9
:101900000E94060A2C898C859D8546E0249F800DC7
:10191000911D11249D878C87BECF6A3069F41D8686
:101920001C86FC013896E4912D898E859F85E29F67
:10193000800D911D1124ADCF6D3009F4ACCFFC01A9
:1019400034963491631708F4A6CF3296E491E617E3
:1019500008F4A1CFFC01329685909490462F431B4A
:10196000342F47E0349F800C911C1124F4013296EF
:1019700034913196E4913323A9F1EE2399F1CC8887
:10198000F4013596E491AD884F89442301F10E2E80
:10199000000CFF0BE30FF11DCE9EA001CF9E500D5A
:1019A00011246C857D85460F571F688579856417DE
:1019B00075076CF44E855F851D861C86FC01389684
:1019C000E491AE9E400D511D11245F874E87EA8839
:1019D000FB88088919894E855F856C857D85CE01D8
:1019E0000E94060AF4013496E4912C898C859D8529
:1019F000E29F800D911D11248DCF6F927F928F9267
:101A00009F92AF92BF92CF92DF92EF92FF920F938D
:101A10001F93CF93DF93EC016B015A013901480109
:101A2000E881F9810284F385E02D0995E881F98147
:101A30000288F389E02D87019301A501B601CE014B
:101A40000995A501480D591D41505109E881F981B9
:101A50000288F389E02D9301B601CE010995E88152
:101A6000F9810088F189E02D9401A501B601CE012C
:101A70000995C60CD71CB60161507109E881F9813E
:101A80000088F189E02D9401A501CE010995E88136
:101A9000F9810688F789E02DCE01DF91CF911F9162
:101AA0000F91FF90EF90DF90CF90BF90AF909F90FD
:101AB0008F907F906F9009946F927F928F929F92F8
:101AC000AF92BF92CF92DF92EF92FF920F931F934C
:101AD000CF93DF935C01EB016A0149013801870173
:101AE000DC01ED91FC916217730719F56416750618
:101AF0002CF0962D872D3A01C92ED82E9601261945
:101B000037092F5F3F4F048CF58DE02DA301BE01F7
:101B1000C5010995DF91CF911F910F91FF90EF9033
:101B2000DF90CF90BF90AF909F908F907F906F90FD
:101B300008954615570591F42617370724F0892D87
:101B40004B01C22FD82F9E01281939092F5F3F4F13
:101B5000068CF78DE02DA601B401DACF0284F3855F
:101B6000E02D0995D501ED91FC910488F589E02DD2
:101B700083019401A601BE01C5010995D501ED912E
:101B8000FC910688F789E02DC501DF91CF911F9167
:101B90000F91FF90EF90DF90CF90BF90AF909F900C
:101BA0008F907F906F900994EF92FF920F931F9305
:101BB000DC011A960D911C911B9718962D913C9162
:101BC0001997ED91FC9100A0F1A1E02D7B0150E06F
:101BD00040E070E060E009951F910F91FF90EF9059
:101BE00008954F925F926F927F928F929F92AF92E1
:101BF000BF92CF92DF92EF92FF920F931F93CF93FA
:101C0000DF936C012B015A0139014801DC01ED9190
:101C1000FC910284F385E02D0995E201640C751CAA
:101C2000D601ED91FC91C615D7055CF40088F189C9
:101C3000E02D87019401A501BE01C60109952196F9
:101C4000EFCF0688F789E02DC601DF91CF911F9174
:101C50000F91FF90EF90DF90CF90BF90AF909F904B
:101C60008F907F906F905F904F9009948F929F928A
:101C7000AF92BF92CF92DF92EF92FF920F931F939A
:101C8000CF93DF93EC015B014A016901E881F9819F
:101C90000284F385E02D099595012C0D3D1D215001
:101CA0003109E881F9810488F589E02D7801840102
:101CB000A401B501CE010995E881F9810688F7896B
:101CC000E02DCE01DF91CF911F910F91FF90EF900A
:101CD000DF90CF90BF90AF909F908F9009948F929C
:101CE0009F92AF92BF92CF92DF92EF92FF920F93AB
:101CF0001F93CF93DF93EC015B014A0169017801E7
:101D0000E881F9810284F385E02D0995C80CD91C7E
:101D1000860101501109E881F9810488F589E02DD7
:101D20009501A401B501CE010995E881F9810688E4
:101D3000F789E02DCE01DF91CF911F910F91FF9098
:101D4000EF90DF90CF90BF90AF909F908F900994CD
:101D5000EF92FF920F931F93DC01ED91FC9100A095
:101D6000F1A1E02D09951F910F91FF90EF9008953B
:101D70000F931F93DC01ED91FC91068CF78DE02D04
:101D800009951F910F9108950F931F93DC01ED9119
:101D9000FC91048CF58DE02D09951F910F9108950C
:101DA000DC01ED91FC910084F185E02D09943F92D6
:101DB0004F925F926F927F928F929F92AF92BF925B
:101DC000CF92DF92EF92FF920F931F93CF93DF9307
:101DD0005C017B014A016901390187E0680E711CD1
:101DE00093E0759467949A95E1F72B01400E511E8C
:101DF00010E000E0312CD0E0C0E0CE0187709927E0
:101E0000330C892B59F4FE0183E0F595E7958A950B
:101E1000E1F7E00FF11FE80DF91D349037FE0AC01D
:101E200021E030E0A701B5016C0F7D1F82E595E050
:101E30000E94D00E2196CC16DD06F9F68FEFE81A37
:101E4000F80A060D171DE414F504A9F6DF91CF91E9
:101E50001F910F91FF90EF90DF90CF90BF90AF90C8
:101E60009F908F907F906F905F904F903F900895DC
:101E70002F923F924F925F926F927F928F929F929A
:101E8000AF92BF92CF92DF92EF92FF920F931F9388
:101E9000CF93DF9300D000D000D0CDB7DEB73C01A8
:101EA0006A013E832D83FC82EB825801A41AB50A95
:101EB000B7FE03C0B194A194B1088D809E80861AAC
:101EC000970A97FE03C09194819491088A149B0409
:101ED0005CF0902F812F0D811E819D838E839C2D20
:101EE0008D2D6B01692F782F0C151D055CF09D81E0
:101EF0008E817E836D83692F782F902F812F8601AD
:101F0000C92ED82E1601201A310A2B012D813E81AF
:101F1000421A530A57FE03C051944194510871016B
:101F200037FE03C03FEFE31AF30AF594E7948D817F
:101F30009E81861797075CF5A1E0B0E0BA83A9837C
:101F4000C016D1064CF1D301ED91FC910484F585C6
:101F5000E02D2B813C81A8016D817E818A149B0438
:101F60001CF04D815E81B801C3010995E418F508A4
:101F7000F7FE0AC02D813E8189819A81280F391F81
:101F80003E832D83E20CF31C0F5F1F4FD9CF2FEF41
:101F90003FEF3A832983D4CF26960FB6F894DEBF5D
:101FA0000FBECDBFDF91CF911F910F91FF90EF90AA
:101FB000DF90CF90BF90AF909F908F907F906F9069
:101FC0005F904F903F902F9008952091C903260F66
:101FD0003327331F21323105ECF420914004FC01FA
:101FE00090E080E0243069F082E00895A091C90378
:101FF0002191AC0147555C4FA40FB52FB11D2C9317
:102000000196861798F38091C903680F6093C903FE
:1020100080E0089581E008951092400481E080936B
:102020003F0410921A0461E082E10E94AA0661E076
:1020300083E10E94AA06E9EBF0E080818E7F808335
:1020400080818D7F808388E48093B80085E48093CD
:10205000BC000895109219041092180410924704BD
:10206000109269040E940C108AE995E0909317047D
:10207000809316048BE995E09093150480931404E3
:102080000895CF93DF9391E09093A8038823B9F04C
:10209000C091B800D091BA008091BC008A7B809337
:1020A000BC0060E082E10E94AA0660E083E10E9439
:1020B000AA060E940C10D093BA00C093B800DF911A
:1020C000CF9108958F929F92AF92BF92CF92DF925D
:1020D000EF92FF920F931F93CF93DF93D0916904F8
:1020E000D13208F0D7C0182FC09168040E9427078A
:1020F0006B017C018091400481116BC082E0809370
:10210000400410933F048FEF80933E0410923D04EF
:10211000D0933C04A8E4B4E0ECE1F4E080E0D81310
:1021200091C010921B0480911B04CC0FC82BC0934C
:102130001B0480911A04813009F088C010921A049F
:102140000E9427076B017C0180911B048093BB00D8
:102150008091420490914304A0914404B0914504BD
:10216000892B8A2B8B2BA1F00E9427070091420418
:102170001091430420914404309145046C197D0969
:102180008E099F09061717072807390708F442C068
:102190008091BC0083FDD8CF85EC8093BC000E9469
:1021A00027076B017C0180914004823009F450C004
:1021B00080913E048F3F09F46FC080913E048032CD
:1021C00009F46CC080913E04803309F469C084E056
:1021D00026C08091420490914304A0914404B091A0
:1021E0004504892B8A2B8B2B09F484CF0E94270767
:1021F0008090420490904304A0904404B090450421
:102200006C197D098E099F0986169706A806B906DE
:1022100008F070CF809141040E94411085E0109237
:1022200047041092690410924604DF91CF911F91E8
:102230000F91FF90EF90DF90CF90BF90AF909F9065
:102240008F9008959D9191938F5F69CF85EEA5CF73
:102250008091420490914304A0914404B0914504BC
:10226000892B8A2B8B2B09F49ECF0E942707009184
:1022700042041091430420914404309145046C19A8
:102280007D098E099F09061717072807390708F0E7
:102290008ACFC0CF81E0C3CF80E0C1CF82E0BFCF83
:1022A00083E0BDCFE091190480911804E81730F461
:1022B000F0E0EE50FC4F808190E008958FEF9FEFAB
:1022C000089590911904809118042FEF3FEF98170B
:1022D00048F4E92FF0E0EE50FC4F208130E09F5FA2
:1022E00090931904C90108958091180490911904DC
:1022F000891B990B0895CF92DF92EF92FF920F9373
:102300001F93CF93DF937C01CB018A012091460478
:10231000222389F0EB016B01C40ED51ECC15DD051F
:1023200069F06991D701ED91FC910190F081E02D68
:10233000C7010995F3CF642F0E94E50FC801DF9113
:10234000CF911F910F91FF90EF90DF90CF90089564
:10235000CF93DF931F92CDB7DEB7698320914604F8
:102360002223F9F020916904203258F021E030E076
:10237000FC013383228390E080E00F90DF91CF91C6
:10238000089580914704E82FF0E0E85BFB4F9981C6
:1023900090838F5F809347048093690481E090E08D
:1023A000ECCF61E0CE0101960E94E50FF7CF81E00E
:1023B0000C946210EF92FF920F931F93CF93DF93D1
:1023C0007C01C62F80916F0590917005009709F4EC
:1023D00059C02091730531E030934604209368047E
:1023E0001092470410926904DC01ED91FC91019078
:1023F000F081E02D60E009958701EE24E394F12C53
:10240000D1E0C15080916F0590917005CF3F91F15F
:10241000B0E2EB16F104D8F00E94D71180916F055D
:102420009091700520917305D09346042093680421
:102430001092470410926904DC01ED91FC91019027
:10244000F081E02D60E00995EE24E394F12C809179
:102450006F0590917005F8016491DC01ED91FC919C
:102460000190F081E02D0995BFEFEB1AFB0A0F5F99
:102470001F4FC7CFDF91CF911F910F91FF90EF902A
:102480000C94D711E0917F05F091800590818091A7
:1024900085058095892380838701C15008F438C061
:1024A000F801849120916D0530916E05232B29F060
:1024B0000E94E6090F5F1F4FF0CF28E030E040E8B0
:1024C000E0917B05F0917C0590918305582F542372
:1024D000D9F05081952B9083E0917D05F0917E0598
:1024E000908150918405952B9083E0917D05F0912A
:1024F0007E05508190918405909595239083469513
:1025000021503109E9F6D6CF508190959523E3CF3C
:10251000DF91CF911F910F91FF90EF9008951F933E
:10252000CF93DF93EC018D8D9E8D009721F1162FB7
:1025300029A131E0309346042093680410924704A7
:1025400010926904DC01ED91FC910190F081E02D85
:1025500060E009958D8D9E8DDC01ED91FC910190DF
:10256000F081E02D612F09958D8D9E8DDF91CF91AA
:102570001F910C94D711ADA5BEA59C918BA98095F8
:1025800089238C938B8D9C8D892B31F0862FDF9145
:10259000CF911F910C94E60928E030E080E8A9A5CE
:1025A000BAA599A9462F4823C1F04C91942B9C932E
:1025B000ABA5BCA59C914AA9942B9C93ABA5BCA5AB
:1025C0004C919AA9909594239C938695215031091A
:1025D00031F7DF91CF911F9108954C9190959423FD
:1025E000E6CF1F93CF93DF93EC01162F8D8D9E8D39
:1025F000892BB1F12DA93EA94FA958AD60E074E235
:1026000084EF90E00E9400212051310941095109D5
:1026100056954795379527952093B80066EA11118E
:1026200067EACE010E948F128D8D9E8D892B41F11C
:1026300029AD3AAD4BAD5CAD60E074E284EF90E063
:102640000E940021205131094109510956954795B1
:10265000379527952093B800DF91CF911F9108956A
:102660008B8D9C8D892B21F08EAD9FAD0E94ED0945
:10267000EFA5F8A990818CA9809589238083CECF7E
:10268000EFA5F8A980819CA9892B8083E5CFCF9302
:10269000DF93EC018B818823A9F089819A812881BD
:1026A00031E030934604209368041092470410925E
:1026B00069040E94D71191E0811190E0892FDF9188
:1026C000CF9108950E942A1081E08B83CE010E9451
:1026D0004713982F8111E1CFF1CF90E080E008956A
:1026E000CF93DF93EC0160E088810E94AA061986EF
:1026F000DF91CF910895CF93DF93EC0161E0888162
:102700000E94AA0681E089878C859D8501969D8718
:102710008C878A859B8501969B878A87DF91CF91DD
:1027200008952091580530915905C901079697FDE4
:10273000079623E0959587952A95E1F72091560510
:1027400030915705829FA001839F500D929F500D9D
:10275000112470E060E080917105909172050C94F5
:1027600052220E944D22FB0101900020E9F731978F
:10277000AF01461B570BDC01ED91FC910280F38108
:10278000E02D09948F929F92AF92BF92EF92FF92A9
:102790000F931F93CF93DF93CDB7DEB7A1970FB6FB
:1027A000F894DEBF0FBECDBF7C01FA01CB0119A2A8
:1027B000223008F42AE08E010F5D1F4F822E912CEB
:1027C000B12CA12CBF01A50194010E940021F901A7
:1027D000CA016A300CF5605DD8016E938D01232B20
:1027E000242B252B79F790E080E0109721F0BD0194
:1027F000C7010E94B313A1960FB6F894DEBF0FBEB7
:10280000CDBFDF91CF911F910F91FF90EF90BF90BF
:10281000AF909F908F900895695CDECFCF92DF924A
:10282000EF92FF920F931F93CF93DF93EC016B0115
:10283000770FEE08FF08F7FE25C0E881F9810190C7
:10284000F081E02D6DE209958C0144275527BA01EE
:102850004C195D096E097F092AE0CE010E94C2135E
:10286000080F191F62E671E0CE010E94B313800FBA
:10287000911FDF91CF911F910F91FF90EF90DF900B
:10288000CF9008952AE0B701A6010E94C2138C01DF
:10289000E9CF0F931F93CF93DF93EC010E94B31303
:1028A0008C0162E671E0CE010E94B313800F911F8C
:1028B000DF91CF911F910F910895DF92EF92FF92D8
:1028C0000F931F93CF93DF930E94911381E0809326
:1028D00066058093670581E090E09093650580939D
:1028E0006405909363058093620510925F051092D2
:1028F0005E05109261051092600565E671E082E563
:1029000095E00E9449148091E705811110C08EE680
:1029100090E090935F0580935E05109261051092A0
:10292000600561E771E082E595E00E9449148091BD
:10293000E705882381F08EE690E090935F05809311
:102940005E05109261051092600565E771E082E511
:1029500095E00E9449148091DF0510925F05109266
:102960005E05882309F402C188E090E09093610538
:102970008093600568E771E082E595E00E94491464
:1029800084E690E090935F0580935E0509E110E096
:1029900010936105009360056091EA057091EB0565
:1029A00082E595E00E940E1440914305D0914405C4
:1029B000C091450581E0809366058093670581E0BD
:1029C00090E09093650580936405909363058093F0
:1029D000620510925F0510925E05109361050093E9
:1029E000600550E070E060E02AE082E595E00E943A
:1029F000C21368E871E082E595E00E94B3134D2FA1
:102A000050E070E060E02AE082E595E00E94C213A9
:102A100068E871E082E595E00E94B3134C2F50E026
:102A200070E060E02AE082E595E00E94C2138091A8
:102A30006F0590917005892B09F4A1C0209187053D
:102A4000309188054091890550918A0560E074E2D3
:102A500084EF90E00E940021205131094109510981
:102A600056954795379527952093B80065E088E6F9
:102A700090E00E94DA1160915605615082E595E080
:102A80000E948F122091580530915905C90107966F
:102A900097FD079633E0959587953A95E1F7209154
:102AA000560530915705829F8001839F100D929F9C
:102AB000100D1124C0917105D091720580916F05A0
:102AC000909170050C0F1D1F009709F498C020917C
:102AD000730531E030934604209368041092470454
:102AE00010926904DC01ED91FC910190F081E02DE0
:102AF00060E40995EE24E394F12CDD24D3948091D5
:102B00006F05909170050C171D0709F44FC0B0E2D6
:102B1000EB16F104D8F00E94D71180916F059091C7
:102B2000700520917305D09246042093680410929A
:102B3000470410926904DC01ED91FC910190F08151
:102B4000E02D60E40995EE24E394F12C80916F056B
:102B5000909170056991DC01ED91FC910190F081FB
:102B6000E02D0995BFEFEB1AFB0AC9CF88E090E092
:102B700090936105809360056FE771E0FDCE8091D1
:102B80006D0590916E05892B31F0809190059091A3
:102B900091050E94ED09E0918105F09182059081F7
:102BA0008091860580958923808360CF0E94D7110C
:102BB00080916F0590917005892B09F461C0209177
:102BC0008B0530918C0540918D0550918E0560E00C
:102BD00074E284EF90E00E94002120513109410904
:102BE000510956954795379527952093B800DF9161
:102BF000CF911F910F91FF90EF90DF900895E0919A
:102C00007F05F0918005808190918505892B8083D7
:102C10000C171D0769F2899120916D0530916E05A1
:102C2000232B19F00E94E609F3CF28E030E040E8BA
:102C3000E0917B05F0917C0590918305582F5423FA
:102C4000D9F05081952B9083E0917D05F0917E0520
:102C5000908150918405952B9083E0917D05F091B2
:102C60007E0550819091840590959523908346959B
:102C700021503109E9F6CCCF508190959523E3CFCF
:102C8000E0918105F0918205808190918605892BE4
:102C90008083ADCF85ED8093BC00809142049091FC
:102CA0004304A0914404B09145040796A11DB11DB1
:102CB00023E0B695A795979587952A95D1F720910A
:102CC000BC0024FD03C010924004089540914204CA
:102CD000509143046091440470914504452B462B68
:102CE000472B69F30097A105B10541F02AE22A9527
:102CF000F1F700C00197A109B109E1CF809141042A
:102D00000C9441101F920F920FB60F9211242F9323
:102D10003F934F935F936F937F938F939F93AF9363
:102D2000BF93EF93FF938EE694E00E941B06FF9102
:102D3000EF91BF91AF919F918F917F916F915F9133
:102D40004F913F912F910F900FBE0F901F901895AC
:102D50001F920F920FB60F9211242F938F939F9370
:102D6000EF93FF93E0917E04F0917F048081E091E6
:102D70008404F091850482FD1BC0908180918704BA
:102D80008F5F8F7320918804821741F0E091870450
:102D9000F0E0E259FB4F958F80938704FF91EF910C
:102DA0009F918F912F910F900FBE0F901F901895AC
:102DB0008081F4CF1F920F920FB60F9211242F93A0
:102DC0003F938F939F93AF93BF9380916A049091A9
:102DD0006B04A0916C04B0916D043091EC0323E07E
:102DE000230F2D3758F50196A11DB11D2093EC033B
:102DF00080936A0490936B04A0936C04B0936D0469
:102E00008091ED039091EE03A091EF03B091F00358
:102E10000196A11DB11D8093ED039093EE03A09345
:102E2000EF03B093F003BF91AF919F918F913F91CA
:102E30002F910F900FBE0F901F90189526E8230F2B
:102E40000296A11DB11DD2CF1F920F920FB60F9205
:102E500011242F933F934F935F936F937F938F939F
:102E60009F93AF93BF93EF93FF938091B900887FB7
:102E7000803609F44AC0F0F5883209F4A7C018F585
:102E8000803109F49BC0B8F4882309F4F9C0883074
:102E900009F494C0FF91EF91BF91AF919F918F91F1
:102EA0007F916F915F914F913F912F910F900FBE46
:102EB0000F901F901895883109F488C0803251F71F
:102EC00080933E0414C0803409F49DC040F48033E4
:102ED000B9F38833F9F680933E0485ECB0C08035B1
:102EE00009F485C0883509F496C0883499F60E94A3
:102EF0004A16D0CF883909F48CC038F5883729F0C4
:102F000050F4883611F0803729F683E0809340042E
:102F10001092EB0357C0883809F47BC0803919F050
:102F2000803809F0B7CF8091EB03803208F071C090
:102F3000E091EB0381E08E0F8093EB038091BB0067
:102F4000F0E0E553FC4F80833DC0803B39F0E0F476
:102F5000803A09F479C0883A09F09CCF84E08093E4
:102F600040041092CA031092C903E0911604F09134
:102F7000170409958091C90381110FC081E08093E6
:102F8000C9031092A90309C0803C09F4A6CF883C6C
:102F900009F4A3CF883B09F07DCFE091CA0381E01B
:102FA0008E0F8093CA03F0E0E755FC4F8081809339
:102FB000BB009091CA038091C90329C080911B0472
:102FC0008093BB0085EC8093BC0064CF90913D045E
:102FD00080913C04981758F5E0913D0481E08E0FF4
:102FE00080933D04F0E0E45EFB4F8081E9CFE09107
:102FF0003D0481E08E0F80933D048091BB00F0E0A2
:10300000E45EFB4F808390913D0480913C049817CF
:10301000C8F285E8D8CFE0913D0481E08E0F80931F
:103020003D048091BB00F0E0E45EFB4F8083809123
:103030003F0481115CCF81E080931A0484EA80937D
:10304000BC001092400426CF85EC8093BC00109207
:1030500040048091EB03803230F4E091EB03F0E028
:10306000E553FC4F10826091EB0370E0E091140493
:10307000F09115048BEC93E009951092EB030ACFC5
:1030800010923E0434CFCF93DF93EC01862F6883F8
:1030900061E00E94F60660E088810E94AA06198617
:1030A00081E08B838C838D838E831F821A82DF91D4
:1030B000CF910895109271041092700488EE93E0FD
:1030C000A0E0B0E08093720490937304A093740422
:1030D000B09375042AE031E030936F0420936E04BE
:1030E00025EC30E030937B0420937A0424EC30E02C
:1030F00030937D0420937C0420EC30E030937F04F7
:1031000020937E0421EC30E03093810420938004EE
:1031100022EC30E0309383042093820426EC30E0EC
:1031200030938504209384041092870410928804BD
:103130001092890410928A0448E853E160E070E03C
:1031400040932E0550932F05609330057093310501
:1031500010923A05109236051092370510923805F4
:103160001092390510923B0510920D0510920C0536
:1031700010920B0510923F0510923E052CE131E0B4
:1031800030933D0520933C05109249051092480567
:1031900080934A0590934B05A0934C05B0934D0541
:1031A00088E291E0909347058093460510922006AF
:1031B00010921C0610921D0610921E0610921F06F9
:1031C0001092210610921606109212061092130603
:1031D00010921406109215061092170610920C0603
:1031E000109208061092090610920A0610920B0619
:1031F00010920D0662E086EF95E00E94431810924F
:10320000F4051092F0051092F1051092F20510925B
:10321000F3051092F50563E08EED95E00E944318EA
:103220001092DC051092D8051092D9051092DA059B
:103230001092DB051092DD0564E086EC95E00E94BB
:1032400043181092C4051092C0051092C105109247
:10325000C2051092C3051092C50565E08EEA95E09F
:103260000E9443181092AC051092A8051092A9056F
:103270001092AA051092AB051092AD056DE086E99B
:1032800095E00E9443188BE08093940562E00E94D1
:10329000F60660E0809194050E94AA0610929505BA
:1032A0008AE08093920562E00E94F60660E08091D9
:1032B00092050E94AA06109293051092550510924D
:1032C000540520E830E0309357052093560580E2FE
:1032D00090E0909359058093580530935B052093B7
:1032E0005A0590935D0580935C05109268051092D5
:1032F0005F0510925E05109261051092600581E0F5
:1033000080936705809366052FEF3FEF3093650547
:1033100020936405309363052093620580936905CB
:1033200010926A0510926C0510926B058AE391E089
:10333000909353058093520510926E0510926D057F
:1033400086E495E09093700580936F051092720566
:10335000109271058FEF80937605809377058093A7
:1033600078058093790580937A0580E89AE1A6E054
:10337000B0E08093870590938805A0938905B0936A
:103380008A0580EA96E8A1E0B0E080938B059093EF
:103390008C05A0938D05B0938E0580E580939005F4
:1033A0001092910510924505109244051092430524
:1033B00010924005E9E9FAE081E08C3049F09491FF
:1033C000823009F49F5F21E0280F3196992331F074
:1033D0008093410581E0809342050895822FEDCFCF
:1033E000CF93DF9300D000D000D01F92CDB7DEB7CF
:1033F000789484B5826084BD84B5816084BD85B5D0
:10340000826085BD85B5816085BD80916E008160DB
:1034100080936E0010928100809181008260809381
:103420008100809181008160809381008091800083
:103430008160809380008091B10084608093B100AE
:103440008091B00081608093B00080917A008460A8
:1034500080937A0080917A00826080937A008091D4
:103460007A00816080937A0080917A0080688093EE
:103470007A001092C100E0917E04F0917F0482E016
:103480008083E0917A04F0917B041082E0917C04C7
:10349000F0917D048FEC808310928604E091820489
:1034A000F091830486E08083E0918004F0918104B0
:1034B000808180618083E0918004F091810480812B
:1034C00088608083E0918004F0918104808180682D
:1034D0008083E0918004F091810480818F7D8083DE
:1034E0006AE871E08EE694E00E94491468EE73E0A9
:1034F00080E090E00E944C078091710590917205E8
:10350000892B11F10E949113209158053091590592
:103510008091560590915705213231050CF04BC032
:10352000B9016052710977FF02C06F5F7F4F7595D7
:1035300067958357910997FD019600E210E023E714
:1035400030E04FED55E04AC02091580530915905C3
:10355000C901079697FD0796B3E095958795BA95AB
:10356000E1F72091560530915705AC01429FC0010B
:10357000439F900D529F900D11240E9428219093FB
:10358000720580937105892B09F0BCCF0FE71AE013
:10359000F8016491662341F08EE694E00E943D06B6
:1035A0000F5F1F4F892BA1F762E671E08EE694E072
:1035B0000E94B313FFCFB9016054710977FF02C0B5
:1035C0006F5F7F4F759567958255910997FD0196BD
:1035D00000E410E022E530E04FEB57E09595879549
:1035E0000E94D70E82E08093740580916F059091C0
:1035F0007005892B09F4D4C18CE3809373050E9474
:103600002A1080917A0587FD1EC061E00E94F606AF
:1036100061E080917A050E94AA0661E070E080E096
:1036200090E00E944C0760E080917A050E94AA0613
:103630006AE070E080E090E00E944C0761E08091D9
:103640007A050E94AA0680916F0590917005892BDA
:1036500009F465C22091870530918805409189055C
:1036600050918A0560E074E284EF90E00E940021AE
:1036700020513109410951095695479537952795AC
:103680002093B80064E089EA95E00E94DA11609125
:103690005805615082E595E00E948F1264E085EA4A
:1036A00095E00E94DA118091740564E1813009F49B
:1036B00060E182E595E00E948F1264E081EA95E086
:1036C0000E94DA118FE880938F05809156059091C2
:1036D00057058038910509F03BC2809158059091BB
:1036E00059058034910509F043C2809174058130F9
:1036F00009F42CC28FEC80938F0512E16AED82E50C
:1037000095E00E948F12612F82E595E00E948F1252
:1037100061E882E595E00E948F1260918F0582E555
:1037200095E00E948F1269ED82E595E00E948F126C
:103730008091740561EF813009F462E282E595E0E1
:103740000E948F1266E08BE995E00E94DA11809169
:103750006F0590917005892B09F40EC220918B059D
:1037600030918C0540918D0550918E0560E074E29A
:1037700084EF90E00E940021205131094109510954
:1037800056954795379527952093B8000E94911339
:1037900069EA71E08EE694E00E94491468EE73E0F5
:1037A00080E090E00E944C078091120490911304F5
:1037B000009711F00E94C42186E090E00E94282129
:1037C0008C0188E6D8018C9386E495E012969C9350
:1037D0008E93119713961C92139780E290E01596A2
:1037E0009C938E93149710931304009312040E94D9
:1037F0002A1081E0F8018383C8010E9447138823BF
:1038000009F4C4C16EEB71E08EE694E00E944914A5
:1038100068EE73E080E090E00E944C07A7E08A2EFB
:10382000912CB0E02B2EB0E03B2E1982C0901204F8
:10383000D0901304D60114968D919C911597892BE5
:1038400009F42DC211968D919C9112972C9131E023
:103850003093460420936804109247041092690440
:10386000DC01ED91FC910280F381E02D41E050E01C
:10387000BE016F5F7F4F0995019709F010C280E08C
:103880000E94621081110BC2F12CE12CF60184819F
:10389000958184010E191F098017910708F48C0186
:1038A000D601AC900E9427072B013C018091400477
:1038B00081117DC1B02EB0E2B01710F4F0E2BF2E3E
:1038C000E1E0E093400421E0C401801B910BE81685
:1038D000F90608F420E020933F04FFEFF0933E0444
:1038E00010923D048FEF8B0D80933C0441E0409398
:1038F0001B0480911B04AA0CA82AA0921B0480918F
:103900001A04813009F09EC110921A040E94270700
:103910002B013C0180911B048093BB0080914204E9
:1039200090914304A0914404B0914504892B8A2BC3
:103930008B2BA1F00E942707209142043091430471
:10394000409144045091450464197509860997090A
:10395000261737074807590708F44AC18091BC0069
:1039600083FDD8CF55EC5093BC000E9427072B0154
:103970003C0180914004813009F468C180913D048C
:103980008B1510F4B0903D04ACE1B4E0E2EFF3E04D
:1039900080E08B1509F431C19D9191938F5FF9CF30
:1039A00061E0809178050E94F60661E080917905DA
:1039B0000E94F60680917805082E000C990BFC01F8
:1039C000E553FA4FE491F0E0EE0FFF1FEF53FA4F8B
:1039D000259134913093800520937F05FC01E355B8
:1039E000FA4FE491E093850580917905082E000C4B
:1039F000990BFC01E553FA4FE491F0E0EE0FFF1F45
:103A0000EF53FA4FA591B491B0938205A09381052D
:103A1000FC01E355FA4FE491E09386058C91E82B85
:103A2000EC9380916D0590916E05892B09F434C05B
:103A30001FB7F8948091F103811127C0E5EDF5E0FF
:103A40008491E7EBF5E09491E82FF0E0EE0FFF1F93
:103A5000EF56FA4FA591B491EC91E92321F461E07E
:103A60008AE00E94AA0661E08AE00E94F6068CB510
:103A700080618CBD8CB580648CBD61E08DE00E945E
:103A8000F60661E08BE00E94F6068091F1038F5FFD
:103A90008093F1031FBFB5CD61E0809176050E9450
:103AA000F60661E0809177050E94F6068091760522
:103AB000082E000C990BFC01E553FA4FE491F0E05D
:103AC000EE0FFF1FEF53FA4F2591349130937C0591
:103AD00020937B05FC01E355FA4FE491E0938305C5
:103AE00080917705082E000C990BFC01E553FA4FE5
:103AF000E491F0E0EE0FFF1FEF53FA4FA591B49160
:103B0000B0937E05A0937D05FC01E355FA4FE49147
:103B1000E09384058C91E095E823EC9372CD80913D
:103B20006D0590916E05892B31F0809190059091F3
:103B300091050E94ED09E0918105F0918205908147
:103B4000809186058095892380839CCD8FE9D3CD94
:103B50008036910569F480915805909159054097F8
:103B600039F480917405813029F08FEA80938F05B4
:103B700012E0C4CD80E1FACFE0918105F091820599
:103B8000808190918605892B808300CE62ED71E063
:103B90008EE694E00E9449148EE694E00E948A0624
:103BA0006AE070E080E090E00E944C07F9CF8091DD
:103BB000420490914304A0914404B0914504892BA0
:103BC0008A2B8B2B09F472CE0E9427072091420486
:103BD000309143044091440450914504641975099F
:103BE00086099709261737074807590708F05ECE58
:103BF000809141040E944110B12C10921904B0929E
:103C00001804B016110609F04AC0AA24A394B12CD6
:103C1000AC0EBD1EAE0CBF1C3501C501861997093F
:103C200080179107A8F5D60111968D919C91DC0122
:103C3000ED91FC910284F385E02D0995F5018193C6
:103C40005F01EBCF85EE8093BC008FCE8091420464
:103C500090914304A0914404B0914504892B8A2B90
:103C60008B2B09F486CE0E942707209142043091C5
:103C70004304409144045091450464197509860930
:103C80009709261737074807590708F072CEB0CFB3
:103C9000E00EF11EF7E0EF16F10408F4F7CD99817C
:103CA0009F77EA814B81242F30E084E0359527957A
:103CB0008A95E1F7822F880F880F522F581B852F86
:103CC000880F840FFD816E816F772F81422F50E026
:103CD00034E0559547953A95E1F7342F330F330F7C
:103CE000431B440F420F40934005262F30E044E031
:103CF000359527954A95E1F7322F330F330F231B64
:103D0000220F260F209341056F2F70E054E0759528
:103D100067955A95E1F7262F220F220F621B660F37
:103D20006F0F60934205809343054E2F50E064E08F
:103D3000559547956A95E1F7242F220F220F421BD4
:103D4000440F4E0F40934405292F30E074E0359521
:103D500027957A95E1F7322F330F330F231B220F6C
:103D6000290F209345059091E105992309F445C059
:103D70008630E8F48091DF05811119C064EE71E0AE
:103D80008EE694E00E94491464E072E08EE694E0CE
:103D90000E94491481E08093DF058093E0058CEE5A
:103DA00095E00E947E058EED95E00E947B13809148
:103DB0004305873010F18091DF058823F1F0809171
:103DC000E0058130D1F46EE172E08EE694E00E946D
:103DD00049146AE372E08EE694E00E94491410925E
:103DE000DF051092F4051092F5058EED95E00E9426
:103DF00070131092E9051092E8058091E20588237E
:103E000009F448C0809143058A30F1F48091DF05C0
:103E100081111AC065E572E08EE694E00E944914B3
:103E200064E072E08EE694E00E94491481E08093A1
:103E3000DF0582E08093E0058CEE95E00E947E0530
:103E40008EED95E00E947B13809143058C3010F13C
:103E50008091DF058823F1F08091E0058230D1F474
:103E600065E772E08EE694E00E9449146AE372E02E
:103E70008EE694E00E9449141092DF051092F4053A
:103E80001092F5058EED95E00E9470131092E905F1
:103E90001092E8058091FB05882309F449C08091C0
:103EA000430580518830F0F48091F70581111AC0E4
:103EB00061E972E08EE694E00E94491464E072E0E9
:103EC0008EE694E00E94491481E08093F70583E038
:103ED0008093F80584E096E00E947E0586EF95E0E9
:103EE0000E947B1380914305893110F18091F70581
:103EF0008823F1F08091F8058130D1F461EB72E014
:103F00008EE694E00E9449146AE372E08EE694E043
:103F10000E9449141092F70510920C0610920D069B
:103F200086EF95E00E947013109201061092000631
:103F30008091FC05882309F449C08091430585518F
:103F40008330F0F48091F70581111AC06DEC72E0B6
:103F50008EE694E00E94491464E072E08EE694E0FC
:103F60000E94491481E08093F70584E08093F8056E
:103F700084E096E00E947E0586EF95E00E947B1328
:103F800080914305893110F18091F7058823F1F084
:103F90008091F8058130D1F46DEE72E08EE694E008
:103FA0000E9449146AE372E08EE694E00E9449148C
:103FB0001092F70510920C0610920D0686EF95E010
:103FC0000E94701310920106109200068091F40571
:103FD000882309F457C08091F505882371F18091F9
:103FE000F0059091F105A091F205B091F305409193
:103FF000EC055091ED056091EE057091EF05840F91
:10400000951FA61FB71F8093F0059093F105A0930D
:10401000F205B093F30591E09093F4051092F50545
:104020008091E70589278093E705882309F497C0E5
:104030008EED95E00E947B1325C02FB7F8948091F8
:104040006A0490916B04A0916C04B0916D042FBF31
:104050004091F0055091F1056091F2057091F305E2
:10406000841B950BA60BB70B4091EC055091ED0509
:104070006091EE057091EF0584179507A607B707C5
:1040800008F0ADCF0E945D148091DF058823D1F147
:104090008091E705811106C066E073E08EE694E04A
:1040A0000E9449148091E705882361F161E273E081
:1040B0008EE694E00E9449146BE373E08EE694E090
:1040C0000E94B3136091E8057091E9058EE694E0D3
:1040D0000E940E146CE573E08EE694E00E94B31328
:1040E0008091F405811149C040E050E0BA012AE016
:1040F0008EE694E00E94C21362E671E08EE694E0E0
:104100000E94B3130E945D146DE773E08EE694E0A5
:104110000E94B3136091DF0570E08EE694E00E9488
:104120000E1467E973E08EE694E00E94491467E993
:1041300073E08EE694E00E94491468EE73E080E03C
:1041400090E00E944C072114310409F46ECB0E94C8
:104150000706882309F469CB0E94000066CB8EED28
:1041600095E00E9470138091E8059091E905019611
:104170009093E9058093E80585CF2FB7F894809157
:104180006A0490916B04A0916C04B0916D042FBFF0
:104190002091F5052111A8CF4091F0055091F1052E
:1041A0006091F2057091F3050091EC051091ED0519
:1041B0002091EE053091EF056C017D01C41AD50AFE
:1041C000E60AF70AC016D106E206F30608F08CCF1D
:1041D000400F511F621F731F481B590B6A0B7B0B4B
:1041E00086CF8AE391E090935305809352058091A6
:1041F000710590917205009711F00C94C4210895F7
:10420000A1E21A2EAA1BBB1BFD010DC0AA1FBB1FDA
:10421000EE1FFF1FA217B307E407F50720F0A21B4C
:10422000B30BE40BF50B661F771F881F991F1A94B9
:1042300069F760957095809590959B01AC01BD01E3
:10424000CF010895EE0FFF1F0590F491E02D099422
:104250000F931F93CF93DF938230910510F482E088
:1042600090E0E0912406F091250630E020E0B0E0F7
:10427000A0E0309799F42115310509F44AC0281BB4
:10428000390B24303105D8F58A819B816115710580
:1042900089F1FB0193838283FE0111C0408151812A
:1042A0000281138148175907E0F04817590799F41C
:1042B000109761F012960C93129713961C933296F6
:1042C000CF01DF91CF911F910F91089500932406A4
:1042D00010932506F4CF2115310551F042175307ED
:1042E00038F0A901DB019A01BD01DF01F801C1CF5E
:1042F000EF01F9CF9093250680932406CDCFFE01E0
:10430000E20FF31F8193919322503109398328835F
:10431000D7CF2091220630912306232B41F4209100
:10432000020130910301309323062093220620914D
:104330000001309101012115310541F42DB73EB73F
:104340004091040150910501241B350BE091220698
:10435000F0912306E217F307A0F42E1B3F0B28175A
:10436000390778F0AC014E5F5F4F2417350748F0EE
:104370004E0F5F1F50932306409322068193919323
:104380009FCFF0E0E0E09CCFCF93DF930097E9F080
:10439000FC01329713821282A0912406B091250667
:1043A000ED0130E020E01097A1F420813181820FEF
:1043B000931F20912206309123062817390709F010
:1043C00061C0F0932306E0932206DF91CF91089518
:1043D000EA01CE17DF07E8F54A815B819E014115AE
:1043E0005105B1F7E901FB83EA8349915991C40F63
:1043F000D51FEC17FD0761F4808191810296840F2F
:10440000951FE90199838883828193819B838A83A5
:10441000F0E0E0E012968D919C9113970097B9F52A
:104420002D913C911197CD010296820F931F2091FF
:104430002206309123062817390739F6309751F5AF
:104440001092250610922406B0932306A09322060C
:10445000BCCFD383C28340815181840F951FC8177D
:10446000D90761F44E5F5F4F88819981480F591FCA
:10447000518340838A819B819383828321153105F7
:1044800009F0B0CFF0932506E09324069ECFFD01FE
:10449000DC01C0CF13821282D7CF81E090E0F89484
:1044A0000C945922DC0101C06D9341505040E0F75B
:1044B000089515E0C3E5D5E004C0FE010E94222165
:0C44C0002196C435D107C9F7F894FFCF4E
:1044CC00000026068000000000003D069D05CA0580
:1044DC008A06FB05D905ED05000000008C0789074D
:1044EC006D13880700000000A8117B116D139C054B
:1044FC00741161115211000000002B0C9D056D13FD
:10450C00880736099C05D00EA80EC40EB80E380FBD
:10451C009C05F109F112A608EF08F10DD40D5C0D04
:10452C00FD0C0D0A004F585947454E2050554D5023
:10453C00004F4646004F4E00416374697665004952
:10454C006E616374697665003A0053657269616CDB
:10455C0020436F6E6E656374696F6E204573746172
:10456C00626C69736865642E004F4C45442053653A
:10457C0074757020436F6D706C6574652E005254A9
:10458C004320536574757020436F6D706C65746552
:10459C002E00436F756C646E27742066696E642000
:1045AC00525443004F787967656E2050756D7020BA
:1045BC00416C61726D20233120547269676765729A
:1045CC00656421005475726E696E6720274F787987
:1045DC0067656E2050756D7027204F4E2E004F78FA
:1045EC007967656E2050756D7020416C61726D201D
:1045FC00233120726573657421005475726E696E77
:10460C006720274F787967656E2050756D7027206D
:10461C004F46462E004F787967656E2050756D7049
:10462C0020416C61726D202332205472696767657A
:10463C0072656421004F787967656E2050756D70D6
:10464C0020416C61726D2023322072657365742178
:10465C00004F787967656E2050756D7020416C61E4
:10466C00726D20233320547269676765726564210B
:10467C00004F787967656E2050756D7020416C61C4
:10468C00726D20233320726573657421004F787925
:10469C0067656E2050756D7020416C61726D2023C2
:1046AC00342054726967676572656421004F7879AC
:1046BC0067656E2050756D7020416C61726D207253
:1046CC006573657421004F787967656E2050756D40
:1046DC00702063757272656E746C79204F46462E2D
:1046EC00004F787967656E2050756D702063757218
:1046FC0072656E746C79204F4E2E004F7879676519
:10470C006E2050756D702063757272656E742063C7
:10471C00796C6520636F756E743A20004F787967F9
:10472C00656E2050756D7020696E74657276616C63
:10473C002072656D61696E696E673A20004F7879F9
:10474C0067656E2050756D7020616C61726D2073A1
:10475C00746174653A20002D2D2D2D2D2D2D2D2DB0
:08476C002D2D2D2D2D2D2D000A
:00000001FF
