:020000040000FA
:100000000C945F050C9487050C9487050C94870568
:100010000C9487050C9487050C9487050C94870530
:100020000C9487050C9487050C9487050C94870520
:100030000C9487050C9487050C9487050C94870510
:100040000C94F1170C9487050C94BF170C94991716
:100050000C9487050C9487050C9487050C948705F0
:100060000C943B180C94870500000000003E5B4F89
:100070005B3E3E6B4F6B3E1C3E7C3E1C183C7E3C08
:10008000181C577D571C1C5E7F5E1C00183C180016
:10009000FFE7C3E7FF0018241800FFE7DBE7FF30A6
:1000A000483A060E2629792926407F050507407F14
:1000B00005253F5A3CE73C5A7F3E1C1C08081C1C87
:1000C0003E7F14227F22145F5F005F5F06097F017D
:1000D0007F006689956A606060606094A2FFA29468
:1000E00008047E040810207E201008082A1C080836
:1000F0001C2A08081E101010100C1E0C1E0C303884
:100100003E3830060E3E0E06000000000000005F84
:1001100000000007000700147F147F14242A7F2AA0
:100120001223130864623649562050000807030062
:10013000001C2241000041221C002A1C7F1C2A08AE
:10014000083E080800807030000808080808000011
:1001500060600020100804023E5149453E00427F85
:10016000400072494949462141494D331814127FD4
:100170001027454545393C4A494931412111090774
:100180003649494936464949291E000014000000F5
:1001900040340000000814224114141414140041C7
:1001A00022140802015909063E415D594E7C121184
:1001B000127C7F494949363E414141227F414141BC
:1001C0003E7F494949417F090909013E4141517337
:1001D0007F0808087F00417F41002040413F017FA8
:1001E000081422417F404040407F021C027F7F0470
:1001F00008107F3E4141413E7F090909063E4151B9
:10020000215E7F09192946264949493203017F01A8
:10021000033F4040403F1F2040201F3F4038403FA9
:10022000631408146303047804036159494D4300BF
:100230007F4141410204081020004141417F0402F6
:10024000010204404040404000030708002054548D
:1002500078407F284444383844444428384444286B
:100260007F385454541800087E090218A4A49C78BE
:100270007F0804047800447D40002040403D007F1A
:100280001028440000417F40007C047804787C08FA
:100290000404783844444438FC18242418182424CE
:1002A00018FC7C08040408485454542404043F44B3
:1002B000243C4040207C1C2040201C3C4030403CE2
:1002C00044281028444C9090907C4464544C440042
:1002D00008364100000077000000413608000201A6
:1002E0000204023C2623263C1EA1A161123A404092
:1002F000207A38545455592155557941225454780F
:1003000042215554784020545579400C1E527212A7
:100310003955555559395454545939555454580030
:1003200000457C410002457D420001457C407D1234
:1003300011127DF0282528F07C5455450020545496
:100340007C547C0A097F4932494949323A44444441
:100350003A324A4848303A4141217A3A424020787C
:10036000009DA0A07D3D4242423D3D4040403D3C7D
:1003700024FF2424487E4943662B2FFC2F2BFF09A2
:1003800029F620C0887E0903205454794100004496
:100390007D413048484A32384040227A007A0A0A81
:1003A000727D0D19317D2629292F282629292926F4
:1003B00030484D4020380808080808080808382F39
:1003C00010C8ACBA2F102834FA00007B00000814C3
:1003D0002A142222142A14085500550055AA55AA99
:1003E00055AAFF55FF55FF000000FF00101010FF39
:1003F00000141414FF001010FF00FF1010F010F094
:10040000141414FC001414F700FF0000FF00FF1484
:1004100014F404FC141417101F10101F101F1414D0
:10042000141F00101010F0000000001F101010101A
:100430001F10101010F010000000FF10101010100E
:1004400010101010FF10000000FF140000FF00FF4C
:1004500000001F10170000FC04F4141417101714E8
:1004600014F404F40000FF00F7141414141414140A
:10047000F700F7141414171410101F101F1414147D
:10048000F4141010F010F000001F101F0000001FE7
:1004900014000000FC140000F010F01010FF10FF1A
:1004A000141414FF141010101F00000000F010FFAF
:1004B000FFFFFFFFF0F0F0F0F0FFFFFF0000000093
:1004C00000FFFF0F0F0F0F0F3844443844FC4A4A17
:1004D0004A347E02020606027E027E0263554941CC
:1004E000633844443C04407E201E2006027E020203
:1004F00099A5E7A5991C2A492A1C4C7201724C3017
:100500004A4D4D303048784830BC625A463D3E49ED
:100510004949007E0101017E2A2A2A2A2A44445F91
:10052000444440514A444040444A51400000FF0185
:1005300003E080FF000008086B6B08361236243693
:10054000060F090F060000181800000010100030F8
:1005500040FF0101001F01011E00191D1712003C80
:100560003C3C3C0000000000000103070F1F3F7FE0
:100570000080C0E0F0F8FCFE00000008000201006E
:10058000000304070000000000000000000000005D
:10059000240027002A00DB40A4A62EAF2000A1C81B
:1005A000D300408DAED580A8010204081020408001
:1005B00001020408102001020408102000000000BD
:1005C000250028002B00040404040404040402028F
:1005D00002020202030303030303000060000000A1
:1005E0000000000000000000000000E0000000002B
:1005F00000000000000000000001E000000000001A
:10060000000000000000000001F0000000000000F9
:100610000000000000000003F000000000000000E7
:1006200000000000000007F00000000000000000D3
:10063000000000000007F8000000000000000000BB
:10064000000000000FF800000003C0007E00000161
:10065000E0007F0FF800000003C000FE000001E092
:1006600000FFEFF800000003C000FE000001E00002
:10067000FFFFF800000003C000F00000000F007F43
:10068000FE7FC0000003C000F00000000F003FFE2E
:100690007FF83FF1FBCFFCFEF3BC3DEFE01FFE7F98
:1006A000FF7FFBFFDFFEFEFFBC3DEFE01FC6FFFF4D
:1006B0007FFBFFDFFEFEFFBC3DEFE00FE3C7FE78F0
:1006C0007BC3DE1EF0FFBC3DEF0007FF87FC787B9D
:1006D000C3DE1EF0F83C3DEF0001FFFFF0007BC3DE
:1006E000C01EF0F03C3DEF0001F37FE03FFBC3CFC5
:1006F000FEF0F03C3DEF0003E33F807FFBC3DFFEF5
:10070000F0F03C3DEF0007E73C00787BC3DE1EF0D5
:10071000F03C3DEF0007FFBE00787BC3DE1EF0F02B
:100720003C3DEF0007FFFE00787BC3DE1EF0F03C8F
:100730003DEF000FFFFE007FFBFFDFFEF0F03FFD0F
:10074000EFE00FFFFF007FFBFFDFFEF0F03FFDEF6C
:10075000E00FF9FF003E79F9CF9EF0F01F3DE7E092
:100760001FF1FF0000000000000000000000001F5B
:1007700080FF007FFFFFFFFFFFFFFFFFFFE01C0088
:100780007F007FFFFFFFFEB46D888D18E000001F23
:10079000007FFFFFFFFE95AD7DB577E000000F0005
:1007A0007FFFFFFFFEA5AD9D8D19E0000006007FD5
:1007B000FFFFFFFEB5ADEDB57EE0000000000001DB
:1007C0008000000000000000000003800000000026
:1007D000000000000007C000000000000000000052
:1007E00007C00000000000000000000FC000000073
:1007F0000000000000001FE00000000000000000FA
:10080000001FE00000000000000000003FE00000CA
:10081000000000000000003FF000000000000000A9
:1008200000007FF0000000000000001FF87FF000D3
:100830000000000000003FFE7FF00000000000000C
:10084000003FFF7FF0000000000000001FFFFBE002
:10085000000000000000000FFFF9FFC000000000D2
:1008600000000FFFF9FFF800000000000007FFF193
:10087000FFFF00000000000003FC73FFFF8000008A
:1008800000000001FE3FFFFF80000000000000FFAD
:100890001E0FFF000000000000007FFE1FFC000094
:1008A00000000000003FFFFFF80000000000000013
:1008B0000FDFFFE0000000000000001F19FFC00074
:1008C0000000000000003F3CFF00000000000000AE
:1008D000007E7CF800000000000000007FFE7C002D
:1008E00000000000000000FFFFFC0000000000000E
:1008F0000000FFFFFE0000000000000000FFFFFE00
:100900000000000000000001FFEFFE0000000000FA
:10091000000001FFCFFE0000000000000003FF0701
:10092000FE0000000000000003FC07FE00000000C5
:1009300000000003F003FE00000000000000018042
:1009400000FE000000000000000000007E0000002B
:10095000000000000000003E000000000000000059
:1009600000000C000000000000078000FC000003F5
:10097000C0000000078001FC000003C00000000769
:100980008001FC000003C0000000078001E00000BF
:10099000001E000000078001E00000001E007FE351
:1009A000F79FF9FDE7787BDFC0FFF7FFBFFDFDFF95
:1009B000787BDFC0FFF7FFBFFDFDFF787BDFC0F076
:1009C000F787BC3DE1FF787BDE00F0F787BC3DE1B7
:1009D000F0787BDE0000F787803DE1E0787BDE0089
:1009E0007FF7879FFDE1E0787BDE00FFF787BFFDA3
:1009F000E1E0787BDE00F0F787BC3DE1E0787BDE6C
:100A000000F0F787BC3DE1E0787BDE00F0F787BCC3
:100A10003DE1E0787BDE00FFF7FFBFFDE1E07FFB1B
:100A2000DFC0FFF7FFBFFDE1E07FFBDFC07CF3F33A
:100A30009F3DE1E03E7BCFC00000000000000000D1
:100A4000000000FFFFFFFFFFFFFFFFFFFFC0FFFFF2
:100A5000FFFFFD68DB111A31C0FFFFFFFFFD2B5ABE
:100A6000FB6AEFC0FFFFFFFFFD4B5B3B1A33C0FF8C
:100A7000FFFFFFFD6B5BDB6AFDC053534431333036
:100A80003620616C6C6F636174696F6E206661699A
:100A90006C65640030333A30333A3539004465636D
:100AA0002032302032303232002200FF21001F1C61
:100AB0001F1E1F1E1F1F1E1F1E007019D725112469
:100AC0001FBECFEFD8E0DEBFCDBF24E0A4E2B2E08E
:100AD00001C01D92A23AB207E1F712E0A0E0B1E036
:100AE000EAEEFEE402C005900D92A432B107D9F7F8
:100AF00015E0CEE5D5E004C02197FE010E94312625
:100B0000CD35D107C9F70E94061B0C9468270C94B9
:100B10000000FC0180E197E2A0E0B0E080839183D7
:100B2000A283B3832FB7F8948091E6029091E702F5
:100B3000A091E802B091E9022FBF84839583A68338
:100B4000B78381E0808711860895089508950895F8
:100B5000AF92BF92CF92DF92EF92FF920F931F93CB
:100B6000CF93DF936C017B018B01040F151FEB0109
:100B70005E01AE18BF08C017D10759F06991D601C0
:100B8000ED91FC910190F081E02DC6010995892B32
:100B900079F7C501DF91CF911F910F91FF90EF90F1
:100BA000DF90CF90BF90AF900895FC01538D448D9E
:100BB000252F30E0842F90E0821B930B541710F008
:100BC000CF96089501970895FC01918D828D981715
:100BD00061F0A28DAE0FBF2FB11D5D968C91928DED
:100BE0009F5F9F73928F90E008958FEF9FEF08951E
:100BF000FC01918D828D981731F0828DE80FF11DE7
:100C0000858D90E008958FEF9FEF0895FC01918D01
:100C1000228D892F90E0805C9F4F821B91098F73FA
:100C2000992708958AEE92E00E94060621E0892B1A
:100C300009F420E0822F089580E090E0892B29F0CC
:100C40000E94120681110C9400000895FC01A48DED
:100C5000A80FB92FB11DA35ABF4F2C91848D90E0DE
:100C600001968F739927848FA689B7892C93A089C1
:100C7000B1898C91837080648C93938D848D98134B
:100C800006C00288F389E02D80818F7D80830895DE
:100C9000EF92FF920F931F93CF93DF93EC0181E0CC
:100CA000888F9B8D8C8D98131AC0E889F989808173
:100CB00085FF15C09FB7F894EE89FF896083E889A6
:100CC000F98980818370806480839FBF81E090E098
:100CD000DF91CF911F910F91FF90EF900895F62E25
:100CE0000B8D10E00F5F1F4F0F731127E02E8C8DBF
:100CF0008E110CC00FB607FCFACFE889F989808104
:100D000085FFF5CFCE010E942606F1CFEB8DEC0FCB
:100D1000FD2FF11DE35AFF4FF0829FB7F8940B8F20
:100D2000EA89FB8980818062CFCFCF93DF93EC018A
:100D3000888D8823B9F0AA89BB89E889F9898C91C3
:100D400085FD03C0808186FD0DC00FB607FCF7CF7F
:100D50008C9185FFF2CF808185FFEDCFCE010E947F
:100D60002606E9CFDF91CF91089590E0FC01E85885
:100D7000FA4F2491FC01E855FA4F3491FC01EA53F3
:100D8000FA4FE491EE23C9F0222339F0233001F128
:100D9000A8F4213019F1223029F1F0E0EE0FFF1F05
:100DA000E454FA4FA591B4918FB7F894EC91611186
:100DB00026C030953E233C938FBF08952730A9F07D
:100DC0002830C9F0243049F7809180008F7D03C01E
:100DD000809180008F7780938000DFCF84B58F77FC
:100DE00084BDDBCF84B58F7DFBCF8091B0008F7742
:100DF0008093B000D2CF8091B0008F7DF9CF3E2B91
:100E0000DACFCF93DF9390E0FC01E855FA4F2491BD
:100E10008A539A4FFC0184918823D1F090E0880F87
:100E2000991FFC01E457FA4FA591B491FC01E454D9
:100E3000FA4FC591D491623071F49FB7F8943C9108
:100E4000822F809583238C93E8812E2B28839FBF4C
:100E5000DF91CF9108958FB7F894EC912E2B2C93BE
:100E60008FBFF6CF3FB7F8948091690290916A02E4
:100E7000A0916B02B0916C0226B5A89B05C02F3FD4
:100E800019F00196A11DB11D3FBFBA2FA92F982FB0
:100E90008827BC01CD01620F711D811D911D42E0AB
:100EA000660F771F881F991F4A95D1F708958F9273
:100EB0009F92AF92BF92CF92DF92EF92FF926B011F
:100EC0007C010E9432074B015C01C114D104E10492
:100ED000F104B9F00E943207681979098A099B095F
:100EE000683E73408105910580F321E0C21AD10864
:100EF000E108F10888EE880E83E0981EA11CB11C61
:100F0000E4CFFF90EF90DF90CF90BF90AF909F9095
:100F10008F9008950F931F93FC018085811104C069
:100F200080E01F910F9108959185992319F0108603
:100F30001186F7CF9FB7F8944091E6025091E702EF
:100F40006091E8027091E9029FBF048115812681BA
:100F50003781401B510B620B730B00811181228181
:100F60003381401751076207730708F7D9CF0895F7
:100F700088EB93E00C94C10788EB93E00C94C407D2
:100F8000089590E080E0089590E080E00895FC01ED
:100F9000908190539A3008F090E0818180532AE04C
:100FA000929F800D11240895EF92FF920F931F934B
:100FB000CF93DF93EC01EC80FD806E157F050CF084
:100FC00070C057FF04C0240F351F50E040E08E81F1
:100FD0009F81FA01E20FF31F8E179F071CF49C01FB
:100FE000241B350B121613060CF05BC0922F842FB6
:100FF0008695869586958E9DD0018F9DB00D112486
:101000006A0F7B1FAF8DB8A1A60FB71F477049F1BC
:1010100088E0841B482F682F70E0FB01E059FA4FED
:10102000E491281708F063C0621B71092FEF30E0CC
:1010300002C0359527956A95E2F7E2230130110544
:1010400039F0B0F10230110561F58C91E82702C04A
:101050008C91E82BEC93941720F12C813D81A20F09
:10106000B31FE92FE41BE83078F00230110521F5B9
:101070008E2F9C9190959C932C813D81A20FB31F44
:1010800088508830B0F7E770EE2359F0F0E0E85967
:10109000FA4FE49101301105F9F010F10230110519
:1010A00019F1DF91CF911F910F91FF90EF9008956B
:1010B000E0958C91E823CECF81E00115110509F46C
:1010C00080E081959E2F8C932C813D81A20FB31FD0
:1010D00098509830C0F7D7CF8C91E82BEC93E1CFA4
:1010E000E0958C91E823FACF8C91E827F7CF013077
:1010F000110509F4ADCFE0F20230110509F4A5CFD6
:10110000AE0DBF1DAECF0F931F93CF93DF9377FF2D
:1011100004C0260F371F70E060E0DC011496CD910B
:10112000DC91FB01E20FF31FCE17DF071CF49E01D9
:10113000261B370B121613064CF5FA0157FD37968E
:10114000A3E0F595E795AA95E1F7EC9FD001ED9F17
:10115000B00DFC9FB00D11246A0F7B1FDC015F9660
:10116000ED91FC91E60FF71F4770552781E090E065
:1011700001C0880F4A95EAF7482F0130110559F050
:10118000A8F02E0F3F1F02301105E1F0DF91CF9143
:101190001F910F9108952E0F3F1FE217F307B1F330
:1011A0008191DF011197842B8C93F7CF80952E0FBF
:1011B0003F1FE217F30751F39191DF011197982335
:1011C0009C93F7CFE217F30709F38191DF011197A1
:1011D00084278C93F7CF0F931F93FA01DC01569667
:1011E0004C9156974230E9F04330A1F1413061F51E
:1011F00014964D915C91DA01AE1BBF0BFD01E21B11
:10120000F30B77FD0BC0DC0116964D915C916417D2
:10121000750724F4AB01BF010E9483081F910F9151
:10122000089514964D915C91DA01A61BB70BBD0190
:1012300061507109DC0116964D915C91DA01AE1B8B
:10124000BF0BFD01E21BF30B77FDE8CFAF010E945E
:10125000D407E4CF16964D915C91DA01A61BB70B2B
:10126000BD0161507109CDCF0F931F93FA01DC01CD
:1012700056964C9156974230A9F0433091F1413047
:1012800019F514964D915C91DA01AE1BBF0BFD016F
:101290003197F7FD04C0AB01BF010E94D4071F9135
:1012A0000F91089514964D915C91DA01A61BB70B2E
:1012B000BD01DC0116964D915C91DA01AE1BBF0BAE
:1012C000FD013197621B730BF7FDE9CFDC01169628
:1012D0004D915C91E417F50714F7AF010E94830864
:1012E000DECF16964D915C91DA01A61BB70BBD01BE
:1012F000621B730BCECFFC0177FD64C080859185A6
:10130000681779070CF05EC057FD5CC08285938535
:10131000481759070CF056C086898230B1F08330E7
:1013200029F1813041F484819581841B950BAB01B7
:10133000BC01615071092130310509F108F443C045
:101340002230310509F463C0089584819581DC0160
:10135000A61BB70BBD016150710986819781DC0125
:10136000A41BB50BAD0141505109E5CF8681978192
:10137000861B970BBA01AC0141505109DCCFCA0161
:1013800057FD0796A3E095958795AA95E1F7A48167
:10139000B5818A9F90018B9F300D9A9F300D11244B
:1013A000620F731F078CF0A1E02DE60FF71F477047
:1013B000552721E030E001C0220F4A95EAF78081ED
:1013C000822B80830895CA0157FD079633E09595D7
:1013D00087953A95E1F7A481B5818A9F90018B9F0B
:1013E000300D9A9F300D1124620F731F078CF0A1EE
:1013F000E02DE60FF71F4770552781E090E001C010
:10140000880F4A95EAF7809590818923DACFCA013F
:1014100057FD079623E0959587952A95E1F7A481D6
:10142000B5818A9F90018B9F300D9A9F300D1124BA
:10143000620F731F078CF0A1E02DE60FF71F4770B6
:10144000552721E030E001C0220F4A95EAF780815C
:101450008227B7CF08958EBD00000DB407FEFDCFE3
:101460008EB508958CBD9DBD08950895FC016370EF
:10147000668B8481958126813781613039F06330B4
:1014800029F09187808733872287089531872087C5
:101490009387828708952F923F924F925F926F9227
:1014A0007F928F929F92AF92BF92CF92DF92EF92F4
:1014B000FF920F931F93CF93DF93CDB7DEB76A9759
:1014C0000FB6F894DEBF0FBECDBF9A8F898F7A8397
:1014D00069834A01D22E18870F833701BC2CDC01A7
:1014E00059962D913C915A972115310509F015C156
:1014F00018968D919C911997681779070CF0D7C1B0
:101500001A968D919C91481759070CF0D0C14C2C1C
:10151000512CB6E0CB9E600D711D11247C876B872A
:10152000161617060CF0C3C1EA2DF0E0FA87E9871A
:1015300093E0EE0FFF1F9A95E1F7F88BEF87CF014D
:10154000840F951F181619060CF0B1C1A98DBA8D1C
:1015500058968C91811104C0BFEABD1508F4D3944C
:10156000A98DBA8DED91FC9111970284F385E02D40
:10157000CD010995B5E0DB9EC0011124E981FA8116
:10158000FC83EB83312C212C9C0128593F4F388F51
:101590002F8B4A2D50E05E8B4D8BEF89F88DE20D3D
:1015A000F31D44919E828D82D12CC12C69817A8158
:1015B000620D731D7A8B698B842F90E09C8B8B8BD3
:1015C000E98DFA8DA081B18140FF82C0F1E0BF12A8
:1015D0006FC0AF126DC01C96ED91FC912F813885C4
:1015E000A4014C0D5D1D69897A89898D9A8D0995B3
:1015F000EB89FC89F595E7954E2F5FEFC51AD50A63
:101600006D817E818D899E89680F791F7E836D83B0
:1016100098E0C916D10481F6AFEF2A1A3A0AEB8195
:10162000FC81E40DF51DFC83EB83F5E02F163104FE
:1016300009F0B3CF2F81388526153705B9F0A98D6C
:10164000BA8DED91FC91B1E0BB1257C0AB1255C001
:1016500069817A816B5F7F4F0088F189E02D83017A
:1016600028E030E0A401898D9A8D0995A98DBA8D65
:10167000ED91FC9111970688F789E02DCD016A96CE
:101680000FB6F894DEBF0FBECDBFDF91CF911F9193
:101690000F91FF90EF90DF90CF90BF90AF909F9011
:1016A0008F907F906F905F904F903F902F90099414
:1016B0001E96ED91FC91EF80F88409851A859201C0
:1016C0004D815E816B817C81898D9A8D099590CF4A
:1016D0002F8138852615370509F48ACF31E0B312FA
:1016E00007C0A31205C01C96ED91FC91930178CF21
:1016F0001E96ED91FC917301E0CF6B857C8564199A
:1017000075090684F785E02D73010F85188992010C
:10171000A401898D9A8D0995A9CFF90134969491E8
:10172000329745915491D91AB7E0DB9E400D511D77
:101730001124F901259134913C8B2B8BFA012590D2
:101740003490FA013296749031963491398B3296F6
:1017500064903196449041E04C1518F04A1508F019
:101760007FC0662D062C000C770B7C836B83842D49
:10177000042C000C990B9E838D83A98DBA8DED915D
:10178000FC9111970284F385E02DCD010995512C30
:10179000D12CC12CEA2DF0E0FA87E9872B2D30E01F
:1017A0003C872B87A401440D511D47FC5A95588F47
:1017B0004F8B69817A81660D711D67FC7A957E87F2
:1017C0006D877989C71608F051CF2C2D30E04D81F7
:1017D0005E81420F531FA985BA854A9FC0014B9F66
:1017E000900D5A9F900D1124FC01E80DF91DF88B06
:1017F000EF87852D612C4F89588D420F531F5E8BCB
:101800004D8B671408F050C044244394480E8770F1
:1018100041F4C1010196EB89FC89E20DF31DD490DE
:101820001C01D7FE19C0A98DBA8DED91FC91662DD2
:1018300070E0B1E0BB1219C0AB1217C02D853E8518
:10184000620F731F0484F585E02D2F8138854D8943
:101850005E89898D9A8D0995DD0C6394842DD1CF95
:101860001E821D821C821B8288CF4B815C81640F8B
:10187000751FAB85BC856A9FC0016B9F900D7A9FD9
:10188000900D112469817A81680F791F0684F7858C
:10189000E02DEF80F88409851A859D014F855889D0
:1018A000898D9A8D0995D8CF570CC3948ACF6A96A3
:1018B0000FB6F894DEBF0FBECDBFDF91CF911F9161
:1018C0000F91FF90EF90DF90CF90BF90AF909F90DF
:1018D0008F907F906F905F904F903F902F900895E2
:1018E0008F929F92AF92CF92EF92FF920F931F939E
:1018F000CF93DF93EC01262F898D9A8D009709F005
:1019000051C06A30D1F41D861C868D8948E0849FC1
:10191000900111248E859F85820F931F9F878E874C
:1019200081E090E0DF91CF911F910F91FF90EF90B8
:10193000CF90AF909F908F9008956D3089F3CC88B1
:10194000AD888F898823C1F08C859D8536E0C39E44
:10195000800D911D1124488559854817590764F455
:101960004E855F851D861C8638E0A39EC00111242C
:10197000840F951F9F878E87EA88FB8808891989BD
:101980004E855F856C857D85CE010E944B0A2C8932
:101990008C859D8546E0249F800D911D11249D8797
:1019A0008C87BECF6A3069F41D861C86FC01389690
:1019B000E4912D898E859F85E29F800D911D1124D4
:1019C000ADCF6D3009F4ACCFFC0134963491631780
:1019D00008F4A6CF3296E491E61708F4A1CFFC01F3
:1019E000329685909490462F431B342F47E0349FC6
:1019F000800C911C1124F401329634913196E491BB
:101A00003323A9F1EE2399F1CC88F4013596E491C2
:101A1000AD884F89442301F10E2E000CFF0BE30F1C
:101A2000F11DCE9EA001CF9E500D11246C857D85A9
:101A3000460F571F68857985641775076CF44E85C6
:101A40005F851D861C86FC013896E491AE9E400D94
:101A5000511D11245F874E87EA88FB880889198900
:101A60004E855F856C857D85CE010E944B0AF40111
:101A70003496E4912C898C859D85E29F800D911D83
:101A800011248DCF6F927F928F929F92AF92BF92CF
:101A9000CF92DF92EF92FF920F931F93CF93DF933A
:101AA000EC016B015A0139014801E881F981028496
:101AB000F385E02D0995E881F9810288F389E02D0D
:101AC00087019301A501B601CE010995A501480D35
:101AD000591D41505109E881F9810288F389E02DAF
:101AE0009301B601CE010995E881F9810088F18959
:101AF000E02D9401A501B601CE010995C60CD71CB5
:101B0000B60161507109E881F9810088F189E02D01
:101B10009401A501CE010995E881F9810688F7892C
:101B2000E02DCE01DF91CF911F910F91FF90EF90AB
:101B3000DF90CF90BF90AF909F908F907F906F90ED
:101B400009946F927F928F929F92AF92BF92CF92A1
:101B5000DF92EF92FF920F931F93CF93DF935C017D
:101B6000EB016A01490138018701DC01ED91FC912B
:101B70006217730719F5641675062CF0962D872DDC
:101B80003A01C92ED82E9601261937092F5F3F4FEB
:101B9000048CF58DE02DA301BE01C5010995DF91EF
:101BA000CF911F910F91FF90EF90DF90CF90BF905A
:101BB000AF909F908F907F906F9008954615570536
:101BC00091F42617370724F0892D4B01C22FD82F07
:101BD0009E01281939092F5F3F4F068CF78DE02DA4
:101BE000A601B401DACF0284F385E02D0995D50171
:101BF000ED91FC910488F589E02D83019401A60103
:101C0000BE01C5010995D501ED91FC910688F789C2
:101C1000E02DC501DF91CF911F910F91FF90EF90C3
:101C2000DF90CF90BF90AF909F908F907F906F90FC
:101C30000994EF92FF920F931F93DC011A960D9176
:101C40001C911B9718962D913C911997ED91FC9141
:101C500000A0F1A1E02D7B0150E040E070E060E0E9
:101C600009951F910F91FF90EF9008954F925F9209
:101C70006F927F928F929F92AF92BF92CF92DF929C
:101C8000EF92FF920F931F93CF93DF936C012B0181
:101C90005A0139014801DC01ED91FC910284F38580
:101CA000E02D0995E201640C751CD601ED91FC91C3
:101CB000C615D7055CF40088F189E02D87019401F1
:101CC000A501BE01C60109952196EFCF0688F789C7
:101CD000E02DC601DF91CF911F910F91FF90EF9002
:101CE000DF90CF90BF90AF909F908F907F906F903C
:101CF0005F904F9009948F929F92AF92BF92CF9234
:101D0000DF92EF92FF920F931F93CF93DF93EC013B
:101D10005B014A016901E881F9810284F385E02DC4
:101D2000099595012C0D3D1D21503109E881F9815E
:101D30000488F589E02D78018401A401B501CE0164
:101D40000995E881F9810688F789E02DCE01DF91B8
:101D5000CF911F910F91FF90EF90DF90CF90BF90A8
:101D6000AF909F908F9009948F929F92AF92BF9265
:101D7000CF92DF92EF92FF920F931F93CF93DF9357
:101D8000EC015B014A0169017801E881F981028473
:101D9000F385E02D0995C80CD91C86010150110965
:101DA000E881F9810488F589E02D9501A401B50148
:101DB000CE010995E881F9810688F789E02DCE01E9
:101DC000DF91CF911F910F91FF90EF90DF90CF9017
:101DD000BF90AF909F908F900994EF92FF920F93D6
:101DE0001F93DC01ED91FC9100A0F1A1E02D09957C
:101DF0001F910F91FF90EF9008950F931F93DC01B7
:101E0000ED91FC91068CF78DE02D09951F910F91B6
:101E100008950F931F93DC01ED91FC91048CF58DD7
:101E2000E02D09951F910F910895DC01ED91FC9132
:101E30000084F185E02D09943F924F925F926F925A
:101E40007F928F929F92AF92BF92CF92DF92EF924A
:101E5000FF920F931F93CF93DF935C017B014A01A5
:101E60006901390187E0680E711C93E075946794ED
:101E70009A95E1F72B01400E511E10E000E0312C45
:101E8000D0E0C0E0CE0187709927330C892B59F43C
:101E9000FE0183E0F595E7958A95E1F7E00FF11FE4
:101EA000E80DF91D349037FE0AC021E030E0A701AB
:101EB000B5016C0F7D1F8EEC93E00E94150F2196EB
:101EC000CC16DD06F9F68FEFE81AF80A060D171D95
:101ED000E414F504A9F6DF91CF911F910F91FF90C3
:101EE000EF90DF90CF90BF90AF909F908F907F90BA
:101EF0006F905F904F903F9008952F923F924F9236
:101F00005F926F927F928F929F92AF92BF92CF9289
:101F1000DF92EF92FF920F931F93CF93DF9300D046
:101F200000D000D0CDB7DEB73C016A013E832D83DF
:101F3000FC82EB825801A41AB50AB7FE03C0B19423
:101F4000A194B1088D809E80861A970A97FE03C0DF
:101F50009194819491088A149B045CF0902F812FB6
:101F60000D811E819D838E839C2D8D2D6B01692F8C
:101F7000782F0C151D055CF09D818E817E836D830D
:101F8000692F782F902F812F8601C92ED82E160108
:101F9000201A310A2B012D813E81421A530A57FE25
:101FA00003C0519441945108710137FE03C03FEFC3
:101FB000E31AF30AF594E7948D819E8186179707BB
:101FC0005CF5A1E0B0E0BA83A983C016D1064CF15C
:101FD000D301ED91FC910484F585E02D2B813C81AA
:101FE000A8016D817E818A149B041CF04D815E8165
:101FF000B801C3010995E418F508F7FE0AC02D8160
:102000003E8189819A81280F391F3E832D83E20CFE
:10201000F31C0F5F1F4FD9CF2FEF3FEF3A83298378
:10202000D4CF26960FB6F894DEBF0FBECDBFDF919A
:10203000CF911F910F91FF90EF90DF90CF90BF90C5
:10204000AF909F908F907F906F905F904F903F9058
:102050002F90089520914502260F3327331F2132F8
:102060003105ECF42091BC02FC0190E080E02430CA
:1020700069F082E00895A09145022191AC014B5D89
:102080005D4FA40FB52FB11D2C930196861798F3C1
:1020900080914502680F6093450280E0089581E0D9
:1020A00008951092BC0281E08093BB0210929602C8
:1020B00061E082E10E94B50661E083E10E94B5061D
:1020C000E9EBF0E080818E7F808380818D7F80834B
:1020D00088E48093B80085E48093BC000895109252
:1020E0009502109294021092C3021092E5020E948F
:1020F000511085EA95E0909393028093920286EACC
:1021000095E090939102809390020895CF93DF938E
:1021100091E0909324028823B9F0C091B800D09147
:10212000BA008091BC008A7B8093BC0060E082E1B1
:102130000E94B50660E083E10E94B5060E9451103E
:10214000D093BA00C093B800DF91CF9108958F92D9
:102150009F92AF92BF92CF92DF92EF92FF920F9336
:102160001F93CF93DF93D091E502D13208F0D7C00F
:10217000182FC091E4020E9432076B017C0180910C
:10218000BC0281116BC082E08093BC021093BB0241
:102190008FEF8093BA021092B902D093B802A4ECE8
:1021A000B2E0E8E9F2E080E0D81391C01092970223
:1021B00080919702CC0FC82BC09397028091960212
:1021C000813009F088C0109296020E9432076B019C
:1021D0007C01809197028093BB008091BE02909118
:1021E000BF02A091C002B091C102892B8A2B8B2B18
:1021F000A1F00E9432070091BE021091BF0220910F
:10220000C0023091C1026C197D098E099F09061721
:1022100017072807390708F442C08091BC0083FDE6
:10222000D8CF85EC8093BC000E9432076B017C0103
:102230008091BC02823009F450C08091BA028F3F75
:1022400009F46FC08091BA02803209F46CC08091A9
:10225000BA02803309F469C084E026C08091BE02CE
:102260009091BF02A091C002B091C102892B8A2B2C
:102270008B2B09F484CF0E9432078090BE0290908D
:10228000BF02A090C002B090C1026C197D098E09F6
:102290009F0986169706A806B90608F070CF8091A8
:1022A000BD020E94861085E01092C3021092E502E2
:1022B0001092C202DF91CF911F910F91FF90EF908A
:1022C000DF90CF90BF90AF909F908F9008959D9199
:1022D00091938F5F69CF85EEA5CF8091BE029091DB
:1022E000BF02A091C002B091C102892B8A2B8B2B17
:1022F00009F49ECF0E9432070091BE021091BF02E6
:102300002091C0023091C1026C197D098E099F098C
:10231000061717072807390708F08ACFC0CF81E0D2
:10232000C3CF80E0C1CF82E0BFCF83E0BDCFE091DB
:10233000950280919402E81730F4F0E0E059FD4FE7
:10234000808190E008958FEF9FEF0895909195021E
:10235000809194022FEF3FEF981748F4E92FF0E0B7
:10236000E059FD4F208130E09F5F90939502C901B5
:1023700008958091940290919502891B990B08957C
:10238000CF92DF92EF92FF920F931F93CF93DF9341
:102390007C01CB018A012091C202222389F0EB014A
:1023A0006B01C40ED51ECC15DD0569F06991D7010E
:1023B000ED91FC910190F081E02DC7010995F3CFDB
:1023C000642F0E942A10C801DF91CF911F910F91B5
:1023D000FF90EF90DF90CF900895CF93DF931F92FF
:1023E000CDB7DEB769832091C2022223F9F0209194
:1023F000E502203258F021E030E0FC0133832283F3
:1024000090E080E00F90DF91CF9108958091C3021A
:10241000E82FF0E0EC53FD4F998190838F5F80931C
:10242000C3028093E50281E090E0ECCF61E0CE0151
:1024300001960E942A10F7CF81E00C94A710EF922A
:10244000FF920F931F93CF93DF937C01C62F809150
:10245000EB039091EC03009709F459C02091EF032E
:1024600031E03093C2022093E4021092C302109232
:10247000E502DC01ED91FC910190F081E02D60E03E
:1024800009958701EE24E394F12CD1E0C1508091AD
:10249000EB039091EC03CF3F91F1B0E2EB16F10426
:1024A000D8F00E941C128091EB039091EC032091D4
:1024B000EF03D093C2022093E4021092C302109261
:1024C000E502DC01ED91FC910190F081E02D60E0EE
:1024D0000995EE24E394F12C8091EB039091EC03A9
:1024E000F8016491DC01ED91FC910190F081E02D07
:1024F0000995BFEFEB1AFB0A0F5F1F4FC7CFDF91A4
:10250000CF911F910F91FF90EF900C941C12E091CE
:10251000FB03F091FC039081809101048095892355
:1025200080838701C15008F438C0F801849120915C
:10253000E9033091EA03232B29F00E942B0A0F5F55
:102540001F4FF0CF28E030E040E8E091F703F09132
:10255000F8039091FF03582F5423D9F05081952B05
:102560009083E091F903F091FA0390815091000477
:10257000952B9083E091F903F091FA0350819091AB
:102580000004909595239083469521503109E9F6F2
:10259000D6CF508190959523E3CFDF91CF911F91B6
:1025A0000F91FF90EF9008951F93CF93DF93EC016D
:1025B0008D8D9E8D009721F1162F29A131E030934A
:1025C000C2022093E4021092C3021092E502DC01E1
:1025D000ED91FC910190F081E02D60E009958D8DE9
:1025E0009E8DDC01ED91FC910190F081E02D612F39
:1025F00009958D8D9E8DDF91CF911F910C941C12AA
:10260000ADA5BEA59C918BA9809589238C938B8DBC
:102610009C8D892B31F0862FDF91CF911F910C94E7
:102620002B0A28E030E080E8A9A5BAA599A9462F91
:102630004823C1F04C91942B9C93ABA5BCA59C91D5
:102640004AA9942B9C93ABA5BCA54C919AA99095B3
:1026500094239C9386952150310931F7DF91CF91D6
:102660001F9108954C9190959423E6CFDF92EF92BD
:10267000FF920F931F93CF93DF938091EB03909181
:10268000EC03892B09F498C02091030430910404D1
:10269000409105045091060460E074E284EF90E0FC
:1026A0000E94EF252051310941095109569547955E
:1026B000379527952093B80065E089EA9AE00E9453
:1026C0001F126091D20361508EEC93E00E94D412ED
:1026D0002091D4033091D503C901079697FD079641
:1026E00033E0959587953A95E1F72091D2033091A3
:1026F000D303829F8001839F100D929F100D1124A0
:10270000C091ED03D091EE038091EB039091EC0327
:102710000C0F1D1F009709F48FC02091EF0331E0CB
:102720003093C2022093E4021092C3021092E50299
:10273000DC01ED91FC910190F081E02D60E40995C0
:10274000EE24E394F12CDD24D3948091EB0390915B
:10275000EC030C171D0709F446C0B0E2EB16F104B8
:10276000D8F00E941C128091EB039091EC03209111
:10277000EF03D092C2022093E4021092C30210929F
:10278000E502DC01ED91FC910190F081E02D60E427
:102790000995EE24E394F12C8091EB039091EC03E6
:1027A0006991DC01ED91FC910190F081E02D09959A
:1027B000BFEFEB1AFB0AC9CF8091E9039091EA03BE
:1027C000892B31F080910C0490910D040E94320A03
:1027D000E091FD03F091FE039081809102048095C9
:1027E0008923808369CF0E941C128091EB03909112
:1027F000EC03892B09F461C020910704309108048F
:102800004091090450910A0460E074E284EF90E082
:102810000E94EF25205131094109510956954795EC
:10282000379527952093B800DF91CF911F910F9195
:10283000FF90EF90DF900895E091FB03F091FC038F
:10284000808190910104892B80830C171D0769F208
:1028500089912091E9033091EA03232B19F00E941A
:102860002B0AF3CF28E030E040E8E091F703F09145
:10287000F8039091FF03582F5423D9F05081952BE2
:102880009083E091F903F091FA0390815091000454
:10289000952B9083E091F903F091FA035081909188
:1028A0000004909595239083469521503109E9F6CF
:1028B000CCCF508190959523E3CFE091FD03F0912B
:1028C000FE03808190910204892B8083ADCF1F93FA
:1028D000CF93DF93EC01162F8D8D9E8D892BB1F157
:1028E0002DA93EA94FA958AD60E074E284EF90E0B5
:1028F0000E94EF252051310941095109569547950C
:10290000379527952093B80066EA111167EACE0142
:102910000E94D4128D8D9E8D892B41F129AD3AAD47
:102920004BAD5CAD60E074E284EF90E00E94EF2577
:1029300020513109410951095695479537952795F9
:102940002093B800DF91CF911F9108958B8D9C8DBE
:10295000892B21F08EAD9FAD0E94320AEFA5F8A918
:1029600090818CA9809589238083CECFEFA5F8A98B
:1029700080819CA9892B8083E5CFCF93DF93EC01E5
:102980008B818823A9F089819A81288131E0309355
:10299000C2022093E4021092C3021092E5020E9448
:1029A0001C1291E0811190E0892FDF91CF91089561
:1029B0000E946F1081E08B83CE010E94BD14982F7E
:1029C0008111E1CFF1CF90E080E00895CF93DF93C4
:1029D000EC0160E088810E94B5061986DF91CF91F5
:1029E0000895CF93DF93EC0161E088810E94B506E2
:1029F00081E089878C859D8501969D878C878A8556
:102A00009B8501969B878A87DF91CF9108952F92AE
:102A10003F924F925F926F927F928F929F92AF926E
:102A2000BF92CF92DF92EF92FF920F931F93CF93BB
:102A3000DF935C011B016A01F12CE12CD501149696
:102A40008D919C9186010E191F098017910708F43A
:102A50008C01F501D0810E9432072B013C0180914D
:102A6000BC02811172C0C02F013208F0C0E2F1E057
:102A7000F093BC0221E0C601801B910BE816F90619
:102A800008F420E02093BB028FEF8093BA021092EB
:102A9000B9028C0F8093B802A1E0A09397028091B5
:102AA0009702DD0FD82BD093970280919602813048
:102AB00009F090C0109296020E9432072B013C014F
:102AC000809197028093BB008091BE029091BF02DB
:102AD000A091C002B091C102892B8A2B8B2BA1F04F
:102AE0000E9432072091BE023091BF024091C00285
:102AF0005091C1026419750986099709261737078D
:102B00004807590708F442C08091BC0083FDD8CF24
:102B1000B5ECB093BC000E9432072B013C018091C0
:102B2000BC02813009F45AC08091B9028C1710F4AC
:102B3000C091B902A8E9B2E0E0E7F2E080E08C17CA
:102B400051F19D9191938F5FFACF8091BE02909148
:102B5000BF02A091C002B091C102892B8A2B8B2B9E
:102B600009F47DCF0E9432072091BE023091BF024E
:102B70004091C0025091C1026419750986099709F4
:102B8000261737074807590708F069CF8091BD021B
:102B90000E948610C0E010929502C0939402C01764
:102BA000110609F057C041018E0C9F1CE401CE01B3
:102BB000881999098017910798F5D50111968D917B
:102BC0009C91DC01ED91FC910284F385E02D099547
:102BD0008993EDCFE5EEE093BC009DCF8091BE02DE
:102BE0009091BF02A091C002B091C102892B8A2BA3
:102BF0008B2B09F494CF0E9432072091BE023091B2
:102C0000BF024091C0025091C10264197509860942
:102C10009709261737074807590708F080CFB6CF1E
:102C2000E00EF11EEC14FD0408F408CF81E0DF9102
:102C3000CF911F910F91FF90EF90DF90CF90BF90B9
:102C4000AF909F908F907F906F905F904F903F904C
:102C50002F90089580E0EBCF1F93CF93DF93DC019B
:102C60001496ED91FC91E417F50710F490E01FC065
:102C7000122FEA01FC0181819281208131E03093A1
:102C8000C2022093E4021092C3021092E502DC011A
:102C9000ED91FC910280F381E02D0995C817D907C9
:102CA00029F7812F0E94A71091E08111DFCF892F92
:102CB000DF91CF911F9108952091D4033091D503D6
:102CC000C901079697FD079623E0959587952A9564
:102CD000E1F72091D2033091D303829FA001839F1B
:102CE000500D929F500D112470E060E08091ED0333
:102CF0009091EE030C9461270E945C27FB010190E8
:102D00000020E9F73197AF01461B570BDC01ED912D
:102D1000FC910280F381E02D09948F929F92AF92F3
:102D2000BF92EF92FF920F931F93CF93DF93CDB794
:102D3000DEB7A1970FB6F894DEBF0FBECDBF7C0102
:102D4000FA01CB0119A2223008F42AE08E010F5DAE
:102D50001F4F822E912CB12CA12CBF01A5019401F3
:102D60000E94EF25F901CA016A300CF5605DD801B7
:102D70006E938D01232B242B252B79F790E080E097
:102D8000109721F0BD01C7010E947E16A1960FB6D3
:102D9000F894DEBF0FBECDBFDF91CF911F910F9191
:102DA000FF90EF90BF90AF909F908F900895695CD7
:102DB000DECFCF93DF93EC01EEECF3E081E0848B88
:102DC000858B81E090E0938B828B918B808B158635
:102DD000148689E190E0978786874B8150E070E008
:102DE00060E02AE0CF010E948D1662E671E08EEC71
:102DF00093E00E947E164C8150E070E060E02AE093
:102E00008EEC93E00E948D1662E671E08EEC93E00A
:102E10000E947E164D8150E070E060E02AE08EEC6A
:102E200093E0DF91CF910C948D16CF92DF92EF92C9
:102E3000FF92CF93DF936C01990FEE08FF08F7FE26
:102E400023C06DE28EEC93E00E94700CEC014427ED
:102E50005527BA014C195D096E097F092AE08EECED
:102E600093E00E948D16C80FD91F64E671E08EECC6
:102E700093E00E947E168C0F9D1FDF91CF91FF90F3
:102E8000EF90DF90CF9008952AE0B701A6018EEC75
:102E900093E00E948D16EC01E8CF0F931F93CF9320
:102EA000DF93EC010E947E168C0164E671E0CE0196
:102EB0000E947E16800F911FDF91CF911F910F917D
:102EC000089585ED8093BC008091BE029091BF0271
:102ED000A091C002B091C1020796A11DB11D23E0CF
:102EE000B695A795979587952A95D1F72091BC001F
:102EF00024FD03C01092BC0208954091BE0250917F
:102F0000BF026091C0027091C102452B462B472B36
:102F100069F30097A105B10541F02AE22A95F1F77E
:102F200000C00197A109B109E1CF8091BD020C94C5
:102F300086101F920F920FB60F9211242F933F937A
:102F40004F935F936F937F938F939F93AF93BF93B1
:102F5000EF93FF938AEE92E00E942606FF91EF9195
:102F6000BF91AF919F918F917F916F915F914F91A1
:102F70003F912F910F900FBE0F901F9018951F92A9
:102F80000F920FB60F9211242F938F939F93EF936D
:102F9000FF93E091FA02F091FB028081E09100033F
:102FA000F091010382FD1BC09081809103038F5F2C
:102FB0008F7320910403821741F0E0910303F0E046
:102FC000E651FD4F958F80930303FF91EF919F9101
:102FD0008F912F910F900FBE0F901F9018958081A9
:102FE000F4CF1F920F920FB60F9211242F933F939D
:102FF0008F939F93AF93BF938091E6029091E702E6
:10300000A091E802B091E9023091680223E0230F19
:103010002D3758F50196A11DB11D209368028093AC
:10302000E6029093E702A093E802B093E902809150
:10303000690290916A02A0916B02B0916C020196B4
:10304000A11DB11D8093690290936A02A0936B0247
:10305000B0936C02BF91AF919F918F913F912F914F
:103060000F900FBE0F901F90189526E8230F029621
:10307000A11DB11DD2CF1F920F920FB60F92112436
:103080002F933F934F935F936F937F938F939F9370
:10309000AF93BF93EF93FF938091B900887F803601
:1030A00009F44AC0F0F5883209F4A7C018F5803158
:1030B00009F49BC0B8F4882309F4F9C0883009F4F6
:1030C00094C0FF91EF91BF91AF919F918F917F91AC
:1030D0006F915F914F913F912F910F900FBE0F9085
:1030E0001F901895883109F488C0803251F7809379
:1030F000BA0214C0803409F49DC040F48033B9F39F
:103100008833F9F68093BA0285ECB0C0803509F4B3
:1031100085C0883509F496C0883499F60E946117F5
:10312000D0CF883909F48CC038F5883729F050F4AD
:10313000883611F0803729F683E08093BC02109224
:10314000670257C0883809F47BC0803919F080388D
:1031500009F0B7CF80916702803208F071C0E0912A
:10316000670281E08E0F809367028091BB00F0E0E0
:10317000E95BFD4F80833DC0803B39F0E0F4803A4D
:1031800009F479C0883A09F09CCF84E08093BC02AE
:103190001092460210924502E0919202F091930241
:1031A00009958091450281110FC081E0809345020D
:1031B0001092250209C0803C09F4A6CF883C09F48E
:1031C000A3CF883B09F07DCFE091460281E08E0FCE
:1031D00080934602F0E0EB5DFD4F80818093BB0061
:1031E000909146028091450229C080919702809378
:1031F000BB0085EC8093BC0064CF9091B9028091B4
:10320000B802981758F5E091B90281E08E0F8093CB
:10321000B902F0E0E856FD4F8081E9CFE091B902B4
:1032200081E08E0F8093B9028091BB00F0E0E856F8
:10323000FD4F80839091B9028091B8029817C8F22F
:1032400085E8D8CFE091B90281E08E0F8093B90272
:103250008091BB00F0E0E856FD4F80838091BB0277
:1032600081115CCF81E08093960284EA8093BC0058
:103270001092BC0226CF85EC8093BC001092BC0259
:1032800080916702803230F4E0916702F0E0E95B00
:10329000FD4F10826091670270E0E0919002F09122
:1032A000910287E492E00995109267020ACF10928A
:1032B000BA0234CFCF93DF93EC01862F688361E0AD
:1032C0000E94010760E088810E94B50619861B8272
:1032D0001C821D821E821F821A82DF91CF91089567
:1032E0001092ED021092EC0288EE93E0A0E0B0E0C4
:1032F0008093EE029093EF02A093F002B093F1025C
:103300002AE031E03093EB022093EA0225EC30E032
:103310003093F7022093F60224EC30E03093F90268
:103320002093F80220EC30E03093FB022093FA0265
:1033300021EC30E03093FD022093FC0222EC30E0DF
:103340003093FF022093FE0226EC30E0309301031D
:1033500020930003109203031092040310920503BC
:103360001092060348E853E160E070E04093AA033E
:103370005093AB036093AC037093AD031092B6030C
:103380001092B2031092B3031092B4031092B503DB
:103390001092B7031092890310928803109287034A
:1033A0001092BB031092BA032CE131E03093B903C1
:1033B0002093B8031092C5031092C4038093C603F0
:1033C0009093C703A093C803B093C90388E291E028
:1033D0009093C3038093C20310929C0410929804AC
:1033E0001092990410929A0410929B0410929D04DA
:1033F0001092920410928E0410928F0410929004F6
:1034000010929104109293041092880410928404F4
:1034100010928504109286041092870410928904F9
:1034200062E082E794E00E945A19109270041092B0
:103430006C0410926D0410926E0410926F0410923E
:10344000710463E08AE594E00E945A1910925804CE
:10345000109254041092550410925604109257047E
:103460001092590464E082E494E00E945A19109288
:10347000400410923C0410923D0410923E041092BD
:103480003F041092410465E08AE294E00E945A19D8
:1034900010922804109224041092250410922604FD
:1034A00010922704109229046DE082E194E00E94BA
:1034B0005A198BE08093100462E00E94010760E0DB
:1034C000809110040E94B506109211048AE0809346
:1034D0000E0462E00E94010760E080910E040E94E9
:1034E000B50610920F041092D1031092D00320E879
:1034F00030E03093D3032093D20380E290E09093A6
:10350000D5038093D4033093D7032093D6039093AD
:10351000D9038093D8031092E4031092DB03109236
:10352000DA031092DD031092DC0381E08093E30361
:103530008093E2032FEF3FEF3093E1032093E0030A
:103540003093DF032093DE038093E5031092E603BC
:103550001092E8031092E7038AE391E09093CF037F
:103560008093CE031092EA031092E90382EC93E079
:103570009093EC038093EB031092EE031092ED0313
:103580008FEF8093F2038093F3038093F40380938F
:10359000F5038093F60380E89AE1A6E0B0E080931B
:1035A000030490930404A0930504B093060480EAF6
:1035B00096E8A1E0B0E08093070490930804A093FC
:1035C0000904B0930A0480E580930C0410920D0462
:1035D0001092C1031092C0031092BF031092BC035B
:1035E000EEEAFAE081E08C3049F09491823009F4FF
:1035F0009F5F21E0280F3196992331F08093BD031E
:1036000081E08093BE030895822FEDCFCF93DF93A7
:10361000CDB7DEB72E970FB6F894DEBF0FBECDBF85
:10362000789484B5826084BD84B5816084BD85B59D
:10363000826085BD85B5816085BD80916E008160A9
:1036400080936E001092810080918100826080934F
:103650008100809181008160809381008091800051
:103660008160809380008091B10084608093B1007C
:103670008091B00081608093B00080917A00846076
:1036800080937A0080917A00826080937A008091A2
:103690007A00816080937A0080917A0080688093BC
:1036A0007A001092C1008091ED039091EE03892B76
:1036B00011F10E945C162091D4033091D5038091C2
:1036C000D2039091D303213231050CF04BC0B901E4
:1036D0006052710977FF02C06F5F7F4F75956795E4
:1036E0008357910997FD019600E210E023E730E04F
:1036F0004AED55E04AC02091D4033091D503C90169
:10370000079697FD0796B3E095958795BA95E1F7EB
:103710002091D2033091D303AC01429FC001439F5B
:10372000900D529F900D11240E9437269093EE0326
:103730008093ED03892B09F0BCCF0AE71AE0F8016A
:103740006491662341F08AEE92E00E9448060F5F82
:103750001F4F892BA1F764E671E08AEE92E00E9488
:103760007E16FFCFB9016054710977FF02C06F5F09
:103770007F4F759567958255910997FD019600E4F5
:1037800010E022E530E04AEB57E0959587950E94DE
:103790001C0F82E08093F0038091EB039091EC0387
:1037A000892B09F43AC18CE38093EF030E946F10D8
:1037B0008091F60387FD1EC061E00E94010761E071
:1037C0008091F6030E94B50661E070E080E090E031
:1037D0000E94570760E08091F6030E94B5066AE0F8
:1037E00070E080E090E00E94570761E08091F6036E
:1037F0000E94B5068091EB039091EC03892B09F4AC
:10380000CBC12091030430910404409105045091F0
:10381000060460E074E284EF90E00E94EF252051FE
:1038200031094109510956954795379527952093B8
:10383000B80064E084EA95E00E941F126091D4030E
:1038400061508EEC93E00E94D41264E080EA95E02F
:103850000E941F128091F00364E1813009F460E15D
:103860008EEC93E00E94D41264E08CE995E00E9413
:103870001F128FE880930B048091D2039091D303A1
:103880008038910509F0A1C18091D4039091D503AE
:103890008034910509F0A9C18091F003813009F4C9
:1038A00092C18FEC80930B0412E16AED8EEC93E0F1
:1038B0000E94D412612F8EEC93E00E94D41261E832
:1038C0008EEC93E00E94D41260910B048EEC93E096
:1038D0000E94D41269ED8EEC93E00E94D412809184
:1038E000F00361EF813009F462E28EEC93E00E9414
:1038F000D41266E086E995E00E941F128091EB03E6
:103900009091EC03892B09F474C120910704309144
:1039100008044091090450910A0460E074E284EFC5
:1039200090E00E94EF252051310941095109569537
:103930004795379527952093B8000E94361368EE77
:1039400073E080E090E00E9457070E945C1667E6F3
:1039500071E08AEE92E00E944D1780916E02909184
:103960006F02009711F00E94D32686E090E00E943B
:1039700037268C0188E6F801808382EC93E09283FD
:103980008183138280E290E09583848310936F0299
:1039900000936E020E946F1081E0F8018383C801DA
:1039A0000E94BD14882309F47BC16CE771E08AEEA4
:1039B00092E00E944D1768EE73E080E090E00E9474
:1039C00057074BE050E06DE97AE0CE0101960E9486
:1039D000E625CE010A960E94C707182FE981E15417
:1039E000E33108F012C10E2E000CFF0BE650F34E2F
:1039F0000C943126701E051E051E8B1E051E031E0F
:103A0000051E051E051E611E051E051E791E881E4B
:103A1000851E051E051E051E821E61E08091F403B1
:103A20000E94010761E08091F5030E9401078091E7
:103A3000F403082E000C990BFC01EA53FA4FE491B1
:103A4000F0E0EE0FFF1FE454FA4F259134913093CC
:103A5000FC032093FB03FC01E855FA4FE491E0934B
:103A600001048091F503082E000C990BFC01EA5328
:103A7000FA4FE491F0E0EE0FFF1FE454FA4FA591E6
:103A8000B491B093FE03A093FD03FC01E855FA4FF7
:103A9000E491E09302048C91E82BEC938091E9038C
:103AA0009091EA03892B09F434C01FB7F8948091F0
:103AB0006D02811127C0E0EDF5E08491E2EBF5E0C5
:103AC0009491E82FF0E0EE0FFF1FE457FA4FA59115
:103AD000B491EC91E92321F461E08AE00E94B506FB
:103AE00061E08AE00E9401078CB580618CBD8CB5D5
:103AF00080648CBD61E08DE00E94010761E08BE095
:103B00000E94010780916D028F5F80936D021FBF3D
:103B10004FCE61E08091F2030E94010761E0809145
:103B2000F3030E9401078091F203082E000C990B09
:103B3000FC01EA53FA4FE491F0E0EE0FFF1FE4546A
:103B4000FA4F259134913093F8032093F703FC0149
:103B5000E855FA4FE491E093FF038091F303082EB8
:103B6000000C990BFC01EA53FA4FE491F0E0EE0FE0
:103B7000FF1FE454FA4FA591B491B093FA03A093B8
:103B8000F903FC01E855FA4FE491E09300048C91AD
:103B9000E095E823EC930CCE8091E9039091EA0341
:103BA000892B31F080910C0490910D040E94320A0F
:103BB000E091FD03F091FE039081809102048095D5
:103BC0008923808336CE8FE96DCE8036910569F4E6
:103BD0008091D4039091D503409739F48091F003FC
:103BE000813029F08FEA80930B0412E05ECE80E1F1
:103BF000FACFE091FD03F091FE03808190910204E1
:103C0000892B80839ACEF2E0FF2ECE0105960E948A
:103C1000C707082F48E050E064E97AE0CE0101963A
:103C20000E94E625CE0101960E94C707E82ECE012C
:103C300004960E94C707D82ECE0107960E94C70798
:103C4000382F1A8219822AE0622F0E941126982F9B
:103C5000880F890F880F830F8A838D2D0E9411266C
:103C6000982F880F890F880F8D0D8B838E2D0E94C2
:103C70001126982F880F890F880F8E0D8C83612F46
:103C800070E0202F30E090E080E001968F1508F082
:103C900045C0FC01E355F54FE4912E0F311DF5CFE2
:103CA00060E971E08AEE92E00E944D178AEE92E0A0
:103CB0000E9495066AE070E080E090E00E9457075D
:103CC000F9CF8A81FF24F394813609F49ECF8B814A
:103CD000E7E0FE2E8E3609F098CF76E0F72E95CFEE
:103CE0008B8168E0F62E823709F08FCF54E0F52EF5
:103CF0008CCF8B8145E0F42E823709F086CF33E0FC
:103D0000F32E83CF29E0F22E80CF9AE0F92E7DCFDB
:103D10008BE0F82E7ACF0CE0F02E77CFF2E0FF1593
:103D200028F4812F837011F42F5F3F4FCB0103964E
:103D30009695879596958795EDE6F1E06E9FA001A3
:103D40006F9F500D7E9F500D11244B5F5F4F840F6E
:103D5000951F820F931F67E070E00E941D2681115E
:103D600001C087E08D832AE0802F622F0E941126F8
:103D7000982F880F890F880F800F8E838F2D0E94B8
:103D80001126982F990F890F880FF80EFF82812F27
:103D90000E941126982F880F890F880F810F88871E
:103DA00021E048E050E0BE016F5F7F4F80916E02DE
:103DB00090916F020E942C161FE01E8721E041E0C7
:103DC00050E0BE01625F7F4F80916E0290916F0262
:103DD0000E942C1641E050E0BE01645F7F4F80914D
:103DE0006E0290916F020E9407158C851C878F7759
:103DF0008D8721E042E050E0BE01645F7F4F8091FB
:103E00006E0290916F020E942C1662EA71E08AEEB7
:103E100092E00E944D1782E194E00E94E61482E74E
:103E200094E00E94E6148AE594E00E94E61482E49D
:103E300094E00E94E6148AE294E00E94E61481E095
:103E400080931504809316048093170480931804BC
:103E5000809375048093760480937704809378042C
:103E600080935D0480935E048093450480934604B0
:103E70008093470480932D0480932E0480932F0415
:103E800068E873E180E090E00E945707442443947F
:103E900055245394E4E6CE2ED12CF9E1AF2EB12C6B
:103EA00008E010E0AEE6EA2EF12C70E0672E70E03C
:103EB000772E52E0352E63E0262E0E945C160E947B
:103EC0003613198280906E0290906F0220E041E0DC
:103ED00050E0BE016F5F7F4FC4010E942C16882303
:103EE00041F047E050E0BE016F5F7F4FC4010E9488
:103EF000071599819F776A814B81242F30E084E0F8
:103F0000359527958A95E1F7822F880F880F522FD4
:103F1000581B852F880F840F7D81EE81EF774F81AD
:103F2000242F30E054E0359527955A95E1F7322F4C
:103F3000330F330F231B220F240F2093BC034E2F6C
:103F400050E0F4E055954795FA95E1F7242F220FBC
:103F5000220F421B440F4E0F4093BD03272F30E02A
:103F6000A4E035952795AA95E1F7322F330F330F4B
:103F7000231B220F270F2093BE038093BF03462FDE
:103F800050E0B4E055954795BA95E1F7242F220FFC
:103F9000220F421B440F460F4093C003292F30E0ED
:103FA00044E0359527954A95E1F7322F330F330FCB
:103FB000231B220F290F2093C103909115049923ED
:103FC00069F18150823080F48091130481110CC01A
:103FD000509213045092140480E294E00E948905E8
:103FE00082E194E00E94F1148091BF038430B0F02C
:103FF00080911304882391F080911404813071F42E
:1040000010921304109228041092290482E194E083
:104010000E94E61410921D0410921C048091160454
:10402000882371F18091BF038A3081F48091130459
:1040300081110CC0509213043092140480E294E079
:104040000E94890582E194E00E94F1148091BF03EF
:104050008C30B0F080911304882391F08091140487
:10406000823071F4109213041092280410922904E3
:1040700082E194E00E94E61410921D0410921C0448
:1040800080911704882371F18091BF03803181F4FE
:104090008091130481110CC05092130420921404D7
:1040A00080E294E00E94890582E194E00E94F1148C
:1040B0008091BF038231B0F080911304882391F086
:1040C00080911404813071F410921304109228042A
:1040D0001092290482E194E00E94E61410921D04DB
:1040E00010921C0480911804882381F18091BF03F1
:1040F0008551833088F48091130481110DC0509252
:10410000130484E08093140480E294E00E94890503
:1041100082E194E00E94F1148091BF038931B0F0F4
:1041200080911304882391F080911404813071F4FC
:1041300010921304109228041092290482E194E052
:104140000E94E61410921D0410921C0480E294E078
:104150000E948A07882361F18091240490912504AC
:10416000A0912604B091270440912004509121048D
:104170006091220470912304840F951FA61FB71F1E
:104180008093240490932504A0932604B0932704DD
:10419000509228041092290480911B048425809356
:1041A0001B04882309F4CBC482E194E00E94F1143B
:1041B00080911304882309F47CC00E945C165092FD
:1041C000E2035092E30381E090E09093E103809357
:1041D000E0039093DF038093DE031092DB031092E1
:1041E000DA031092DD031092DC036DED71E08EECCA
:1041F00093E00E944D1780911B0481110EC0F09234
:10420000DB03E092DA031092DD031092DC0369EE27
:1042100071E08EEC93E00E944D1780911B0488237F
:1042200071F0F092DB03E092DA031092DD0310925A
:10423000DC036DEE71E08EEC93E00E944D178091EF
:1042400013041092DB031092DA031093DD03009342
:10425000DC0360EF71E0811102C067EF71E08EEC6A
:1042600093E00E944D17D092DB03C092DA03B09224
:10427000DD03A092DC0380911E0490911F040E9434
:1042800015178091BC0389838091BD038A83809137
:10429000BE038B838091BF038C838091C0038D8389
:1042A0008091C1038E83CE0101960E94D9160E948F
:1042B000361380917504882371F18091BF03853096
:1042C00081F48091730481110CC050927304509258
:1042D000740480E894E00E94890582E794E00E94DB
:1042E000F1148091BF038730B0F08091730488236C
:1042F00091F080917404813071F4109273041092E3
:1043000088041092890482E794E00E94E6141092D7
:104310007D0410927C0480917604882371F1809151
:10432000BF038A3081F48091730481110CC05092D4
:1043300073043092740480E894E00E94890582E757
:1043400094E00E94F1148091BF038C30B0F0809112
:104350007304882391F080917404823071F4109278
:104360007304109288041092890482E794E00E94FA
:10437000E61410927D0410927C04809177048823C7
:1043800071F18091BF03803181F4809173048111B8
:104390000CC0509273042092740480E894E00E9450
:1043A000890582E794E00E94F1148091BF03823175
:1043B000B0F080917304882391F08091740481306F
:1043C00071F410927304109288041092890482E7A9
:1043D00094E00E94E61410927D0410927C04809177
:1043E0007804882381F18091BF038551833088F45C
:1043F0008091730481110DC050927304E4E0E09346
:10440000740480E894E00E94890582E794E00E94A9
:10441000F1148091BF038931B0F080917304882337
:1044200091F080917404813071F4109273041092B1
:1044300088041092890482E794E00E94E6141092A6
:104440007D0410927C0480E894E00E948A0788230F
:1044500061F18091840490918504A0918604B091CB
:10446000870440918004509181046091820470918E
:104470008304840F951FA61FB71F80938404909315
:104480008504A0938604B093870450928804109208
:10449000890480917B04842580937B04882309F41C
:1044A0005CC382E794E00E94F11480917304882336
:1044B00009F47CC00E945C165092E2035092E30320
:1044C00081E090E09093E1038093E0039093DF0319
:1044D0008093DE031092DB031092DA031092DD0367
:1044E0001092DC0360E072E08EEC93E00E944D17C6
:1044F00080917B0481110EC0F092DB03E092DA031D
:104500001092DD031092DC0369EE71E08EEC93E013
:104510000E944D1780917B04882371F0F092DB0399
:10452000E092DA031092DD031092DC036DEE71E08D
:104530008EEC93E00E944D17809173041092DB0380
:104540001092DA031093DD030093DC0360EF71E057
:10455000811102C067EF71E08EEC93E00E944D176D
:10456000D092DB03C092DA03B092DD03A092DC03A9
:1045700080917E0490917F040E9415178091BC0366
:1045800089838091BD038A838091BE038B83809150
:10459000BF038C838091C0038D838091C1038E8380
:1045A000CE0101960E94D9160E94361380915D04B7
:1045B000882371F18091BF03843081F480915B0482
:1045C00081110CC050925B0450925C0488E694E028
:1045D0000E9489058AE594E00E94F1148091BF034E
:1045E0008630B0F080915B04882391F080915C0468
:1045F000813071F410925B04109270041092710477
:104600008AE594E00E94E614109265041092640416
:1046100080915E04882371F18091BF038D3081F415
:1046200080915B0481110CC050925B0430925C0459
:1046300088E694E00E9489058AE594E00E94F114DE
:104640008091BF038F30B0F080915B04882391F09C
:1046500080915C04823071F410925B0410927004BB
:10466000109271048AE594E00E94E61410926504A9
:104670001092640480915F048823D1F08091BF037D
:104680008823B1F080915B04882391F080915C04D1
:10469000813071F410925B041092700410927104D6
:1046A0008AE594E00E94E614109265041092640476
:1046B000809160048823D1F08091BF038823B1F0FA
:1046C00080915B04882391F080915C04813071F4C7
:1046D00010925B0410927004109271048AE594E0C9
:1046E0000E94E614109265041092640488E694E037
:1046F0000E948A07882361F180916C0490916D0477
:10470000A0916E04B0916F044091680450916904C7
:1047100060916A0470916B04840F951FA61FB71FE8
:1047200080936C0490936D04A0936E04B0936F0417
:1047300050927004109271048091630484258093D8
:104740006304882309F417C28AE594E00E94F114F7
:1047500080915B04882309F47CC00E945C1650920F
:10476000E2035092E30381E090E09093E1038093B1
:10477000E0039093DF038093DE031092DB0310923B
:10478000DA031092DD031092DC036BE072E08EEC32
:1047900093E00E944D178091630481110EC0F09246
:1047A000DB03E092DA031092DD031092DC0369EE82
:1047B00071E08EEC93E00E944D1780916304882392
:1047C00071F0F092DB03E092DA031092DD031092B5
:1047D000DC036DEE71E08EEC93E00E944D1780914A
:1047E0005B041092DB031092DA031093DD03009355
:1047F000DC0360EF71E0811102C067EF71E08EECC5
:1048000093E00E944D17D092DB03C092DA03B0927E
:10481000DD03A092DC0380916604909167040E94FE
:1048200015178091BC0389838091BD038A83809191
:10483000BE038B838091BF038C838091C0038D83E3
:104840008091C1038E83CE0101960E94D9160E94E9
:10485000361380914504882379F18091BF038650F7
:10486000833080F48091430481110CC05092430442
:104870005092440480E594E00E94890582E494E02B
:104880000E94F1148091BF038A30B0F080914304FC
:10489000882391F080914404813071F41092430494
:1048A000109258041092590482E494E00E94E61495
:1048B00010924D0410924C0480914604882379F1A3
:1048C0008091BF038A50833080F48091430481112A
:1048D0000CC0509243043092440480E594E00E945E
:1048E000890582E494E00E94F1148091BF038E3028
:1048F000B0F080914304882391F080914404823089
:1049000071F410924304109258041092590482E4F6
:1049100094E00E94E61410924D0410924C04809191
:104920004704882379F18091BF038F50833080F44E
:104930008091430481110CC050924304209244049E
:1049400080E594E00E94890582E494E00E94F114DD
:104950008091BF038331B0F080914304882391F0AC
:1049600080914404813071F41092430410925804F1
:104970001092590482E494E00E94E61410924D04CF
:1049800010924C04809148048823D1F08091BF0399
:104990008823B1F080914304882391F080914404EE
:1049A000813071F41092430410925804109259040B
:1049B00082E494E00E94E61410924D0410924C049C
:1049C00080E594E00E948A07882361F18091540475
:1049D00090915504A0915604B09157044091500411
:1049E000509151046091520470915304840F951FAB
:1049F000A61FB71F8093540490935504A0935604A8
:104A0000B0935704509258041092590480914B046B
:104A1000842580934B04882309F4BBC082E494E08E
:104A20000E94F11480914304882309F47CC00E9401
:104A30005C165092E2035092E30381E090E0909381
:104A4000E1038093E0039093DF038093DE031092F1
:104A5000DB031092DA031092DD031092DC0367E1AE
:104A600072E08EEC93E00E944D1780914B0481110F
:104A70000EC0F092DB03E092DA031092DD03109295
:104A8000DC0369EE71E08EEC93E00E944D1780919B
:104A90004B04882371F0F092DB03E092DA0310926A
:104AA000DD031092DC036DEE71E08EEC93E00E946A
:104AB0004D17809143041092DB031092DA03109398
:104AC000DD030093DC0360EF71E0811102C067EF4A
:104AD00071E08EEC93E00E944D17D092DB03C09200
:104AE000DA03B092DD03A092DC0380914E04909132
:104AF0004F040E9415178091BC0389838091BD03E8
:104B00008A838091BE038B838091BF038C838091C5
:104B1000C0038D838091C1038E83CE0101960E94D4
:104B2000D9160E9436136114710409F4C6C90E9493
:104B30001206882309F4BDC90E940000B6C982E1AB
:104B400094E00E94E61480911C0490911D0401964B
:104B500090931D0480931C042BCB82E794E00E9469
:104B6000E61480917C0490917D04019690937D04DD
:104B700080937C049ACC8AE594E00E94E6148091AC
:104B80006404909165040196909365048093640495
:104B9000DFCD82E494E00E94E61480914C04909171
:104BA0004D04019690934D0480934C043BCF8AE3CF
:104BB00091E09093CF038093CE038091ED03909189
:104BC000EE03009711F00C94D3260895FB01DC014D
:104BD00002C005900D9241505040D8F70895A1E2CF
:104BE0001A2EAA1BBB1BFD010DC0AA1FBB1FEE1F67
:104BF000FF1FA217B307E407F50720F0A21BB30BB2
:104C0000E40BF50B661F771F881F991F1A9469F72D
:104C100060957095809590959B01AC01BD01CF0189
:104C20000895991B79E004C0991F961708F0961B08
:104C3000881F7A95C9F780950895AA1BBB1B51E17F
:104C400007C0AA1FBB1FA617B70710F0A61BB70BFC
:104C5000881F991F5A95A9F780959095BC01CD01A1
:104C60000895EE0FFF1F0590F491E02D09940F9326
:104C70001F93CF93DF938230910510F482E090E090
:104C8000E091A004F091A10430E020E0B0E0A0E0C9
:104C9000309799F42115310509F44AC0281B390BC6
:104CA00024303105D8F58A819B816115710589F120
:104CB000FB0193838283FE0111C0408151810281F7
:104CC000138148175907E0F04817590799F41097CE
:104CD00061F012960C93129713961C933296CF01A3
:104CE000DF91CF911F910F9108950093A00410932D
:104CF000A104F4CF2115310551F04217530738F0C4
:104D0000A901DB019A01BD01DF01F801C1CFEF016B
:104D1000F9CF9093A1048093A004CDCFFE01E20FC0
:104D2000F31F819391932250310939832883D7CF80
:104D300020919E0430919F04232B41F42091020185
:104D40003091030130939F0420939E042091000131
:104D5000309101012115310541F42DB73EB7409145
:104D6000040150910501241B350BE0919E04F09144
:104D70009F04E217F307A0F42E1B3F0B28173907F7
:104D800078F0AC014E5F5F4F2417350748F04E0FA7
:104D90005F1F50939F0440939E04819391939FCFF4
:104DA000F0E0E0E09CCFCF93DF930097E9F0FC01C7
:104DB000329713821282A091A004B091A104ED0158
:104DC00030E020E01097A1F420813181820F931F01
:104DD00020919E0430919F042817390709F061C083
:104DE000F0939F04E0939E04DF91CF910895EA0130
:104DF000CE17DF07E8F54A815B819E014115510519
:104E0000B1F7E901FB83EA8349915991C40FD51F9A
:104E1000EC17FD0761F4808191810296840F951F44
:104E2000E90199838883828193819B838A83F0E05F
:104E3000E0E012968D919C9113970097B9F52D9112
:104E40003C911197CD010296820F931F20919E04F1
:104E500030919F042817390739F6309751F5109291
:104E6000A1041092A004B0939F04A0939E04BCCF11
:104E7000D383C28340815181840F951FC817D907FE
:104E800061F44E5F5F4F88819981480F591F5183AC
:104E900040838A819B81938382832115310509F0A8
:104EA000B0CFF093A104E093A0049ECFFD01DC01FC
:104EB000C0CF13821282D7CF81E090E0F8940C9497
:104EC0006827DC0101C06D9341505040E0F7089520
:104ED00015E0CEE5D5E004C0FE010E943126219602
:104EE000CF35D107C9F7F894FFCF0000A2048000A6
:104EF000000000004806A805D50595060606E4054D
:104F0000F80500000000C407C107E314C007000053
:104F10000000ED11C011E314A705B911A6119711F6
:104F200000000000700CA805E314C0077B09A7056A
:104F3000150FED0E090FFD0E7D0FA705360A67143C
:104F4000EB083409360E190EA10D420D3A000D0A78
:104F5000004F4C454420536574757020436F6D704D
:104F60006C6574652E00525443205365747570202F
:104F7000436F6D706C6574652E00436F756C646E65
:104F800027742066696E64205254430052544320B3
:104F9000686173206265656E207570646174656414
:104FA00020776974682061206E657720446174659C
:104FB00020616E642054696D652120426520436143
:104FC000726566756C21005445535420444556491A
:104FD0004345004F4646004F4E0041637469766575
:104FE00000496E61637469766500574154455220EB
:104FF00050554D50004F585947454E2050554D5033
:0E500000005748495445204C49474854000089
:107E0000112484B714BE81FFF0D085E080938100F7
:107E100082E08093C00088E18093C10086E0809377
:107E2000C20080E18093C4008EE0C9D0259A86E02C
:107E300020E33CEF91E0309385002093840096BBD3
:107E4000B09BFECF1D9AA8958150A9F7CC24DD24C4
:107E500088248394B5E0AB2EA1E19A2EF3E0BF2EE7
:107E6000A2D0813461F49FD0082FAFD0023811F036
:107E7000013811F484E001C083E08DD089C08234E0
:107E800011F484E103C0853419F485E0A6D080C0E4
:107E9000853579F488D0E82EFF2485D0082F10E0AE
:107EA000102F00270E291F29000F111F8ED06801E7
:107EB0006FC0863521F484E090D080E0DECF843638
:107EC00009F040C070D06FD0082F6DD080E0C81688
:107ED00080E7D80618F4F601B7BEE895C0E0D1E017
:107EE00062D089930C17E1F7F0E0CF16F0E7DF06D8
:107EF00018F0F601B7BEE89568D007B600FCFDCFD4
:107F0000A601A0E0B1E02C9130E011968C91119780
:107F100090E0982F8827822B932B1296FA010C0160
:107F200087BEE89511244E5F5F4FF1E0A038BF0790
:107F300051F7F601A7BEE89507B600FCFDCF97BE46
:107F4000E89526C08437B1F42ED02DD0F82E2BD052
:107F50003CD0F601EF2C8F010F5F1F4F84911BD097
:107F6000EA94F801C1F70894C11CD11CFA94CF0C13
:107F7000D11C0EC0853739F428D08EE10CD085E9AC
:107F80000AD08FE07ACF813511F488E018D01DD067
:107F900080E101D065CF982F8091C00085FFFCCF94
:107FA0009093C60008958091C00087FFFCCF809118
:107FB000C00084FD01C0A8958091C6000895E0E648
:107FC000F0E098E1908380830895EDDF803219F02E
:107FD00088E0F5DFFFCF84E1DECF1F93182FE3DFCA
:107FE0001150E9F7F2DF1F91089580E0E8DFEE27F6
:047FF000FF270994CA
:027FFE00040479
:00000001FF
