:100000000C9462000C948A000C948A000C948A0070
:100010000C948A000C948A000C948A000C948A0038
:100020000C948A000C948A000C948A000C948A0028
:100030000C948A000C948A000C948A000C948A0018
:100040000C94FF020C948A000C94CD020C94A7022D
:100050000C948A000C948A000C948A000C948A00F8
:100060000C948A000C948A000000000023002600F3
:10007000290000000008000201000003040700003E
:1000800000000000000000000000250028002B00F8
:1000900000000000240027002A00040404040404D3
:1000A0000404020202020202030303030303010227
:1000B00004081020408001020408102001020408F6
:1000C0001020790311241FBECFEFD8E0DEBFCDBFD3
:1000D00023E0A2EAB2E001C01D92A039B207E1F725
:1000E00012E0A0E0B1E0E4E5FDE002C005900D9271
:1000F000A23AB107D9F710E0C2E6D0E004C02197D8
:10010000FE010E94A206C136D107C9F70E941E0453
:100110000C94A8060C940000AF92BF92CF92DF928D
:10012000EF92FF920F931F93CF93DF936C017B01AC
:100130008B01040F151FEB015E01AE18BF08C0173D
:10014000D10759F06991D601ED91FC910190F081B0
:10015000E02DC6010995892B79F7C501DF91CF9173
:100160001F910F91FF90EF90DF90CF90BF90AF90D5
:100170000895FC01538D448D252F30E0842F90E0AD
:10018000821B930B541710F0CF9608950197089592
:10019000FC01918D828D981761F0A28DAE0FBF2F5B
:1001A000B11D5D968C91928D9F5F9F73928F90E0B1
:1001B00008958FEF9FEF0895FC01918D828D981720
:1001C00031F0828DE80FF11D858D90E008958FEF5D
:1001D0009FEF0895FC01918D228D892F90E0805C26
:1001E0009F4F821B91098F73992708958CEA92E0A3
:1001F0000E94EA0021E0892B09F420E0822F089573
:1002000080E090E0892B29F00E94F60081110C9487
:1002100000000895FC01A48DA80FB92FB11DA35AA9
:10022000BF4F2C91848D90E001968F739927848F16
:10023000A689B7892C93A089B1898C918370806439
:100240008C93938D848D981306C00288F389E02DDA
:1002500080818F7D80830895EF92FF920F931F938B
:10026000CF93DF93EC0181E0888F9B8D8C8D981369
:100270001AC0E889F989808185FF15C09FB7F89475
:10028000EE89FF896083E889F989808183708064C1
:1002900080839FBF81E090E0DF91CF911F910F910C
:1002A000FF90EF900895F62E0B8D10E00F5F1F4F1B
:1002B0000F731127E02E8C8D8E110CC00FB607FC2A
:1002C000FACFE889F989808185FFF5CFCE010E94B8
:1002D0000A01F1CFEB8DEC0FFD2FF11DE35AFF4F1B
:1002E000F0829FB7F8940B8FEA89FB898081806246
:1002F000CFCFCF93DF93EC01888D8823B9F0AA8903
:10030000BB89E889F9898C9185FD03C0808186FDD0
:100310000DC00FB607FCF7CF8C9185FFF2CF80811F
:1003200085FFEDCFCE010E940A01E9CFDF91CF9189
:100330000895833081F028F4813099F08230A9F05B
:1003400008958730A9F08830C9F08430B1F48091E5
:1003500080008F7D03C0809180008F778093800024
:10036000089584B58F7784BD089584B58F7DFBCFC4
:100370008091B0008F778093B00008958091B00095
:100380008F7DF9CF1F93CF93DF93282F30E0F901B2
:10039000EE58FF4F8491F901E255FF4FD491F901D6
:1003A000E656FF4FC491CC23A9F0162F81110E946D
:1003B0009901EC2FF0E0EE0FFF1FEA57FF4FA591D8
:1003C000B4918FB7F894EC91111108C0D095DE2349
:1003D000DC938FBFDF91CF911F910895DE2BF8CF73
:1003E000CF93DF93C2E8D3E060E088810E94C2012E
:1003F00019828A819B8101969B838A83DF91CF91A9
:1004000008953FB7F8948091A3029091A402A0911F
:10041000A502B091A60226B5A89B05C02F3F19F0F2
:100420000196A11DB11D3FBFBA2FA92F982F882774
:10043000BC01CD01620F711D811D911D42E0660F4F
:10044000771F881F991F4A95D1F7089590E080E0A3
:10045000089508958AE793E00C9433028AE793E0C5
:100460000C943602089590E080E0089590E080E0DA
:100470000895FB0101900020E9F73197AF01461B79
:10048000570BDC01ED91FC910280F381E02D099482
:100490008F929F92AF92BF92EF92FF920F931F9312
:1004A000CF93DF93CDB7DEB7A1970FB6F894DEBF39
:1004B0000FBECDBF7C01FA01CB0119A2223008F496
:1004C0002AE08E010F5D1F4F822E912CB12CA12CA2
:1004D000BF01A50194010E948006F901CA016A309A
:1004E0000CF5605DD8016E938D01232B242B252BF9
:1004F00079F790E080E0109721F0BD01C7010E94DC
:100500003902A1960FB6F894DEBF0FBECDBFDF91C2
:10051000CF911F910F91FF90EF90BF90AF909F9060
:100520008F900895695CDECFCF93DF93BC018CEA96
:1005300092E00E943902EC016EE171E08CEA92E0F7
:100540000E9439028C0F9D1FDF91CF9108951F9259
:100550000F920FB60F9211242F933F934F935F93F7
:100560006F937F938F939F93AF93BF93EF93FF937B
:100570008CEA92E00E940A01FF91EF91BF91AF9146
:100580009F918F917F916F915F914F913F912F91AB
:100590000F900FBE0F901F9018951F920F920FB6DD
:1005A0000F9211242F938F939F93EF93FF93E091DA
:1005B000BC02F091BD028081E091C202F091C302C1
:1005C00082FD1BC090818091C5028F5F8F73209147
:1005D000C602821741F0E091C502F0E0E455FD4FFC
:1005E000958F8093C502FF91EF919F918F912F91ED
:1005F0000F900FBE0F901F9018958081F4CF1F921F
:100600000F920FB60F9211242F933F938F939F93C6
:10061000AF93BF938091A7029091A802A091A902E5
:10062000B091AA023091A20223E0230F2D3758F592
:100630000196A11DB11D2093A2028093A702909361
:10064000A802A093A902B093AA028091A30290915C
:10065000A402A091A502B091A6020196A11DB11D10
:100660008093A3029093A402A093A502B093A60244
:10067000BF91AF919F918F913F912F910F900FBE9E
:100680000F901F90189526E8230F0296A11DB11D0B
:10069000D2CFCF93DF93EC01688370E0FB01E2558A
:1006A000FF4F249166567F4FFB0184918823C9F048
:1006B00090E0880F991FFC01E057FF4F459154913E
:1006C000FC01EA57FF4FA591B4919FB7F894FA0146
:1006D0003081822F809583238083EC912E2B2C9365
:1006E0009FBF60E088810E94C2011982DF91CF9193
:1006F00008951092AF021092AE0288EE93E0A0E04F
:10070000B0E08093B0029093B102A093B202B09394
:10071000B30284E091E09093AD028093AC0285EC4B
:1007200090E09093B9028093B80284EC90E09093AB
:10073000BB028093BA0280EC90E09093BD0280935C
:10074000BC0281EC90E09093BF028093BE0282ECE9
:1007500090E09093C1028093C00286EC90E0909369
:10076000C3028093C2021092C5021092C602109278
:10077000C7021092C80288E893E1A0E0B0E080933D
:100780006C0390936D03A0936E03B0936F0310926C
:1007900078031092740310927503109276031092EE
:1007A00077031092790310924B0310924A03109230
:1007B000490310927D0310927C0386E191E09093AF
:1007C0007B0380937A0310928E0310928A03109217
:1007D0008B0310928C0310928D0310928F038DE087
:1007E00080938203EBEBF0E02491E7EAF0E0849160
:1007F000882399F090E0880F991FFC01E057FF4F84
:10080000A591B491FC01EA57FF4F859194918FB760
:10081000F894EC91E22BEC938FBF60E0809182031F
:100820000E94C201109283036AE080E893E00E9474
:1008300049036BE08EE793E00C944903789484B508
:10084000826084BD84B5816084BD85B5826085BDCC
:1008500085B5816085BD80916E00816080936E005A
:10086000109281008091810082608093810080914C
:1008700081008160809381008091800081608093FD
:1008800080008091B10084608093B1008091B000BD
:1008900081608093B00080917A00846080937A00B8
:1008A00080917A00826080937A0080917A008160E2
:1008B00080937A0080917A00806880937A00109209
:1008C000C100E091BC02F091BD0282E08083E09122
:1008D000B802F091B9021082E091BA02F091BB0225
:1008E0008FEC80831092C402E091C002F091C102AB
:1008F00086E08083E091BE02F091BF02808180613A
:100900008083E091BE02F091BF0280818860808385
:10091000E091BE02F091BF02808180688083E09107
:10092000BE02F091BF0280818F7D808381E291E0E1
:100930000E9494023324339400E010E0C1E020E1EF
:10094000822E27E2922EA12CB12C2091800330E040
:10095000F901EE58FF4F8491F901E255FF4FF490F1
:10096000F901E656FF4FE490EE2069F181110E94F3
:100970009901EE2DF0E0EE0FFF1FE859FF4FA59112
:10098000B491EC91FE2281E090E011F490E080E0DF
:100990000097C9F0809381038CEA92E00E94EA00FC
:1009A000892B09F452C08CEA92E00E94C800D82F2B
:1009B0008CEA92E00E94EA00892B71F08CEA92E0C6
:1009C0000E94C800F5CF109281038AE491E00E9452
:1009D00094020E94F001E0CFD23539F0D23709F00D
:1009E00072C08091AB02811130C08BE691E00E9411
:1009F000940288E891E00E949402C093AB02809236
:100A0000860390928703A0928803B09289032FB740
:100A1000F8948091A7029091A802A091A902B091A8
:100A2000AA022FBF80938A0390938B03A0938C0319
:100A3000B0938D03C0938E0310928F0361E0809179
:100A400082030E94C201C093830380918E03882396
:100A500009F479C080918F03882309F44FC08091F5
:100A60008A0390918B03A0918C03B0918D034091E8
:100A70008603509187036091880370918903840FE6
:100A8000951FA61FB71F80938A0390938B03A09393
:100A90008C03B0938D03C0938E0310928F0386ED69
:100AA00091E00E94940280918303832580938303C5
:100AB000882309F4EEC061E0809182030E94C201A4
:100AC000C093830340C0D33541F0D33709F0BDCF85
:100AD0008091AB02882309F4B8CF82EA91E00E94AA
:100AE00094028BEB91E00E9494021092AB02109260
:100AF0008E0310928F030E94F001A7CF2FB7F894B6
:100B00008091A7029091A802A091A902B091AA0297
:100B10002FBF40918A0350918B0360918C03709199
:100B20008D03841B950BA60BB70B40918603509148
:100B30008703609188037091890384179507A6073E
:100B4000B70708F08CCF8091AB02882309F452C01C
:100B500080918303811104C08FEF91E00E94940281
:100B600080918303882321F08AE192E00E9494021D
:100B700064E372E08CEA92E00E943902C090840340
:100B8000D09085030D2C000CEE08FF082AE0B70179
:100B9000A601F7FE0DC06DE28CEA92E00E942C01E6
:100BA00044275527BA014C195D096E097F092AE0CF
:100BB0008CEA92E00E9448026EE171E08CEA92E0D9
:100BC0000E94390265E572E08CEA92E00E943902E7
:100BD00080918E03811160C040E050E0BA012AE0AC
:100BE0008CEA92E00E9448026EE171E08CEA92E0A9
:100BF0000E94390266E772E08CEA92E00E943902B4
:100C00004091AB0250E070E060E02AE08CEA92E0B4
:100C10000E9448026EE171E08CEA92E00E94390283
:100C200080E992E00E94940280E992E00E9494029E
:100C30000E9401022B013C0188EEC82E83E0D82ED1
:100C4000E12CF12C0E9401026419750986099709AB
:100C5000683E734081059105A8F321E0C21AD108CE
:100C6000E108F10888EE480E83E0581E611C711CF3
:100C7000C114D104E104F10429F70115110509F4A7
:100C800064CE0E94F600882309F45FCE0E94000023
:100C90005CCE0E94F00157CF2FB7F8948091A70245
:100CA0009091A802A091A902B091AA022FBF209111
:100CB0008F03211191CF40918A0350918B03609152
:100CC0008C0370918D03C0908603D0908703E090D1
:100CD0008803F09089032C013D01441A550A660AE5
:100CE000770A4C145D046E047F0408F075CF4C0D38
:100CF0005D1D6E1D7F1D481B590B6A0B7B0B6FCF53
:100D0000A1E21A2EAA1BBB1BFD010DC0AA1FBB1F0F
:100D1000EE1FFF1FA217B307E407F50720F0A21B81
:100D2000B30BE40BF50B661F771F881F991F1A94EE
:100D300069F760957095809590959B01AC01BD0118
:100D4000CF010895EE0FFF1F0590F491E02D099457
:040D5000F894FFCF45
:100D5400000000002C018C00B9007901EA00C800F1
:100D6400DC000000000036023302260232020D0AC3
:100D740000456E746572205220746F207374617222
:100D840074206F72205320746F2073746F702074FA
:100D940068652074696D65722E00536166657479A7
:100DA4002053776974636820686173206265656E97
:100DB400207475726E6564204F4E00546573742000
:100DC40044657669636520416C61726D2054726973
:100DD40067676572656421005475726E696E672079
:100DE40027546573742044657669636527204F4EE4
:100DF4002E00546573742044657669636520416CE4
:100E040061726D20726573657421005475726E6928
:100E14006E6720275465737420446576696365277B
:100E2400204F46462E006C656444656C61792E72D1
:100E3400657065617428292063616C6C6564206148
:100E44006E64206C656420746F67676C656400541D
:100E54006573742044657669636520637572726591
:100E64006E746C79204F46462E005465737420448A
:100E740065766963652063757272656E746C79203A
:100E84004F4E2E0054657374204465766963652063
:100E940063757272656E742063796C6520636F7517
:100EA4006E743A20005465737420446576696365F2
:100EB40020696E74657276616C2072656D61696E0D
:100EC400696E673A2000746573742064657669639B
:100ED4006520616C61726D2073746174653A2000E1
:100EE4002D2D2D2D2D2D2D2D2D2D2D2D2D2D2D2D2E
:020EF4000000FC
:00000001FF
