:100000000C9454050C947C050C947C050C947C0594
:100010000C947C050C947C050C947C050C947C055C
:100020000C947C050C947C050C947C050C947C054C
:100030000C947C050C947C050C947C050C947C053C
:100040000C94F0140C947C050C94BE140C9498142D
:100050000C947C050C947C050C947C050C947C051C
:100060000C943A150C947C0500000000003E5B4F98
:100070005B3E3E6B4F6B3E1C3E7C3E1C183C7E3C08
:10008000181C577D571C1C5E7F5E1C00183C180016
:10009000FFE7C3E7FF0018241800FFE7DBE7FF30A6
:1000A000483A060E2629792926407F050507407F14
:1000B00005253F5A3CE73C5A7F3E1C1C08081C1C87
:1000C0003E7F14227F22145F5F005F5F06097F017D
:1000D0007F006689956A606060606094A2FFA29468
:1000E00008047E040810207E201008082A1C080836
:1000F0001C2A08081E101010100C1E0C1E0C303884
:100100003E3830060E3E0E06000000000000005F84
:1001100000000007000700147F147F14242A7F2AA0
:100120001223130864623649562050000807030062
:10013000001C2241000041221C002A1C7F1C2A08AE
:10014000083E080800807030000808080808000011
:1001500060600020100804023E5149453E00427F85
:10016000400072494949462141494D331814127FD4
:100170001027454545393C4A494931412111090774
:100180003649494936464949291E000014000000F5
:1001900040340000000814224114141414140041C7
:1001A00022140802015909063E415D594E7C121184
:1001B000127C7F494949363E414141227F414141BC
:1001C0003E7F494949417F090909013E4141517337
:1001D0007F0808087F00417F41002040413F017FA8
:1001E000081422417F404040407F021C027F7F0470
:1001F00008107F3E4141413E7F090909063E4151B9
:10020000215E7F09192946264949493203017F01A8
:10021000033F4040403F1F2040201F3F4038403FA9
:10022000631408146303047804036159494D4300BF
:100230007F4141410204081020004141417F0402F6
:10024000010204404040404000030708002054548D
:1002500078407F284444383844444428384444286B
:100260007F385454541800087E090218A4A49C78BE
:100270007F0804047800447D40002040403D007F1A
:100280001028440000417F40007C047804787C08FA
:100290000404783844444438FC18242418182424CE
:1002A00018FC7C08040408485454542404043F44B3
:1002B000243C4040207C1C2040201C3C4030403CE2
:1002C00044281028444C9090907C4464544C440042
:1002D00008364100000077000000413608000201A6
:1002E0000204023C2623263C1EA1A161123A404092
:1002F000207A38545455592155557941225454780F
:1003000042215554784020545579400C1E527212A7
:100310003955555559395454545939555454580030
:1003200000457C410002457D420001457C407D1234
:1003300011127DF0282528F07C5455450020545496
:100340007C547C0A097F4932494949323A44444441
:100350003A324A4848303A4141217A3A424020787C
:10036000009DA0A07D3D4242423D3D4040403D3C7D
:1003700024FF2424487E4943662B2FFC2F2BFF09A2
:1003800029F620C0887E0903205454794100004496
:100390007D413048484A32384040227A007A0A0A81
:1003A000727D0D19317D2629292F282629292926F4
:1003B00030484D4020380808080808080808382F39
:1003C00010C8ACBA2F102834FA00007B00000814C3
:1003D0002A142222142A14085500550055AA55AA99
:1003E00055AAFF55FF55FF000000FF00101010FF39
:1003F00000141414FF001010FF00FF1010F010F094
:10040000141414FC001414F700FF0000FF00FF1484
:1004100014F404FC141417101F10101F101F1414D0
:10042000141F00101010F0000000001F101010101A
:100430001F10101010F010000000FF10101010100E
:1004400010101010FF10000000FF140000FF00FF4C
:1004500000001F10170000FC04F4141417101714E8
:1004600014F404F40000FF00F7141414141414140A
:10047000F700F7141414171410101F101F1414147D
:10048000F4141010F010F000001F101F0000001FE7
:1004900014000000FC140000F010F01010FF10FF1A
:1004A000141414FF141010101F00000000F010FFAF
:1004B000FFFFFFFFF0F0F0F0F0FFFFFF0000000093
:1004C00000FFFF0F0F0F0F0F3844443844FC4A4A17
:1004D0004A347E02020606027E027E0263554941CC
:1004E000633844443C04407E201E2006027E020203
:1004F00099A5E7A5991C2A492A1C4C7201724C3017
:100500004A4D4D303048784830BC625A463D3E49ED
:100510004949007E0101017E2A2A2A2A2A44445F91
:10052000444440514A444040444A51400000FF0185
:1005300003E080FF000008086B6B08361236243693
:10054000060F090F060000181800000010100030F8
:1005500040FF0101001F01011E00191D1712003C80
:100560003C3C3C0000000000000103070F1F3F7FE0
:100570000080C0E0F0F8FCFE00000008000201006E
:10058000000304070000000000000000000000005D
:10059000240027002A00DB40A4A62EAF2000A1C81B
:1005A000D300408DAED580A8010204081020408001
:1005B00001020408102001020408102000000000BD
:1005C000250028002B00040404040404040402028F
:1005D00002020202030303030303000060000000A1
:1005E0000000000000000000000000E0000000002B
:1005F00000000000000000000001E000000000001A
:10060000000000000000000001F0000000000000F9
:100610000000000000000003F000000000000000E7
:1006200000000000000007F00000000000000000D3
:10063000000000000007F8000000000000000000BB
:10064000000000000FF800000003C0007E00000161
:10065000E0007F0FF800000003C000FE000001E092
:1006600000FFEFF800000003C000FE000001E00002
:10067000FFFFF800000003C000F00000000F007F43
:10068000FE7FC0000003C000F00000000F003FFE2E
:100690007FF83FF1FBCFFCFEF3BC3DEFE01FFE7F98
:1006A000FF7FFBFFDFFEFEFFBC3DEFE01FC6FFFF4D
:1006B0007FFBFFDFFEFEFFBC3DEFE00FE3C7FE78F0
:1006C0007BC3DE1EF0FFBC3DEF0007FF87FC787B9D
:1006D000C3DE1EF0F83C3DEF0001FFFFF0007BC3DE
:1006E000C01EF0F03C3DEF0001F37FE03FFBC3CFC5
:1006F000FEF0F03C3DEF0003E33F807FFBC3DFFEF5
:10070000F0F03C3DEF0007E73C00787BC3DE1EF0D5
:10071000F03C3DEF0007FFBE00787BC3DE1EF0F02B
:100720003C3DEF0007FFFE00787BC3DE1EF0F03C8F
:100730003DEF000FFFFE007FFBFFDFFEF0F03FFD0F
:10074000EFE00FFFFF007FFBFFDFFEF0F03FFDEF6C
:10075000E00FF9FF003E79F9CF9EF0F01F3DE7E092
:100760001FF1FF0000000000000000000000001F5B
:1007700080FF007FFFFFFFFFFFFFFFFFFFE01C0088
:100780007F007FFFFFFFFEB46D888D18E000001F23
:10079000007FFFFFFFFE95AD7DB577E000000F0005
:1007A0007FFFFFFFFEA5AD9D8D19E0000006007FD5
:1007B000FFFFFFFEB5ADEDB57EE0000000000001DB
:1007C0008000000000000000000003800000000026
:1007D000000000000007C000000000000000000052
:1007E00007C00000000000000000000FC000000073
:1007F0000000000000001FE00000000000000000FA
:10080000001FE00000000000000000003FE00000CA
:10081000000000000000003FF000000000000000A9
:1008200000007FF0000000000000001FF87FF000D3
:100830000000000000003FFE7FF00000000000000C
:10084000003FFF7FF0000000000000001FFFFBE002
:10085000000000000000000FFFF9FFC000000000D2
:1008600000000FFFF9FFF800000000000007FFF193
:10087000FFFF00000000000003FC73FFFF8000008A
:1008800000000001FE3FFFFF80000000000000FFAD
:100890001E0FFF000000000000007FFE1FFC000094
:1008A00000000000003FFFFFF80000000000000013
:1008B0000FDFFFE0000000000000001F19FFC00074
:1008C0000000000000003F3CFF00000000000000AE
:1008D000007E7CF800000000000000007FFE7C002D
:1008E00000000000000000FFFFFC0000000000000E
:1008F0000000FFFFFE0000000000000000FFFFFE00
:100900000000000000000001FFEFFE0000000000FA
:10091000000001FFCFFE0000000000000003FF0701
:10092000FE0000000000000003FC07FE00000000C5
:1009300000000003F003FE00000000000000018042
:1009400000FE000000000000000000007E0000002B
:10095000000000000000003E000000000000000059
:1009600000000C000000000000078000FC000003F5
:10097000C0000000078001FC000003C00000000769
:100980008001FC000003C0000000078001E00000BF
:10099000001E000000078001E00000001E007FE351
:1009A000F79FF9FDE7787BDFC0FFF7FFBFFDFDFF95
:1009B000787BDFC0FFF7FFBFFDFDFF787BDFC0F076
:1009C000F787BC3DE1FF787BDE00F0F787BC3DE1B7
:1009D000F0787BDE0000F787803DE1E0787BDE0089
:1009E0007FF7879FFDE1E0787BDE00FFF787BFFDA3
:1009F000E1E0787BDE00F0F787BC3DE1E0787BDE6C
:100A000000F0F787BC3DE1E0787BDE00F0F787BCC3
:100A10003DE1E0787BDE00FFF7FFBFFDE1E07FFB1B
:100A2000DFC0FFF7FFBFFDE1E07FFBDFC07CF3F33A
:100A30009F3DE1E03E7BCFC00000000000000000D1
:100A4000000000FFFFFFFFFFFFFFFFFFFFC0FFFFF2
:100A5000FFFFFD68DB111A31C0FFFFFFFFFD2B5ABE
:100A6000FB6AEFC0FFFFFFFFFD4B5B3B1A33C0FF8C
:100A7000FFFFFFFD6B5BDB6AFDC053534431333036
:100A80003620616C6C6F636174696F6E206661699A
:100A90006C6564002200FF21001F1C1F1E1F1E1F0B
:100AA0001F1E1F1E7016C62011241FBECFEFD8E0D8
:100AB000DEBFCDBF26E0A8EAB3E001C01D92A6329A
:100AC000B207E1F713E0A0E0B1E0E6E7F4E402C02A
:100AD00005900D92A83AB107D9F715E0C3E5D5E026
:100AE00004C02197FE010E94F720C235D107C9F743
:100AF0000E9406180C942E220C940000E4EAF5E003
:100B000080E197E2A0E0B0E080839183A283B38389
:100B10002FB7F89480916A0490916B04A0916C04B3
:100B2000B0916D042FBF84839583A683B78381E042
:100B3000808711860895089508950895AF92BF9211
:100B4000CF92DF92EF92FF920F931F93CF93DF9399
:100B50006C017B018B01040F151FEB015E01AE18C8
:100B6000BF08C017D10759F06991D601ED91FC91EA
:100B70000190F081E02DC6010995892B79F7C50117
:100B8000DF91CF911F910F91FF90EF90DF90CF9069
:100B9000BF90AF900895FC01538D448D252F30E018
:100BA000842F90E0821B930B541710F0CF9608957A
:100BB00001970895FC01918D828D981761F0A28DA7
:100BC000AE0FBF2FB11D5D968C91928D9F5F9F736D
:100BD000928F90E008958FEF9FEF0895FC01918D23
:100BE000828D981731F0828DE80FF11D858D90E090
:100BF00008958FEF9FEF0895FC01918D228D892F2D
:100C000090E0805C9F4F821B91098F739927089514
:100C10008EE694E00E94FC0521E0892B09F420E097
:100C2000822F089580E090E0892B29F00E94080629
:100C300081110C9400000895FC01A48DA80FB92F18
:100C4000B11DA35ABF4F2C91848D90E001968F73F4
:100C50009927848FA689B7892C93A089B1898C9113
:100C6000837080648C93938D848D981306C0028862
:100C7000F389E02D80818F7D80830895EF92FF922C
:100C80000F931F93CF93DF93EC0181E0888F9B8DAF
:100C90008C8D98131AC0E889F989808185FF15C069
:100CA0009FB7F894EE89FF896083E889F98980818C
:100CB0008370806480839FBF81E090E0DF91CF915B
:100CC0001F910F91FF90EF900895F62E0B8D10E07D
:100CD0000F5F1F4F0F731127E02E8C8D8E110CC0EC
:100CE0000FB607FCFACFE889F989808185FFF5CF37
:100CF000CE010E941C06F1CFEB8DEC0FFD2FF11DF4
:100D0000E35AFF4FF0829FB7F8940B8FEA89FB8973
:100D100080818062CFCFCF93DF93EC01888D8823D1
:100D2000B9F0AA89BB89E889F9898C9185FD03C04E
:100D3000808186FD0DC00FB607FCF7CF8C9185FF33
:100D4000F2CF808185FFEDCFCE010E941C06E9CF56
:100D5000DF91CF91089590E0FC01E858FA4F24917B
:100D6000FC01E855FA4F3491FC01EA53FA4FE49143
:100D7000EE23C9F0222339F0233001F1A8F4213009
:100D800019F1223029F1F0E0EE0FFF1FE454FA4F81
:100D9000A591B4918FB7F894EC91611126C030956C
:100DA0003E233C938FBF08952730A9F02830C9F027
:100DB000243049F7809180008F7D03C080918000AE
:100DC0008F7780938000DFCF84B58F7784BDDBCFB2
:100DD00084B58F7DFBCF8091B0008F778093B0007A
:100DE000D2CF8091B0008F7DF9CF3E2BDACFCF9359
:100DF000DF93C6E9D5E060E088810E94AB061986E2
:100E0000DF91CF910895CF93DF93C6E9D5E061E0FC
:100E100088810E94AB0681E089878C859D8501963B
:100E20009D878C878A859B8501969B878A87DF9122
:100E3000CF910895CF93DF9390E0FC01E855FA4FEE
:100E400024918A539A4FFC0184918823D1F090E039
:100E5000880F991FFC01E457FA4FA591B491FC014A
:100E6000E454FA4FC591D491623071F49FB7F8946D
:100E70003C91822F809583238C93E8812E2B2883AD
:100E80009FBFDF91CF9108958FB7F894EC912E2BEF
:100E90002C938FBFF6CF3FB7F8948091ED039091DC
:100EA000EE03A091EF03B091F00326B5A89B05C017
:100EB0002F3F19F00196A11DB11D3FBFBA2FA92FD9
:100EC000982F8827BC01CD01620F711D811D911DD6
:100ED00042E0660F771F881F991F4A95D1F7089542
:100EE0008F929F92AF92BF92CF92DF92EF92FF923A
:100EF0006B017C010E944B074B015C01C114D104C2
:100F0000E104F104B9F00E944B07681979098A09D4
:100F10009B09683E73408105910580F321E0C21A68
:100F2000D108E108F10888EE880E83E0981EA11C24
:100F3000B11CE4CFFF90EF90DF90CF90BF90AF90C7
:100F40009F908F90089508958CE395E00C94AD07E1
:100F50008CE395E00C94B007089590E080E008954C
:100F600090E080E00895EF92FF920F931F93CF934C
:100F7000DF93EC01EC80FD806E157F050CF070C0F6
:100F800057FF04C0240F351F50E040E08E819F8141
:100F9000FA01E20FF31F8E179F071CF49C01241B1C
:100FA000350B121613060CF05BC0922F842F86951A
:100FB000869586958E9DD0018F9DB00D11246A0F68
:100FC0007B1FAF8DB8A1A60FB71F477049F188E00E
:100FD000841B482F682F70E0FB01E059FA4FE49121
:100FE000281708F063C0621B71092FEF30E002C0C0
:100FF000359527956A95E2F7E2230130110539F01E
:10100000B0F10230110561F58C91E82702C08C9196
:10101000E82BEC93941720F12C813D81A20FB31F94
:10102000E92FE41BE83078F00230110521F58E2F0E
:101030009C9190959C932C813D81A20FB31F885069
:101040008830B0F7E770EE2359F0F0E0E859FA4F36
:10105000E49101301105F9F010F10230110519F198
:10106000DF91CF911F910F91FF90EF900895E09540
:101070008C91E823CECF81E00115110509F480E0C1
:1010800081959E2F8C932C813D81A20FB31F985088
:101090009830C0F7D7CF8C91E82BEC93E1CFE09557
:1010A0008C91E823FACF8C91E827F7CF0130110516
:1010B00009F4ADCFE0F20230110509F4A5CFAE0D71
:1010C000BF1DAECF0F931F93CF93DF9377FF04C065
:1010D000260F371F70E060E0DC011496CD91DC91A3
:1010E000FB01E20FF31FCE17DF071CF49E01261B46
:1010F000370B121613064CF5FA0157FD3796A3E08D
:10110000F595E795AA95E1F7EC9FD001ED9FB00D1D
:10111000FC9FB00D11246A0F7B1FDC015F96ED91DF
:10112000FC91E60FF71F4770552781E090E001C062
:10113000880F4A95EAF7482F0130110559F0A8F0B9
:101140002E0F3F1F02301105E1F0DF91CF911F916B
:101150000F9108952E0F3F1FE217F307B1F381910E
:10116000DF011197842B8C93F7CF80952E0F3F1FB3
:10117000E217F30751F39191DF01119798239C93A4
:10118000F7CFE217F30709F38191DF011197842765
:101190008C93F7CF0F931F93FA01DC0156964C9175
:1011A00056974230E9F04330A1F1413061F5149691
:1011B0004D915C91DA01AE1BBF0BFD01E21BF30BFD
:1011C00077FD0BC0DC0116964D915C916417750795
:1011D00024F4AB01BF010E9462081F910F91089592
:1011E00014964D915C91DA01A61BB70BBD016150BD
:1011F0007109DC0116964D915C91DA01AE1BBF0BB3
:10120000FD01E21BF30B77FDE8CFAF010E94B307AE
:10121000E4CF16964D915C91DA01A61BB70BBD0188
:1012200061507109CDCF0F931F93FA01DC015696DF
:101230004C9156974230A9F0433091F1413019F565
:1012400014964D915C91DA01AE1BBF0BFD013197F5
:10125000F7FD04C0AB01BF010E94B3071F910F91BE
:10126000089514964D915C91DA01A61BB70BBD0150
:10127000DC0116964D915C91DA01AE1BBF0BFD01AE
:101280003197621B730BF7FDE9CFDC0116964D9188
:101290005C91E417F50714F7AF010E946208DECFF6
:1012A00016964D915C91DA01A61BB70BBD01621B2E
:1012B000730BCECFFC0177FD64C0808591856817E4
:1012C00079070CF05EC057FD5CC082859385481796
:1012D00059070CF056C086898230B1F0833029F16D
:1012E000813041F484819581841B950BAB01BC0155
:1012F000615071092130310509F108F443C02230F1
:10130000310509F463C0089584819581DC01A61B31
:10131000B70BBD016150710986819781DC01A41B67
:10132000B50BAD0141505109E5CF86819781861BF0
:10133000970BBA01AC0141505109DCCFCA0157FDEE
:101340000796A3E095958795AA95E1F7A481B581C5
:101350008A9F90018B9F300D9A9F300D1124620F50
:10136000731F078CF0A1E02DE60FF71F477055277C
:1013700021E030E001C0220F4A95EAF78081822BFC
:1013800080830895CA0157FD079633E095958795A8
:101390003A95E1F7A481B5818A9F90018B9F300D2A
:1013A0009A9F300D1124620F731F078CF0A1E02D5E
:1013B000E60FF71F4770552781E090E001C0880FC6
:1013C0004A95EAF7809590818923DACFCA0157FDC3
:1013D000079623E0959587952A95E1F7A481B58135
:1013E0008A9F90018B9F300D9A9F300D1124620FC0
:1013F000731F078CF0A1E02DE60FF71F47705527EC
:1014000021E030E001C0220F4A95EAF7808182276F
:10141000B7CF08958EBD00000DB407FEFDCF8EB589
:1014200008958CBD9DBD08950895FC016370668B81
:101430008481958126813781613039F0633029F0CC
:101440009187808733872287089531872087938704
:10145000828708952F923F924F925F926F927F9270
:101460008F929F92AF92BF92CF92DF92EF92FF92B4
:101470000F931F93CF93DF93CDB7DEB76A970FB665
:10148000F894DEBF0FBECDBF9A8F898F7A836983B0
:101490004A01D22E18870F833701BC2CDC015996E4
:1014A0002D913C915A972115310509F015C11896D7
:1014B0008D919C911997681779070CF0D7C11A96EE
:1014C0008D919C91481759070CF0D0C14C2C512C90
:1014D000B6E0CB9E600D711D11247C876B871616BC
:1014E00017060CF0C3C1EA2DF0E0FA87E98793E014
:1014F000EE0FFF1F9A95E1F7F88BEF87CF01840F6E
:10150000951F181619060CF0B1C1A98DBA8D589601
:101510008C91811104C0BFEABD1508F4D394A98D44
:10152000BA8DED91FC9111970284F385E02DCD01E8
:101530000995B5E0DB9EC0011124E981FA81FC83A5
:10154000EB83312C212C9C0128593F4F388F2F8B56
:101550004A2D50E05E8B4D8BEF89F88DE20DF31D27
:1015600044919E828D82D12CC12C69817A81620D39
:10157000731D7A8B698B842F90E09C8B8B8BE98D0C
:10158000FA8DA081B18140FF82C0F1E0BF126FC02F
:10159000AF126DC01C96ED91FC912F813885A4018E
:1015A0004C0D5D1D69897A89898D9A8D0995EB8924
:1015B000FC89F595E7954E2F5FEFC51AD50A6D8129
:1015C0007E818D899E89680F791F7E836D8398E067
:1015D000C916D10481F6AFEF2A1A3A0AEB81FC81D1
:1015E000E40DF51DFC83EB83F5E02F16310409F0C3
:1015F000B3CF2F81388526153705B9F0A98DBA8D5F
:10160000ED91FC91B1E0BB1257C0AB1255C069819E
:101610007A816B5F7F4F0088F189E02D830128E09C
:1016200030E0A401898D9A8D0995A98DBA8DED912F
:10163000FC9111970688F789E02DCD016A960FB6C7
:10164000F894DEBF0FBECDBFDF91CF911F910F91F8
:10165000FF90EF90DF90CF90BF90AF909F908F90D2
:101660007F906F905F904F903F902F9009941E96BF
:10167000ED91FC91EF80F88409851A8592014D81E6
:101680005E816B817C81898D9A8D099590CF2F81A8
:1016900038852615370509F48ACF31E0B31207C023
:1016A000A31205C01C96ED91FC91930178CF1E9674
:1016B000ED91FC917301E0CF6B857C856419750910
:1016C0000684F785E02D73010F8518899201A40126
:1016D000898D9A8D0995A9CFF90134969491329705
:1016E00045915491D91AB7E0DB9E400D511D11244C
:1016F000F901259134913C8B2B8BFA012590349084
:10170000FA013296749031963491398B3296649006
:101710003196449041E04C1518F04A1508F07FC00E
:10172000662D062C000C770B7C836B83842D042C98
:10173000000C990B9E838D83A98DBA8DED91FC9140
:1017400011970284F385E02DCD010995512CD12C00
:10175000C12CEA2DF0E0FA87E9872B2D30E03C8799
:101760002B87A401440D511D47FC5A95588F4F8B70
:1017700069817A81660D711D67FC7A957E876D8718
:101780007989C71608F051CF2C2D30E04D815E814C
:10179000420F531FA985BA854A9FC0014B9F900DE8
:1017A0005A9F900D1124FC01E80DF91DF88BEF876D
:1017B000852D612C4F89588D420F531F5E8B4D8BA9
:1017C000671408F050C044244394480E877041F4D5
:1017D000C1010196EB89FC89E20DF31DD4901C0137
:1017E000D7FE19C0A98DBA8DED91FC91662D70E0E0
:1017F000B1E0BB1219C0AB1217C02D853E85620F38
:10180000731F0484F585E02D2F8138854D895E890D
:10181000898D9A8D0995DD0C6394842DD1CF1E821C
:101820001D821C821B8288CF4B815C81640F751FD7
:10183000AB85BC856A9FC0016B9F900D7A9F900D10
:10184000112469817A81680F791F0684F785E02D5C
:10185000EF80F88409851A859D014F855889898D07
:101860009A8D0995D8CF570CC3948ACF6A960FB634
:10187000F894DEBF0FBECDBFDF91CF911F910F91C6
:10188000FF90EF90DF90CF90BF90AF909F908F90A0
:101890007F906F905F904F903F902F9008958F9220
:1018A0009F92AF92CF92EF92FF920F931F93CF939D
:1018B000DF93EC01262F898D9A8D009709F051C096
:1018C0006A30D1F41D861C868D8948E0849F900182
:1018D00011248E859F85820F931F9F878E8781E0BD
:1018E00090E0DF91CF911F910F91FF90EF90CF90FB
:1018F000AF909F908F9008956D3089F3CC88AD881C
:101900008F898823C1F08C859D8536E0C39E800D2C
:10191000911D1124488559854817590764F44E854F
:101920005F851D861C8638E0A39EC0011124840FAC
:10193000951F9F878E87EA88FB88088919894E85BD
:101940005F856C857D85CE010E942A0A2C898C8555
:101950009D8546E0249F800D911D11249D878C87D5
:10196000BECF6A3069F41D861C86FC013896E4916E
:101970002D898E859F85E29F800D911D1124ADCF0D
:101980006D3009F4ACCFFC0134963491631708F440
:10199000A6CF3296E491E61708F4A1CFFC01329667
:1019A00085909490462F431B342F47E0349F800C42
:1019B000911C1124F401329634913196E491332331
:1019C000A9F1EE2399F1CC88F4013596E491AD8824
:1019D0004F89442301F10E2E000CFF0BE30FF11D84
:1019E000CE9EA001CF9E500D11246C857D85460FA3
:1019F000571F68857985641775076CF44E855F8578
:101A00001D861C86FC013896E491AE9E400D511D4A
:101A100011245F874E87EA88FB88088919894E85DB
:101A20005F856C857D85CE010E942A0AF40134967B
:101A3000E4912C898C859D85E29F800D911D112458
:101A40008DCF6F927F928F929F92AF92BF92CF92E3
:101A5000DF92EF92FF920F931F93CF93DF93EC01EE
:101A60006B015A0139014801E881F9810284F3854B
:101A7000E02D0995E881F9810288F389E02D87013D
:101A80009301A501B601CE010995A501480D591D87
:101A900041505109E881F9810288F389E02D9301D1
:101AA000B601CE010995E881F9810088F189E02D20
:101AB0009401A501B601CE010995C60CD71CB6014B
:101AC00061507109E881F9810088F189E02D940164
:101AD000A501CE010995E881F9810688F789E02DF5
:101AE000CE01DF91CF911F910F91FF90EF90DF908A
:101AF000CF90BF90AF909F908F907F906F90099400
:101B00006F927F928F929F92AF92BF92CF92DF920D
:101B1000EF92FF920F931F93CF93DF935C01EB0142
:101B20006A01490138018701DC01ED91FC916217DE
:101B3000730719F5641675062CF0962D872D3A015A
:101B4000C92ED82E9601261937092F5F3F4F048CD6
:101B5000F58DE02DA301BE01C5010995DF91CF915F
:101B60001F910F91FF90EF90DF90CF90BF90AF90BB
:101B70009F908F907F906F9008954615570591F430
:101B80002617370724F0892D4B01C22FD82F9E012D
:101B9000281939092F5F3F4F068CF78DE02DA601DC
:101BA000B401DACF0284F385E02D0995D501ED91DA
:101BB000FC910488F589E02D83019401A601BE0102
:101BC000C5010995D501ED91FC910688F789E02DB5
:101BD000C501DF91CF911F910F91FF90EF90DF90A2
:101BE000CF90BF90AF909F908F907F906F9009940F
:101BF000EF92FF920F931F93DC011A960D911C91A7
:101C00001B9718962D913C911997ED91FC9100A08E
:101C1000F1A1E02D7B0150E040E070E060E009952B
:101C20001F910F91FF90EF9008954F925F926F92E6
:101C30007F928F929F92AF92BF92CF92DF92EF925C
:101C4000FF920F931F93CF93DF936C012B015A01E7
:101C500039014801DC01ED91FC910284F385E02D0E
:101C60000995E201640C751CD601ED91FC91C61535
:101C7000D7055CF40088F189E02D87019401A50166
:101C8000BE01C60109952196EFCF0688F789E02DA0
:101C9000C601DF91CF911F910F91FF90EF90DF90E0
:101CA000CF90BF90AF909F908F907F906F905F90FC
:101CB0004F9009948F929F92AF92BF92CF92DF92F2
:101CC000EF92FF920F931F93CF93DF93EC015B0191
:101CD0004A016901E881F9810284F385E02D0995C3
:101CE00095012C0D3D1D21503109E881F9810488B1
:101CF000F589E02D78018401A401B501CE01099593
:101D0000E881F9810688F789E02DCE01DF91CF9136
:101D10001F910F91FF90EF90DF90CF90BF90AF9009
:101D20009F908F9009948F929F92AF92BF92CF9283
:101D3000DF92EF92FF920F931F93CF93DF93EC010B
:101D40005B014A0169017801E881F9810284F38528
:101D5000E02D0995C80CD91C860101501109E881B4
:101D6000F9810488F589E02D9501A401B501CE0122
:101D70000995E881F9810688F789E02DCE01DF9188
:101D8000CF911F910F91FF90EF90DF90CF90BF9078
:101D9000AF909F908F900994EF92FF920F931F93B3
:101DA000DC01ED91FC9100A0F1A1E02D09951F91BE
:101DB0000F91FF90EF9008950F931F93DC01ED9129
:101DC000FC91068CF78DE02D09951F910F910895D8
:101DD0000F931F93DC01ED91FC91048CF58DE02DA8
:101DE00009951F910F910895DC01ED91FC910084FC
:101DF000F185E02D09943F924F925F926F927F920E
:101E00008F929F92AF92BF92CF92DF92EF92FF920A
:101E10000F931F93CF93DF935C017B014A0169010C
:101E2000390187E0680E711C93E0759467949A9568
:101E3000E1F72B01400E511E10E000E0312CD0E004
:101E4000C0E0CE0187709927330C892B59F4FE012D
:101E500083E0F595E7958A95E1F7E00FF11FE80D2E
:101E6000F91D349037FE0AC021E030E0A701B5012A
:101E70006C0F7D1F82E595E00E94F40E2196CC1632
:101E8000DD06F9F68FEFE81AF80A060D171DE414BF
:101E9000F504A9F6DF91CF911F910F91FF90EF907C
:101EA000DF90CF90BF90AF909F908F907F906F907A
:101EB0005F904F903F9008952F923F924F925F9284
:101EC0006F927F928F929F92AF92BF92CF92DF924A
:101ED000EF92FF920F931F93CF93DF9300D000D028
:101EE00000D0CDB7DEB73C016A013E832D83FC8272
:101EF000EB825801A41AB50AB7FE03C0B194A194AD
:101F0000B1088D809E80861A970A97FE03C091942F
:101F1000819491088A149B045CF0902F812F0D818D
:101F20001E819D838E839C2D8D2D6B01692F782FB3
:101F30000C151D055CF09D818E817E836D83692F5C
:101F4000782F902F812F8601C92ED82E1601201AA6
:101F5000310A2B012D813E81421A530A57FE03C0DC
:101F6000519441945108710137FE03C03FEFE31AC9
:101F7000F30AF594E7948D819E81861797075CF5A7
:101F8000A1E0B0E0BA83A983C016D1064CF1D30119
:101F9000ED91FC910484F585E02D2B813C81A80115
:101FA0006D817E818A149B041CF04D815E81B80195
:101FB000C3010995E418F508F7FE0AC02D813E819A
:101FC00089819A81280F391F3E832D83E20CF31CEF
:101FD0000F5F1F4FD9CF2FEF3FEF3A832983D4CF25
:101FE00026960FB6F894DEBF0FBECDBFDF91CF911E
:101FF0001F910F91FF90EF90DF90CF90BF90AF9027
:102000009F908F907F906F905F904F903F902F9018
:1020100008952091C903260F3327331F213231053C
:10202000ECF420914004FC0190E080E0243069F061
:1020300082E00895A091C9032191AC0147555C4FFE
:10204000A40FB52FB11D2C930196861798F380919C
:10205000C903680F6093C90380E0089581E0089583
:102060001092400481E080933F0410921A0461E0D2
:1020700082E10E94AB0661E083E10E94AB06E9EBDE
:10208000F0E080818E7F808380818D7F808388E4F3
:102090008093B80085E48093BC00089510921904E1
:1020A0001092180410924704109269040E94301094
:1020B0008BE995E090931704809316048CE995E0E2
:1020C00090931504809314040895CF93DF9391E0C7
:1020D0009093A8038823B9F0C091B800D091BA00BA
:1020E0008091BC008A7B8093BC0060E082E10E940A
:1020F000AB0660E083E10E94AB060E943010D093F3
:10210000BA00C093B800DF91CF9108958F929F924B
:10211000AF92BF92CF92DF92EF92FF920F931F93F5
:10212000CF93DF93D0916904D13208F0D7C0182F34
:10213000C09168040E944B076B017C0180914004B0
:1021400081116BC082E08093400410933F048FEFB5
:1021500080933E0410923D04D0933C04A8E4B4E084
:10216000ECE1F4E080E0D81391C010921B04809160
:102170001B04CC0FC82BC0931B0480911A04813020
:1021800009F088C010921A040E944B076B017C0171
:1021900080911B048093BB00809142049091430482
:1021A000A0914404B0914504892B8A2B8B2BA1F07C
:1021B0000E944B0700914204109143042091440473
:1021C000309145046C197D098E099F090617170780
:1021D0002807390708F442C08091BC0083FDD8CF9E
:1021E00085EC8093BC000E944B076B017C018091C1
:1021F0004004823009F450C080913E048F3F09F4BE
:102200006FC080913E04803209F46CC080913E041E
:10221000803309F469C084E026C080914204909123
:102220004304A0914404B0914504892B8A2B8B2B45
:1022300009F484CF0E944B0780904204909043049D
:10224000A0904404B09045046C197D098E099F0943
:1022500086169706A806B90608F070CF809141044B
:102260000E94651085E01092470410926904109254
:102270004604DF91CF911F910F91FF90EF90DF9077
:10228000CF90BF90AF909F908F9008959D91919324
:102290008F5F69CF85EEA5CF809142049091430472
:1022A000A0914404B0914504892B8A2B8B2B09F40F
:1022B0009ECF0E944B07009142041091430420914D
:1022C0004404309145046C197D098E099F09061755
:1022D00017072807390708F08ACFC0CF81E0C3CF9E
:1022E00080E0C1CF82E0BFCF83E0BDCFE091190491
:1022F00080911804E81730F4F0E0EE50FC4F808134
:1023000090E008958FEF9FEF0895909119048091C8
:1023100018042FEF3FEF981748F4E92FF0E0EE5044
:10232000FC4F208130E09F5F90931904C90108950C
:102330008091180490911904891B990B0895CF92EC
:10234000DF92EF92FF920F931F93CF93DF937C0165
:10235000CB018A0120914604222389F0EB016B0115
:10236000C40ED51ECC15DD0569F06991D701ED913C
:10237000FC910190F081E02DC7010995F3CF642F06
:102380000E940910C801DF91CF911F910F91FF901A
:10239000EF90DF90CF900895CF93DF931F92CDB74A
:1023A000DEB76983209146042223F9F02091690465
:1023B000203258F021E030E0FC013383228390E0AA
:1023C00080E00F90DF91CF91089580914704E82F2E
:1023D000F0E0E85BFB4F998190838F5F8093470427
:1023E0008093690481E090E0ECCF61E0CE0101963A
:1023F0000E940910F7CF81E00C948610EF92FF92B3
:102400000F931F93CF93DF937C01C62F80916F05AD
:1024100090917005009709F459C02091730531E03F
:102420003093460420936804109247041092690484
:10243000DC01ED91FC910190F081E02D60E00995C7
:102440008701EE24E394F12CD1E0C15080916F0517
:1024500090917005CF3F91F1B0E2EB16F104D8F006
:102460000E94FB1180916F0590917005209173057A
:10247000D093460420936804109247041092690494
:10248000DC01ED91FC910190F081E02D60E0099577
:10249000EE24E394F12C80916F0590917005F80182
:1024A0006491DC01ED91FC910190F081E02D0995A2
:1024B000BFEFEB1AFB0A0F5F1F4FC7CFDF91CF9122
:1024C0001F910F91FF90EF900C94FB11E0917F050D
:1024D000F091800590818091850580958923808386
:1024E0008701C15008F438C0F801849120916D052E
:1024F00030916E05232B29F00E940A0A0F5F1F4FAF
:10250000F0CF28E030E040E8E0917B05F0917C05D9
:1025100090918305582F5423D9F05081952B9083A7
:10252000E0917D05F0917E05908150918405952B79
:102530009083E0917D05F0917E0550819091840516
:10254000909595239083469521503109E9F6D6CF91
:10255000508190959523E3CFDF91CF911F910F91FB
:10256000FF90EF9008951F93CF93DF93EC018D8D33
:102570009E8D009721F1162F29A131E0309346045A
:10258000209368041092470410926904DC01ED91D5
:10259000FC910190F081E02D60E009958D8D9E8D7C
:1025A000DC01ED91FC910190F081E02D612F099506
:1025B0008D8D9E8DDF91CF911F910C94FB11ADA558
:1025C000BEA59C918BA9809589238C938B8D9C8D26
:1025D000892B31F0862FDF91CF911F910C940A0A3D
:1025E00028E030E080E8A9A5BAA599A9462F48239C
:1025F000C1F04C91942B9C93ABA5BCA59C914AA98E
:10260000942B9C93ABA5BCA54C919AA9909594232F
:102610009C9386952150310931F7DF91CF911F911D
:1026200008954C9190959423E6CF1F93CF93DF9319
:10263000EC01162F8D8D9E8D892BB1F12DA93EA910
:102640004FA958AD60E074E284EF90E00E94D5207D
:1026500020513109410951095695479537952795DC
:102660002093B80066EA111167EACE010E94B31206
:102670008D8D9E8D892B41F129AD3AAD4BAD5CAD71
:1026800060E074E284EF90E00E94D520205131098F
:102690004109510956954795379527952093B800DC
:1026A000DF91CF911F9108958B8D9C8D892B21F007
:1026B0008EAD9FAD0E94110AEFA5F8A990818CA95B
:1026C000809589238083CECFEFA5F8A980819CA92E
:1026D000892B8083E5CFCF93DF93EC018B81882317
:1026E000A9F089819A81288131E0309346042093B2
:1026F000680410924704109269040E94FB1191E053
:10270000811190E0892FDF91CF9108950E944E10A2
:1027100081E08B83CE010E946B13982F8111E1CF52
:10272000F1CF90E080E0089520915805309159054F
:10273000C901079697FD079623E0959587952A95F9
:10274000E1F72091560530915705829FA001839FA4
:10275000500D929F500D112470E060E08091710542
:10276000909172050C9427220E942222FB01019075
:102770000020E9F73197AF01461B570BDC01ED91C3
:10278000FC910280F381E02D09948F929F92AF9289
:10279000BF92EF92FF920F931F93CF93DF93CDB72A
:1027A000DEB7A1970FB6F894DEBF0FBECDBF7C0198
:1027B000FA01CB0119A2223008F42AE08E010F5D44
:1027C0001F4F822E912CB12CA12CBF01A501940189
:1027D0000E94D520F901CA016A300CF5605DD8016C
:1027E0006E938D01232B242B252B79F790E080E02D
:1027F000109721F0BD01C7010E94B613A1960FB634
:10280000F894DEBF0FBECDBFDF91CF911F910F9126
:10281000FF90EF90BF90AF909F908F900895695C6C
:10282000DECFCF92DF92EF92FF920F931F93CF9361
:10283000DF93EC016B01770FEE08FF08F7FE25C070
:10284000E881F9810190F081E02D6DE209958C011C
:1028500044275527BA014C195D096E097F092AE002
:10286000CE010E94C513080F191F62E671E0CE0168
:102870000E94B613800F911FDF91CF911F910F918E
:10288000FF90EF90DF90CF9008952AE0B701A60166
:102890000E94C5138C01E9CF0F931F93CF93DF9351
:1028A000EC010E94B6138C0162E671E0CE010E9439
:1028B000B613800F911FDF91CF911F910F91089553
:1028C00085ED8093BC008091420490914304A091D7
:1028D0004404B09145040796A11DB11D23E0B695AF
:1028E000A795979587952A95D1F72091BC0024FD4F
:1028F00003C0109240040895409142045091430453
:102900006091440470914504452B462B472B69F395
:102910000097A105B10541F02AE22A95F1F700C020
:102920000197A109B109E1CF809141040C94651090
:102930001F920F920FB60F9211242F933F934F9334
:102940005F936F937F938F939F93AF93BF93EF9317
:10295000FF938EE694E00E941C06FF91EF91BF91D9
:10296000AF919F918F917F916F915F914F913F9127
:102970002F910F900FBE0F901F9018951F920F92DE
:102980000FB60F9211242F938F939F93EF93FF9382
:10299000E0917E04F0917F048081E0918404F091C5
:1029A000850482FD1BC09081809187048F5F8F73A7
:1029B00020918804821741F0E0918704F0E0E25909
:1029C000FB4F958F80938704FF91EF919F918F919B
:1029D0002F910F900FBE0F901F9018958081F4CF0C
:1029E0001F920F920FB60F9211242F933F938F9344
:1029F0009F93AF93BF9380916A0490916B04A091D1
:102A00006C04B0916D043091EC0323E0230F2D375B
:102A100058F50196A11DB11D2093EC0380936A0423
:102A200090936B04A0936C04B0936D048091ED03BC
:102A30009091EE03A091EF03B091F0030196A11DD8
:102A4000B11D8093ED039093EE03A093EF03B09339
:102A5000F003BF91AF919F918F913F912F910F9074
:102A60000FBE0F901F90189526E8230F0296A11D08
:102A7000B11DD2CF1F920F920FB60F9211242F9338
:102A80003F934F935F936F937F938F939F93AF93F6
:102A9000BF93EF93FF938091B900887F803609F44C
:102AA0004AC0F0F5883209F4A7C018F5803109F45E
:102AB0009BC0B8F4882309F4F9C0883009F494C0A5
:102AC000FF91EF91BF91AF919F918F917F916F9106
:102AD0005F914F913F912F910F900FBE0F901F90DC
:102AE0001895883109F488C0803251F780933E04EC
:102AF00014C0803409F49DC040F48033B9F38833A6
:102B0000F9F680933E0485ECB0C0803509F485C0A9
:102B1000883509F496C0883499F60E946014D0CFA5
:102B2000883909F48CC038F5883729F050F4883694
:102B300011F0803729F683E0809340041092EB0374
:102B400057C0883809F47BC0803919F0803809F003
:102B5000B7CF8091EB03803208F071C0E091EB03B6
:102B600081E08E0F8093EB038091BB00F0E0E55392
:102B7000FC4F80833DC0803B39F0E0F4803A09F49B
:102B800079C0883A09F09CCF84E080934004109289
:102B9000CA031092C903E0911604F0911704099535
:102BA0008091C90381110FC081E08093C903109205
:102BB000A90309C0803C09F4A6CF883C09F4A3CF3F
:102BC000883B09F07DCFE091CA0381E08E0F8093AE
:102BD000CA03F0E0E755FC4F80818093BB009091E1
:102BE000CA038091C90329C080911B048093BB0054
:102BF00085EC8093BC0064CF90913D0480913C04AF
:102C0000981758F5E0913D0481E08E0F80933D04C4
:102C1000F0E0E45EFB4F8081E9CFE0913D0481E08C
:102C20008E0F80933D048091BB00F0E0E45EFB4F8B
:102C3000808390913D0480913C049817C8F285E808
:102C4000D8CFE0913D0481E08E0F80933D048091C8
:102C5000BB00F0E0E45EFB4F808380913F04811174
:102C60005CCF81E080931A0484EA8093BC001092C8
:102C7000400426CF85EC8093BC00109240048091E4
:102C8000EB03803230F4E091EB03F0E0E553FC4FCE
:102C900010826091EB0370E0E0911404F091150450
:102CA0008BEC93E009951092EB030ACF10923E044F
:102CB00034CFCF93DF93EC01862F688361E00E94CD
:102CC0001A0760E088810E94AB06198681E08B8339
:102CD0008C838D838E831F821A82DF91CF9108951A
:102CE000109271041092700488EE93E0A0E0B0E0BE
:102CF0008093720490937304A0937404B09375044A
:102D00002AE031E030936F0420936E0425EC30E02C
:102D100030937B0420937A0424EC30E030937D04DC
:102D200020937C0420EC30E030937F0420937E04D9
:102D300021EC30E0309381042093800422EC30E0D9
:102D4000309383042093820426EC30E03093850492
:102D500020938404109287041092880410928904AE
:102D600010928A0448E853E160E070E040932E0539
:102D700050932F05609330057093310510923A05FA
:102D800010923605109237051092380510923905C9
:102D900010923B0510920D0510920C0510920B0538
:102DA00010923F0510923E052CE131E030933D0535
:102DB00020933C05109249051092480580934A05DE
:102DC00090934B05A0934C05B0934D0588E291E09C
:102DD00090934705809346051092200610921C069A
:102DE00010921D0610921E0610921F0610922106C8
:102DF00010921606109212061092130610921406E4
:102E0000109215061092170610920C0610920806E2
:102E10001092090610920A0610920B0610920D06E7
:102E200062E086EF95E00E9459161092F405109228
:102E3000F0051092F1051092F2051092F305109230
:102E4000F50563E08EED95E00E9459161092DC05C1
:102E50001092D8051092D9051092DA051092DB0570
:102E60001092DD0564E086EC95E00E945916109200
:102E7000C4051092C0051092C1051092C2051092AF
:102E8000C3051092C50565E08EEA95E00E945916CB
:102E90001092AC051092A8051092A9051092AA05EF
:102EA0001092AB051092AD056DE086E995E00E94A9
:102EB00059168BE08093940562E00E941A0760E047
:102EC000809194050E94AB06109295058AE080934C
:102ED000920562E00E941A0760E0809192050E94CC
:102EE000AB0610929305109255051092540520E8F8
:102EF00030E0309357052093560580E290E09093A0
:102F000059058093580530935B0520935A0590939B
:102F10005D0580935C051092680510925F05109224
:102F20005E05109261051092600581E0809367054F
:102F3000809366052FEF3FEF30936505209364057E
:102F400030936305209362058093690510926A05AA
:102F500010926C0510926B058AE391E090935305F3
:102F60008093520510926E0510926D0586E495E0EF
:102F70009093700580936F05109272051092710501
:102F80008FEF809376058093770580937805809303
:102F9000790580937A0580E89AE1A6E0B0E0809315
:102FA000870590938805A0938905B0938A0580EAE8
:102FB00096E8A1E0B0E080938B0590938C05A093F8
:102FC0008D05B0938E0580E5809390051092910554
:102FD0001092450510924405109243051092400549
:102FE000E9E9FAE081E08C3049F09491823009F40B
:102FF0009F5F21E0280F3196992331F0809341059E
:1030000081E0809342050895822FEDCFCF93DF9327
:1030100000D000D000D01F92CDB7DEB7789484B531
:10302000826084BD84B5816084BD85B5826085BDC4
:1030300085B5816085BD80916E00816080936E0052
:103040001092810080918100826080938100809144
:1030500081008160809381008091800081608093F5
:1030600080008091B10084608093B1008091B000B5
:1030700081608093B00080917A00846080937A00B0
:1030800080917A00826080937A0080917A008160DA
:1030900080937A0080917A00806880937A00109201
:1030A000C100E0917E04F0917F0482E08083E09192
:1030B0007A04F0917B041082E0917C04F0917D040D
:1030C0008FEC808310928604E0918204F091830457
:1030D00086E08083E0918004F091810480818061AA
:1030E0008083E0918004F0918104808188608083F6
:1030F000E0918004F0918104808180688083E09178
:103100008004F091810480818F7D808365E671E089
:103110008EE694E00E944C1468EE73E080E090E04C
:103120000E9470078091710590917205892B11F1B1
:103130000E949413209158053091590580915605AD
:1031400090915705213231050CF04BC0B901605206
:10315000710977FF02C06F5F7F4F75956795835741
:10316000910997FD019600E210E023E730E04AED77
:1031700055E04AC02091580530915905C90107967C
:1031800097FD0796B3E095958795BA95E1F720915D
:10319000560530915705AC01429FC001439F900DE9
:1031A000529F900D11240E94FD20909372058093F0
:1031B0007105892B09F0BCCF0AE71AE0F801649188
:1031C000662341F08EE694E00E943E060F5F1F4F9B
:1031D000892BA1F762E671E08EE694E00E94B613B7
:1031E000FFCFB9016054710977FF02C06F5F7F4F55
:1031F000759567958255910997FD019600E410E059
:1032000022E530E04AEB57E0959587950E94FB0E4A
:1032100082E08093740580916F0590917005892BF1
:1032200009F4D4C18CE3809373050E944E10809101
:103230007A0587FD1EC061E00E941A0761E0809157
:103240007A050E94AB0661E070E080E090E00E94A9
:10325000700760E080917A050E94AB066AE070E03A
:1032600080E090E00E94700761E080917A050E9402
:10327000AB0680916F0590917005892B09F465C2AA
:1032800020918705309188054091890550918A05E4
:1032900060E074E284EF90E00E94D5202051310973
:1032A0004109510956954795379527952093B800C0
:1032B00064E084EA95E00E94FE1160915805615037
:1032C00082E595E00E94B31264E080EA95E00E94F6
:1032D000FE118091740560E1813009F064E182E5BE
:1032E00095E00E94B31264E08CE995E00E94FE1123
:1032F0008FE880938F05809156059091570580380F
:10330000910509F03BC28091580590915905803490
:10331000910509F043C280917405813009F02CC2F7
:103320008FE980938F0512E16AED82E595E00E94B6
:10333000B312612F82E595E00E94B31261E882E545
:1033400095E00E94B31260918F0582E595E00E949E
:10335000B31269ED82E595E00E94B3128091740585
:1033600062E2813009F061EF82E595E00E94B312DC
:1033700066E086E995E00E94FE1180916F059091CC
:103380007005892B09F40EC220918B0530918C05B4
:1033900040918D0550918E0560E074E284EF90E0DD
:1033A0000E94D52020513109410951095695479570
:1033B000379527952093B8000E94941364E871E034
:1033C0008EE694E00E944C1468EE73E080E090E09A
:1033D0000E9470078091120490911304009711F0DD
:1033E0000E94992186E090E00E94FD208C0188E6F1
:1033F000D8018C9386E495E012969C938E93119756
:1034000013961C92139780E290E015969C938E93EE
:10341000149710931304009312040E944E1081E03D
:10342000F8018383C8010E946B13882309F4C4C187
:1034300069E971E08EE694E00E944C1468EE73E056
:1034400080E090E00E947007412C64E2562E64EF09
:10345000662E712C19822090120430901304D10131
:1034600014968D919C911597892B09F42DC2119674
:103470008D919C9112972C9131E0309346042093CA
:1034800068041092470410926904DC01ED91FC91EC
:103490000280F381E02D41E050E0BE016F5F7F4F7D
:1034A0000995019709F010C280E00E9486108111F1
:1034B0000BC2D12CC12CF1018481958157E0E52EFE
:1034C000F12CEC18FD088E159F0508F47C01D10144
:1034D0000C910E944B074B015C01809140048111CB
:1034E0007CC11E2D113208F010E2B1E0B09340040F
:1034F00021E087E090E08E199F09C816D90608F4EC
:1035000020E020933F04EFEFE0933E0410923D044F
:103510008FEF810F80933C04F1E0F0931B048091C6
:103520001B04000F082B00931B0480911A048130A8
:1035300009F09DC110921A040E944B074B015C01D7
:1035400080911B048093BB008091420490914304BE
:10355000A0914404B0914504892B8A2B8B2BA1F0B8
:103560000E944B072091420430914304409144044F
:1035700050914504681979098A099B09261737076C
:103580004807590708F44AC18091BC0083FDD8CF91
:1035900025EC2093BC000E944B074B015C018091FD
:1035A0004004813009F467C180913D04811710F413
:1035B00010913D04ACE1B4E0E2EFF3E080E081176C
:1035C00009F431C19D9191938F5FF9CF61E08091B2
:1035D00078050E941A0761E0809179050E941A0718
:1035E00080917805082E000C990BFC01EA53FA4FE4
:1035F000E491F0E0EE0FFF1FE454FA4F259134916F
:103600003093800520937F05FC01E855FA4FE49143
:10361000E093850580917905082E000C990BFC013B
:10362000EA53FA4FE491F0E0EE0FFF1FE454FA4F33
:10363000A591B491B0938205A0938105FC01E85552
:10364000FA4FE491E09386058C91E82BEC938091FE
:103650006D0590916E05892B09F434C01FB7F8945D
:103660008091F103811127C0E0EDF5E08491E2EB58
:10367000F5E09491E82FF0E0EE0FFF1FE457FA4FCA
:10368000A591B491EC91E92321F461E08AE00E94D4
:10369000AB0661E08AE00E941A078CB580618CBDA0
:1036A0008CB580648CBD61E08DE00E941A0761E0FA
:1036B0008BE00E941A078091F1038F5F8093F103E2
:1036C0001FBFB5CD61E0809176050E941A0761E0C9
:1036D000809177050E941A0780917605082E000CCC
:1036E000990BFC01EA53FA4FE491F0E0EE0FFF1F53
:1036F000E454FA4F2591349130937C0520937B0557
:10370000FC01E855FA4FE491E09383058091770539
:10371000082E000C990BFC01EA53FA4FE491F0E0FB
:10372000EE0FFF1FE454FA4FA591B491B0937E05BC
:10373000A0937D05FC01E855FA4FE491E0938405E0
:103740008C91E095E823EC9372CD80916D0590917A
:103750006E05892B31F080919005909191050E9422
:10376000110AE0918105F091820590818091860592
:103770008095892380839CCD8FECD3CD80369105B5
:1037800069F48091580590915905409739F48091DA
:103790007405813029F480E180938F0512E0C4CD57
:1037A0008FEAFACFE0918105F091820580819091B6
:1037B0008605892B808300CE6DEA71E08EE694E069
:1037C0000E944C148EE694E00E948B066AE070E042
:1037D00080E090E00E947007F9CF809142049091C0
:1037E0004304A0914404B0914504892B8A2B8B2B70
:1037F00009F473CE0E944B07209142043091430498
:103800004091440450914504681979098A099B093B
:10381000261737074807590708F05FCE8091410403
:103820000E94651010E010921904109318041E15E0
:103830001F0409F049C001E010E00C0F1D1F0C0D22
:103840001D1D5801C8018A199B098E159F05A8F5F1
:10385000D10111968D919C91DC01ED91FC91028436
:10386000F385E02D0995F80181938F01EBCF45EEAB
:103870004093BC0090CE8091420490914304A0916B
:103880004404B0914504892B8A2B8B2B09F487CEF5
:103890000E944B072091420430914304409144041C
:1038A00050914504681979098A099B092617370739
:1038B0004807590708F073CEB1CFCE0CDF1CF7E0F4
:1038C000CF16D10408F4F7CD99819F772A813B81E7
:1038D000432F50E074E0559547957A95E1F7842F92
:1038E000880F880F642F681B862F880F830F3D81F8
:1038F0006E816F774F81E42FF0E0A4E0F595E795B6
:10390000AA95E1F75E2F550F550FE51BEE0FE40F5B
:10391000E0934005462F50E0B4E055954795BA95A1
:10392000E1F7542F550F550F451B440F460F409399
:103930004105632F70E014E0759567951A95E1F7DE
:10394000462F440F440F641B660F630F60934205BC
:1039500080934305422F50E004E0559547950A9522
:10396000E1F7342F330F330F431B440F420F4093C3
:103970004405292F30E044E0359527954A95E1F735
:10398000322F330F330F231B220F290F20934505AE
:1039900090919905992309F440C081508830C8F46A
:1039A00080919705811115C06FEB71E08EE694E070
:1039B0000E944C146FED71E08EE694E00E944C146E
:1039C00081E080939705809398050E947E050E9470
:1039D0000307809143058A3000F180919705882381
:1039E000E1F0809198058130C1F469EF71E08EE6D5
:1039F00094E00E944C1465E172E08EE694E00E942F
:103A00004C14109297051092AC051092AD050E94CF
:103A1000F7061092A1051092A00580919A058823BF
:103A200009F442C0809143058A30D1F48091970512
:103A3000811116C060E372E08EE694E00E944C149F
:103A40006FED71E08EE694E00E944C1481E080936B
:103A5000970582E0809398050E947E050E940307E7
:103A6000809143058C3000F1809197058823E1F027
:103A7000809198058230C1F460E572E08EE694E0B2
:103A80000E944C1465E172E08EE694E00E944C14B2
:103A9000109297051092AC051092AD050E94F706A2
:103AA0001092A1051092A00580919B05882309F42E
:103AB00042C0809143058031D1F4809197058111F6
:103AC00016C06CE672E08EE694E00E944C146FED36
:103AD00071E08EE694E00E944C1481E0809397059B
:103AE00083E0809398050E947E050E9403078091E1
:103AF0004305823100F1809197058823E1F08091A0
:103B000098058130C1F46CE872E08EE694E00E9482
:103B10004C1465E172E08EE694E00E944C14109221
:103B200097051092AC051092AD050E94F706109211
:103B3000A1051092A00580919C05882309F443C03B
:103B40008091430585518330D0F480919705811190
:103B500016C068EA72E08EE694E00E944C146FEDA5
:103B600071E08EE694E00E944C1481E0809397050A
:103B700084E0809398050E947E050E94030780914F
:103B80004305893100F1809197058823E1F0809108
:103B900098058130C1F468EC72E08EE694E00E94F2
:103BA0004C1465E172E08EE694E00E944C14109291
:103BB00097051092AC051092AD050E94F706109281
:103BC000A1051092A0058091AC05882309F455C089
:103BD0008091AD05882361F18091A8059091A90598
:103BE000A091AA05B091AB054091A4055091A505FF
:103BF0006091A6057091A705840F951FA61FB71F9A
:103C00008093A8059093A905A093AA05B093AB054E
:103C100091E09093AC051092AD0580919F058927A6
:103C200080939F05882309F47AC10E94030725C069
:103C30002FB7F89480916A0490916B04A0916C0462
:103C4000B0916D042FBF4091A8055091A9056091D6
:103C5000AA057091AB05841B950BA60BB70B409181
:103C6000A4055091A5056091A6057091A70584173C
:103C70009507A607B70708F0AFCF0E94941381E01D
:103C8000809366058093670581E090E090936505D9
:103C900080936405909363058093620510925F059D
:103CA00010925E05109261051092600561EE72E05F
:103CB00082E595E00E944C1480919F05811110C00F
:103CC0008EE690E090935F0580935E05109261050B
:103CD000109260056DEE72E082E595E00E944C1452
:103CE00080919F05882381F0AEE6B0E0B0935F0538
:103CF000A0935E05109261051092600561EF72E07D
:103D000082E595E00E944C148091970510925F0522
:103D100010925E05882309F40EC188E090E090932C
:103D200061058093600564EF72E082E595E00E9492
:103D30004C1484E690E090935F0580935E0509E162
:103D400010E010936105009360056091A2057091E9
:103D5000A30582E595E00E94111440914305E0908F
:103D60004405F090450581E08093660580936705E2
:103D700081E090E0909365058093640590936305DE
:103D80008093620510925F0510925E0510936105A5
:103D90000093600550E070E060E02AE082E595E085
:103DA0000E94C51364E073E082E595E00E94B613BB
:103DB0004E2D50E070E060E02AE082E595E00E9440
:103DC000C51364E073E082E595E00E94B6134F2DC1
:103DD00050E070E060E02AE082E595E00E94C513C3
:103DE00080916F0590917005892B09F4ADC02091E9
:103DF0008705309188054091890550918A05C30156
:103E0000B2010E94D520205131094109510956952E
:103E10004795379527952093B80065E084E99AE0A7
:103E20000E94FE1160915605615082E595E00E9466
:103E3000B3122091580530915905C901079697FD95
:103E4000079633E0959587953A95E1F720915605C9
:103E500030915705829F7001839FF00C929FF00C68
:103E60001124009171051091720580916F05909158
:103E70007005E00EF11E009709F406C1209173054C
:103E800031E0309346042093680410924704109266
:103E90006904DC01ED91FC910190F081E02D60E47A
:103EA0000995CC24C394D12CBB24B39480916F0585
:103EB00090917005E016F10609F45DC0B0E2CB16F2
:103EC000D104D8F00E94FB1180916F05909170058C
:103ED00020917305B0924604209368041092470421
:103EE00010926904DC01ED91FC910190F081E02DCC
:103EF00060E40995CC24C394D12C80916F059091F6
:103F00007005F80161918F01DC01ED91FC91019048
:103F1000F081E02D0995BFEFCB1ADB0AC7CF0E94D5
:103F2000F7068091A0059091A10501969093A105B7
:103F30008093A005A2CE88E090E0909361058093E5
:103F400060056BEF72E0F1CE80916D0590916E058A
:103F5000892B31F080919005909191050E94110A72
:103F6000E0918105F0918205908180918605809590
:103F70008923808352CF0E94FB1180916F0590911D
:103F80007005892B09F4C4C020918B0530918C05F4
:103F900040918D0550918E05C301B2010E94D5203C
:103FA0002051310941095109569547953795279573
:103FB0002093B800809197058823D1F180919F05C7
:103FC000811106C066E073E08EE694E00E944C1416
:103FD00080919F05882361F161E273E08EE694E0B1
:103FE0000E944C146BE373E08EE694E00E94B613DB
:103FF0006091A0057091A1058EE694E00E941114D5
:104000006CE573E08EE694E00E94B6138091AC05F7
:10401000811188C040E050E0BA012AE08EE694E0C9
:104020000E94C51362E671E08EE694E00E94B6132A
:104030006DE773E08EE694E00E94B61360919705F9
:1040400070E08EE694E00E94111467E973E08EE65A
:1040500094E00E944C1467E973E08EE694E00E94BD
:104060004C1468EE73E080E090E00E94700780E0FE
:1040700090E0892B09F4EEC90E940806882309F410
:10408000E9C90E940000E6C9E0917F05F091800532
:10409000808190918505892B8083E016F10609F4D3
:1040A0006CCFF80181918F0120916D0530916E05E3
:1040B000232B19F00E940A0AF0CF28E030E040E8F4
:1040C000E0917B05F0917C0590918305542F582356
:1040D000D9F05081952B9083E0917D05F0917E057C
:1040E000908150918405952B9083E0917D05F0910E
:1040F0007E055081909184059095952390834695F7
:1041000021503109E9F6C9CF508190959523E3CF2D
:10411000E0918105F0918205808190918605892B3F
:10412000808348CF2FB7F89480916A0490916B04F4
:10413000A0916C04B0916D042FBF2091AD052111A9
:1041400069CF4091A8055091A9056091AA05709189
:10415000AB050091A4051091A5052091A60530910D
:10416000A7056C017D01C41AD50AE60AF70AC01634
:10417000D106E206F30608F04DCF400F511F621F33
:10418000731F481B590B6A0B7B0B47CF8AE391E0E7
:10419000909353058093520580917105909172051B
:1041A000009711F00C9499210895A1E21A2EAA1BF0
:1041B000BB1BFD010DC0AA1FBB1FEE1FFF1FA217D7
:1041C000B307E407F50720F0A21BB30BE40BF50BD4
:1041D000661F771F881F991F1A9469F7609570955D
:1041E000809590959B01AC01BD01CF010895EE0F24
:1041F000FF1F0590F491E02D09940F931F93CF9327
:10420000DF938230910510F482E090E0E091240683
:10421000F091250630E020E0B0E0A0E0309799F47E
:104220002115310509F44AC0281B390B243031050A
:10423000D8F58A819B816115710589F1FB01938312
:104240008283FE0111C04081518102811381481790
:104250005907E0F04817590799F4109761F0129642
:104260000C93129713961C933296CF01DF91CF9146
:104270001F910F9108950093240610932506F4CF03
:104280002115310551F04217530738F0A901DB0120
:104290009A01BD01DF01F801C1CFEF01F9CF909381
:1042A000250680932406CDCFFE01E20FF31F8193F4
:1042B00091932250310939832883D7CF2091220648
:1042C00030912306232B41F4209102013091030108
:1042D00030932306209322062091000130910101A2
:1042E0002115310541F42DB73EB74091040150919D
:1042F0000501241B350BE0912206F0912306E217FD
:10430000F307A0F42E1B3F0B2817390778F0AC01F8
:104310004E5F5F4F2417350748F04E0F5F1F5093D5
:10432000230640932206819391939FCFF0E0E0E033
:104330009CCFCF93DF930097E9F0FC013297138273
:104340001282A0912406B0912506ED0130E020E014
:104350001097A1F420813181820F931F20912206B2
:10436000309123062817390709F061C0F09323061E
:10437000E0932206DF91CF910895EA01CE17DF077F
:10438000E8F54A815B819E0141155105B1F7E901CC
:10439000FB83EA8349915991C40FD51FEC17FD07A0
:1043A00061F4808191810296840F951FE9019983C0
:1043B0008883828193819B838A83F0E0E0E0129678
:1043C0008D919C9113970097B9F52D913C91119780
:1043D000CD010296820F931F209122063091230671
:1043E0002817390739F6309751F5109225061092A3
:1043F0002406B0932306A0932206BCCFD383C283A6
:1044000040815181840F951FC817D90761F44E5F11
:104410005F4F88819981480F591F518340838A815A
:104420009B81938382832115310509F0B0CFF093EE
:104430002506E09324069ECFFD01DC01C0CF138248
:104440001282D7CF81E090E0F8940C942E22DC0108
:1044500001C06D9341505040E0F7089515E0C3E569
:10446000D5E004C0FE010E94F7202196C435D10793
:06447000C9F7F894FFCF2C
:10447600000026068000000000003E069E05CB05D3
:104486008B06FC05DA05EE0500000000B007AD0757
:104496009113AC0700000000CC119F1191139D05EC
:1044A600981185117611000000004F0C9E0591139E
:1044B600AC075A099D05F40ECC0EE80EDC0E5C0F17
:1044C6009D05150A1513CA081309150EF80D800D5A
:1044D600210D0D0A0053657269616C20436F6E6E83
:1044E600656374696F6E2045737461626C69736885
:1044F60065642E004F4C4544205365747570204307
:104506006F6D706C6574652E00525443205365744C
:10451600757020436F6D706C6574652E00436F7502
:104526006C646E27742066696E642052544300548E
:104536006573742044657669636520416C61726DAC
:1045460020233120547269676765726564210054BF
:1045560075726E696E67202754657374204465769C
:1045660069636527204F4E2E005465737420446599
:104576007669636520416C61726D20233120726516
:1045860073657421005475726E696E6720275465D1
:1045960073742044657669636527204F46462E006E
:1045A600546573742044657669636520416C617255
:1045B6006D20233220547269676765726564210035
:1045C600546573742044657669636520416C617235
:1045D6006D202332207265736574210054657374EF
:1045E6002044657669636520416C61726D202333D2
:1045F6002054726967676572656421005465737437
:104606002044657669636520416C61726D202333B1
:104616002072657365742100546573742044657651
:1046260069636520416C61726D2023342054726980
:104636006767657265642100546573742044657606
:1046460069636520416C61726D20726573657421C2
:10465600005445535420444556494345004F464669
:10466600004F4E0041637469766500496E6163745C
:10467600697665003A00546573742044657669630B
:10468600652063757272656E746C79204F46462E8E
:10469600005465737420446576696365206375729A
:1046A60072656E746C79204F4E2E005465737420BB
:1046B6004465766963652063757272656E742063FE
:1046C600796C6520636F756E743A20005465737457
:1046D6002044657669636520696E74657276616CDF
:1046E6002072656D61696E696E673A200074657344
:1046F600742064657669636520616C61726D2073F0
:10470600746174653A20002D2D2D2D2D2D2D2D2D06
:084716002D2D2D2D2D2D2D0060
:00000001FF
